{
  "contractName": "GStarCrowdsale",
  "abi": [
    {
      "constant": true,
      "inputs": [],
      "name": "PRE_ICO_MINIMUM_PURCHASE_AMOUNT_IN_WEI",
      "outputs": [
        {
          "name": "",
          "type": "uint256"
        }
      ],
      "payable": false,
      "stateMutability": "view",
      "type": "function"
    },
    {
      "constant": true,
      "inputs": [],
      "name": "tokensRaisedInWei",
      "outputs": [
        {
          "name": "",
          "type": "uint256"
        }
      ],
      "payable": false,
      "stateMutability": "view",
      "type": "function"
    },
    {
      "constant": true,
      "inputs": [],
      "name": "refundVault",
      "outputs": [
        {
          "name": "",
          "type": "address"
        }
      ],
      "payable": false,
      "stateMutability": "view",
      "type": "function"
    },
    {
      "constant": true,
      "inputs": [],
      "name": "phaseFour",
      "outputs": [
        {
          "name": "",
          "type": "uint256"
        }
      ],
      "payable": false,
      "stateMutability": "view",
      "type": "function"
    },
    {
      "constant": true,
      "inputs": [],
      "name": "endTime",
      "outputs": [
        {
          "name": "",
          "type": "uint256"
        }
      ],
      "payable": false,
      "stateMutability": "view",
      "type": "function"
    },
    {
      "constant": true,
      "inputs": [],
      "name": "phaseThree",
      "outputs": [
        {
          "name": "",
          "type": "uint256"
        }
      ],
      "payable": false,
      "stateMutability": "view",
      "type": "function"
    },
    {
      "constant": true,
      "inputs": [],
      "name": "GST_PER_ETH",
      "outputs": [
        {
          "name": "",
          "type": "uint256"
        }
      ],
      "payable": false,
      "stateMutability": "view",
      "type": "function"
    },
    {
      "constant": true,
      "inputs": [],
      "name": "gStarToken",
      "outputs": [
        {
          "name": "",
          "type": "address"
        }
      ],
      "payable": false,
      "stateMutability": "view",
      "type": "function"
    },
    {
      "constant": true,
      "inputs": [],
      "name": "startTime",
      "outputs": [
        {
          "name": "",
          "type": "uint256"
        }
      ],
      "payable": false,
      "stateMutability": "view",
      "type": "function"
    },
    {
      "constant": true,
      "inputs": [],
      "name": "fundingGoal",
      "outputs": [
        {
          "name": "",
          "type": "uint256"
        }
      ],
      "payable": false,
      "stateMutability": "view",
      "type": "function"
    },
    {
      "constant": true,
      "inputs": [],
      "name": "ETH_WALLET",
      "outputs": [
        {
          "name": "",
          "type": "address"
        }
      ],
      "payable": false,
      "stateMutability": "view",
      "type": "function"
    },
    {
      "constant": true,
      "inputs": [],
      "name": "owner",
      "outputs": [
        {
          "name": "",
          "type": "address"
        }
      ],
      "payable": false,
      "stateMutability": "view",
      "type": "function"
    },
    {
      "constant": true,
      "inputs": [],
      "name": "phaseOne",
      "outputs": [
        {
          "name": "",
          "type": "uint256"
        }
      ],
      "payable": false,
      "stateMutability": "view",
      "type": "function"
    },
    {
      "constant": true,
      "inputs": [],
      "name": "etherRaisedInWei",
      "outputs": [
        {
          "name": "",
          "type": "uint256"
        }
      ],
      "payable": false,
      "stateMutability": "view",
      "type": "function"
    },
    {
      "constant": true,
      "inputs": [],
      "name": "MINIMUM_PURCHASE_AMOUNT_IN_WEI",
      "outputs": [
        {
          "name": "",
          "type": "uint256"
        }
      ],
      "payable": false,
      "stateMutability": "view",
      "type": "function"
    },
    {
      "constant": true,
      "inputs": [],
      "name": "phaseSeven",
      "outputs": [
        {
          "name": "",
          "type": "uint256"
        }
      ],
      "payable": false,
      "stateMutability": "view",
      "type": "function"
    },
    {
      "constant": true,
      "inputs": [],
      "name": "phaseSix",
      "outputs": [
        {
          "name": "",
          "type": "uint256"
        }
      ],
      "payable": false,
      "stateMutability": "view",
      "type": "function"
    },
    {
      "constant": true,
      "inputs": [],
      "name": "phaseTwo",
      "outputs": [
        {
          "name": "",
          "type": "uint256"
        }
      ],
      "payable": false,
      "stateMutability": "view",
      "type": "function"
    },
    {
      "constant": true,
      "inputs": [],
      "name": "phaseFive",
      "outputs": [
        {
          "name": "",
          "type": "uint256"
        }
      ],
      "payable": false,
      "stateMutability": "view",
      "type": "function"
    },
    {
      "constant": false,
      "inputs": [
        {
          "name": "newOwner",
          "type": "address"
        }
      ],
      "name": "transferOwnership",
      "outputs": [],
      "payable": false,
      "stateMutability": "nonpayable",
      "type": "function"
    },
    {
      "inputs": [
        {
          "name": "deployedGStar",
          "type": "address"
        }
      ],
      "payable": false,
      "stateMutability": "nonpayable",
      "type": "constructor"
    },
    {
      "payable": true,
      "stateMutability": "payable",
      "type": "fallback"
    },
    {
      "anonymous": false,
      "inputs": [
        {
          "indexed": true,
          "name": "purchaser",
          "type": "address"
        },
        {
          "indexed": true,
          "name": "beneficiary",
          "type": "address"
        },
        {
          "indexed": false,
          "name": "value",
          "type": "uint256"
        },
        {
          "indexed": false,
          "name": "amount",
          "type": "uint256"
        }
      ],
      "name": "TokenPurchase",
      "type": "event"
    },
    {
      "anonymous": false,
      "inputs": [
        {
          "indexed": false,
          "name": "totalAmountRaised",
          "type": "uint256"
        }
      ],
      "name": "GoalReached",
      "type": "event"
    },
    {
      "anonymous": false,
      "inputs": [
        {
          "indexed": true,
          "name": "previousOwner",
          "type": "address"
        },
        {
          "indexed": true,
          "name": "newOwner",
          "type": "address"
        }
      ],
      "name": "OwnershipTransferred",
      "type": "event"
    },
    {
      "anonymous": false,
      "inputs": [
        {
          "indexed": false,
          "name": "newFundingGoal",
          "type": "uint256"
        }
      ],
      "name": "FundingGoalRaised",
      "type": "event"
    },
    {
      "anonymous": false,
      "inputs": [
        {
          "indexed": false,
          "name": "newETHWallet",
          "type": "address"
        }
      ],
      "name": "ETHWalletAddressChanged",
      "type": "event"
    },
    {
      "constant": false,
      "inputs": [
        {
          "name": "beneficiary",
          "type": "address"
        }
      ],
      "name": "buyTokens",
      "outputs": [],
      "payable": true,
      "stateMutability": "payable",
      "type": "function"
    },
    {
      "constant": true,
      "inputs": [],
      "name": "isCrowdsaleActive",
      "outputs": [
        {
          "name": "",
          "type": "bool"
        }
      ],
      "payable": false,
      "stateMutability": "view",
      "type": "function"
    },
    {
      "constant": false,
      "inputs": [],
      "name": "startCrowdsale",
      "outputs": [],
      "payable": false,
      "stateMutability": "nonpayable",
      "type": "function"
    },
    {
      "constant": false,
      "inputs": [],
      "name": "stopCrowdsale",
      "outputs": [],
      "payable": false,
      "stateMutability": "nonpayable",
      "type": "function"
    },
    {
      "constant": false,
      "inputs": [
        {
          "name": "newWalletAddress",
          "type": "address"
        }
      ],
      "name": "changeETHWallet",
      "outputs": [],
      "payable": false,
      "stateMutability": "nonpayable",
      "type": "function"
    },
    {
      "constant": false,
      "inputs": [],
      "name": "claimTokens",
      "outputs": [],
      "payable": false,
      "stateMutability": "nonpayable",
      "type": "function"
    },
    {
      "constant": false,
      "inputs": [],
      "name": "claimRefund",
      "outputs": [],
      "payable": false,
      "stateMutability": "nonpayable",
      "type": "function"
    },
    {
      "constant": false,
      "inputs": [],
      "name": "enableRefund",
      "outputs": [],
      "payable": false,
      "stateMutability": "nonpayable",
      "type": "function"
    },
    {
      "constant": false,
      "inputs": [],
      "name": "closeRefund",
      "outputs": [],
      "payable": false,
      "stateMutability": "nonpayable",
      "type": "function"
    },
    {
      "constant": false,
      "inputs": [
        {
          "name": "beneficiary",
          "type": "address"
        }
      ],
      "name": "addToWhitelist",
      "outputs": [],
      "payable": false,
      "stateMutability": "nonpayable",
      "type": "function"
    },
    {
      "constant": false,
      "inputs": [
        {
          "name": "beneficiary",
          "type": "address"
        }
      ],
      "name": "removeFromWhitelist",
      "outputs": [],
      "payable": false,
      "stateMutability": "nonpayable",
      "type": "function"
    },
    {
      "constant": false,
      "inputs": [
        {
          "name": "beneficiaries",
          "type": "address[]"
        }
      ],
      "name": "addManyToWhitelist",
      "outputs": [],
      "payable": false,
      "stateMutability": "nonpayable",
      "type": "function"
    },
    {
      "constant": false,
      "inputs": [
        {
          "name": "beneficiaries",
          "type": "address[]"
        }
      ],
      "name": "whitelistAndReleaseTokens",
      "outputs": [],
      "payable": false,
      "stateMutability": "nonpayable",
      "type": "function"
    }
  ],
  "bytecode": "0x6060604052635a8279a5600355635a840045600455635a8586e5600555635a870d85600655635a889425600755635a91bbe5600855635a934285600955635a94c925600a55635a964fc5600b55739a1c6fa66dbaea367e21403609628a40cf345b6e600d60006101000a81548173ffffffffffffffffffffffffffffffffffffffff021916908373ffffffffffffffffffffffffffffffffffffffff160217905550612710600e5567016345785d8a0000600f55670de0b6b3a7640000601055670de0b6b3a7640000601155600060125560006013556000601460006101000a81548160ff0219169083151502179055506000601460016101000a81548160ff02191690831515021790555034156200011757600080fd5b6040516020806200381283398101604052808051906020019091905050336000806101000a81548173ffffffffffffffffffffffffffffffffffffffff021916908373ffffffffffffffffffffffffffffffffffffffff1602179055506004546003541015156200018757600080fd5b6005546004541015156200019a57600080fd5b600654600554101515620001ad57600080fd5b600754600654101515620001c057600080fd5b600854600754101515620001d357600080fd5b600954600854101515620001e657600080fd5b600a54600954101515620001f957600080fd5b600b54600a541015156200020c57600080fd5b60006011541115156200021e57600080fd5b33600c60006101000a81548173ffffffffffffffffffffffffffffffffffffffff021916908373ffffffffffffffffffffffffffffffffffffffff16021790555080600160006101000a81548173ffffffffffffffffffffffffffffffffffffffff021916908373ffffffffffffffffffffffffffffffffffffffff160217905550600d60009054906101000a900473ffffffffffffffffffffffffffffffffffffffff1681620002ce62000395565b808373ffffffffffffffffffffffffffffffffffffffff1673ffffffffffffffffffffffffffffffffffffffff1681526020018273ffffffffffffffffffffffffffffffffffffffff1673ffffffffffffffffffffffffffffffffffffffff16815260200192505050604051809103906000f08015156200034e57600080fd5b600260006101000a81548173ffffffffffffffffffffffffffffffffffffffff021916908373ffffffffffffffffffffffffffffffffffffffff16021790555050620003a6565b6040516119d58062001e3d83390190565b611a8780620003b66000396000f3006060604052600436106101a1576000357c0100000000000000000000000000000000000000000000000000000000900463ffffffff1680630118e686146101c757806309e13d9b146101f45780630d7725b91461021d57806311777af7146102465780632a9204561461029b5780633197cbb6146102c4578063391fce3c146102ed5780634089c99f1461031657806348c54b9d1461033f578063507d59541461035457806354d7fa3314610369578063742513c9146103be57806378e97925146104185780637a3a0e84146104415780637b77bbd71461046a57806389e42346146104bf5780638ab1d681146104d45780638c10671c1461050d5780638da5cb5b1461056757806390369001146105bc57806398566e11146105e55780639ec476261461061e578063a39953b214610647578063b5545a3c1461065c578063c493afcf14610671578063d4d90bd514610686578063d4f8fbb7146106af578063d5adee8c146106d8578063e11f02d714610701578063e43252d71461072a578063e4a749d614610763578063ec8ac4d81461078c578063f2fde38b146107ba575b601460019054906101000a900460ff1615156101bc57600080fd5b6101c5336107f3565b005b34156101d257600080fd5b6101da610a3c565b604051808215151515815260200191505060405180910390f35b34156101ff57600080fd5b610207610a53565b6040518082815260200191505060405180910390f35b341561022857600080fd5b610230610a59565b6040518082815260200191505060405180910390f35b341561025157600080fd5b610259610a5f565b604051808273ffffffffffffffffffffffffffffffffffffffff1673ffffffffffffffffffffffffffffffffffffffff16815260200191505060405180910390f35b34156102a657600080fd5b6102ae610a85565b6040518082815260200191505060405180910390f35b34156102cf57600080fd5b6102d7610a8b565b6040518082815260200191505060405180910390f35b34156102f857600080fd5b610300610a91565b6040518082815260200191505060405180910390f35b341561032157600080fd5b610329610a97565b6040518082815260200191505060405180910390f35b341561034a57600080fd5b610352610a9d565b005b341561035f57600080fd5b610367610b6f565b005b341561037457600080fd5b61037c610be7565b604051808273ffffffffffffffffffffffffffffffffffffffff1673ffffffffffffffffffffffffffffffffffffffff16815260200191505060405180910390f35b34156103c957600080fd5b610416600480803590602001908201803590602001908080602002602001604051908101604052809392919081815260200183836020028082843782019150505050505091905050610c0d565b005b341561042357600080fd5b61042b610d50565b6040518082815260200191505060405180910390f35b341561044c57600080fd5b610454610d56565b6040518082815260200191505060405180910390f35b341561047557600080fd5b61047d610d5c565b604051808273ffffffffffffffffffffffffffffffffffffffff1673ffffffffffffffffffffffffffffffffffffffff16815260200191505060405180910390f35b34156104ca57600080fd5b6104d2610d82565b005b34156104df57600080fd5b61050b600480803573ffffffffffffffffffffffffffffffffffffffff16906020019091905050610e78565b005b341561051857600080fd5b610565600480803590602001908201803590602001908080602002602001604051908101604052809392919081815260200183836020028082843782019150505050505091905050610fa6565b005b341561057257600080fd5b61057a6110e9565b604051808273ffffffffffffffffffffffffffffffffffffffff1673ffffffffffffffffffffffffffffffffffffffff16815260200191505060405180910390f35b34156105c757600080fd5b6105cf61110f565b6040518082815260200191505060405180910390f35b34156105f057600080fd5b61061c600480803573ffffffffffffffffffffffffffffffffffffffff16906020019091905050611115565b005b341561062957600080fd5b610631611275565b6040518082815260200191505060405180910390f35b341561065257600080fd5b61065a61127b565b005b341561066757600080fd5b61066f6112f3565b005b341561067c57600080fd5b6106846113c5565b005b341561069157600080fd5b6106996114bb565b6040518082815260200191505060405180910390f35b34156106ba57600080fd5b6106c26114c1565b6040518082815260200191505060405180910390f35b34156106e357600080fd5b6106eb6114c7565b6040518082815260200191505060405180910390f35b341561070c57600080fd5b6107146114cd565b6040518082815260200191505060405180910390f35b341561073557600080fd5b610761600480803573ffffffffffffffffffffffffffffffffffffffff169060200190919050506114d3565b005b341561076e57600080fd5b610776611601565b6040518082815260200191505060405180910390f35b6107b8600480803573ffffffffffffffffffffffffffffffffffffffff169060200190919050506107f3565b005b34156107c557600080fd5b6107f1600480803573ffffffffffffffffffffffffffffffffffffffff16906020019091905050611607565b005b600080600073ffffffffffffffffffffffffffffffffffffffff168373ffffffffffffffffffffffffffffffffffffffff161415151561083257600080fd5b8273ffffffffffffffffffffffffffffffffffffffff163373ffffffffffffffffffffffffffffffffffffffff1614151561086c57600080fd5b61087461175c565b151561087f57600080fd5b34915060115461089a601354846117c990919063ffffffff16565b111515156108a757600080fd5b6108b0826117e7565b90506108c7826013546117c990919063ffffffff16565b6013819055506108e2816012546117c990919063ffffffff16565b601281905550600260009054906101000a900473ffffffffffffffffffffffffffffffffffffffff1673ffffffffffffffffffffffffffffffffffffffff166347e7ef243433846040518463ffffffff167c0100000000000000000000000000000000000000000000000000000000028152600401808373ffffffffffffffffffffffffffffffffffffffff1673ffffffffffffffffffffffffffffffffffffffff168152602001828152602001925050506000604051808303818588803b15156109ac57600080fd5b6125ee5a03f115156109bd57600080fd5b505050508273ffffffffffffffffffffffffffffffffffffffff163373ffffffffffffffffffffffffffffffffffffffff167f623b3804fa71d67900d064613da8f94b9617215ee90799290593e1745087ad188484604051808381526020018281526020019250505060405180910390a3610a366119ca565b50505050565b6000601460019054906101000a900460ff16905090565b60105481565b60125481565b600260009054906101000a900473ffffffffffffffffffffffffffffffffffffffff1681565b60075481565b600b5481565b60065481565b600e5481565b600260009054906101000a900473ffffffffffffffffffffffffffffffffffffffff1673ffffffffffffffffffffffffffffffffffffffff1663df8de3e7336040518263ffffffff167c0100000000000000000000000000000000000000000000000000000000028152600401808273ffffffffffffffffffffffffffffffffffffffff1673ffffffffffffffffffffffffffffffffffffffff168152602001915050600060405180830381600087803b1515610b5957600080fd5b6102c65a03f11515610b6a57600080fd5b505050565b6000809054906101000a900473ffffffffffffffffffffffffffffffffffffffff1673ffffffffffffffffffffffffffffffffffffffff163373ffffffffffffffffffffffffffffffffffffffff16141515610bca57600080fd5b6000601460016101000a81548160ff021916908315150217905550565b600160009054906101000a900473ffffffffffffffffffffffffffffffffffffffff1681565b6000809054906101000a900473ffffffffffffffffffffffffffffffffffffffff1673ffffffffffffffffffffffffffffffffffffffff163373ffffffffffffffffffffffffffffffffffffffff16141515610c6857600080fd5b600260009054906101000a900473ffffffffffffffffffffffffffffffffffffffff1673ffffffffffffffffffffffffffffffffffffffff1663742513c9826040518263ffffffff167c01000000000000000000000000000000000000000000000000000000000281526004018080602001828103825283818151815260200191508051906020019060200280838360005b83811015610d15578082015181840152602081019050610cfa565b5050505090500192505050600060405180830381600087803b1515610d3957600080fd5b6102c65a03f11515610d4a57600080fd5b50505050565b60035481565b60115481565b600d60009054906101000a900473ffffffffffffffffffffffffffffffffffffffff1681565b6000809054906101000a900473ffffffffffffffffffffffffffffffffffffffff1673ffffffffffffffffffffffffffffffffffffffff163373ffffffffffffffffffffffffffffffffffffffff16141515610ddd57600080fd5b600260009054906101000a900473ffffffffffffffffffffffffffffffffffffffff1673ffffffffffffffffffffffffffffffffffffffff16638c52dc416040518163ffffffff167c0100000000000000000000000000000000000000000000000000000000028152600401600060405180830381600087803b1515610e6257600080fd5b6102c65a03f11515610e7357600080fd5b505050565b6000809054906101000a900473ffffffffffffffffffffffffffffffffffffffff1673ffffffffffffffffffffffffffffffffffffffff163373ffffffffffffffffffffffffffffffffffffffff16141515610ed357600080fd5b600260009054906101000a900473ffffffffffffffffffffffffffffffffffffffff1673ffffffffffffffffffffffffffffffffffffffff16638ab1d681826040518263ffffffff167c0100000000000000000000000000000000000000000000000000000000028152600401808273ffffffffffffffffffffffffffffffffffffffff1673ffffffffffffffffffffffffffffffffffffffff168152602001915050600060405180830381600087803b1515610f8f57600080fd5b6102c65a03f11515610fa057600080fd5b50505050565b6000809054906101000a900473ffffffffffffffffffffffffffffffffffffffff1673ffffffffffffffffffffffffffffffffffffffff163373ffffffffffffffffffffffffffffffffffffffff1614151561100157600080fd5b600260009054906101000a900473ffffffffffffffffffffffffffffffffffffffff1673ffffffffffffffffffffffffffffffffffffffff16638c10671c826040518263ffffffff167c01000000000000000000000000000000000000000000000000000000000281526004018080602001828103825283818151815260200191508051906020019060200280838360005b838110156110ae578082015181840152602081019050611093565b5050505090500192505050600060405180830381600087803b15156110d257600080fd5b6102c65a03f115156110e357600080fd5b50505050565b600c60009054906101000a900473ffffffffffffffffffffffffffffffffffffffff1681565b60045481565b6000809054906101000a900473ffffffffffffffffffffffffffffffffffffffff1673ffffffffffffffffffffffffffffffffffffffff163373ffffffffffffffffffffffffffffffffffffffff1614151561117057600080fd5b600073ffffffffffffffffffffffffffffffffffffffff168173ffffffffffffffffffffffffffffffffffffffff16141515156111ac57600080fd5b80600d60006101000a81548173ffffffffffffffffffffffffffffffffffffffff021916908373ffffffffffffffffffffffffffffffffffffffff1602179055507ff36899a726e7457de2fbe3d96d323bd75c1eb42c66370ebf9354f826b6209e53600d60009054906101000a900473ffffffffffffffffffffffffffffffffffffffff16604051808273ffffffffffffffffffffffffffffffffffffffff1673ffffffffffffffffffffffffffffffffffffffff16815260200191505060405180910390a150565b60135481565b6000809054906101000a900473ffffffffffffffffffffffffffffffffffffffff1673ffffffffffffffffffffffffffffffffffffffff163373ffffffffffffffffffffffffffffffffffffffff161415156112d657600080fd5b6001601460016101000a81548160ff021916908315150217905550565b600260009054906101000a900473ffffffffffffffffffffffffffffffffffffffff1673ffffffffffffffffffffffffffffffffffffffff1663fa89401a336040518263ffffffff167c0100000000000000000000000000000000000000000000000000000000028152600401808273ffffffffffffffffffffffffffffffffffffffff1673ffffffffffffffffffffffffffffffffffffffff168152602001915050600060405180830381600087803b15156113af57600080fd5b6102c65a03f115156113c057600080fd5b505050565b6000809054906101000a900473ffffffffffffffffffffffffffffffffffffffff1673ffffffffffffffffffffffffffffffffffffffff163373ffffffffffffffffffffffffffffffffffffffff1614151561142057600080fd5b600260009054906101000a900473ffffffffffffffffffffffffffffffffffffffff1673ffffffffffffffffffffffffffffffffffffffff166343d726d66040518163ffffffff167c0100000000000000000000000000000000000000000000000000000000028152600401600060405180830381600087803b15156114a557600080fd5b6102c65a03f115156114b657600080fd5b505050565b600f5481565b600a5481565b60095481565b60055481565b6000809054906101000a900473ffffffffffffffffffffffffffffffffffffffff1673ffffffffffffffffffffffffffffffffffffffff163373ffffffffffffffffffffffffffffffffffffffff1614151561152e57600080fd5b600260009054906101000a900473ffffffffffffffffffffffffffffffffffffffff1673ffffffffffffffffffffffffffffffffffffffff166347ee0394826040518263ffffffff167c0100000000000000000000000000000000000000000000000000000000028152600401808273ffffffffffffffffffffffffffffffffffffffff1673ffffffffffffffffffffffffffffffffffffffff168152602001915050600060405180830381600087803b15156115ea57600080fd5b6102c65a03f115156115fb57600080fd5b50505050565b60085481565b6000809054906101000a900473ffffffffffffffffffffffffffffffffffffffff1673ffffffffffffffffffffffffffffffffffffffff163373ffffffffffffffffffffffffffffffffffffffff1614151561166257600080fd5b600073ffffffffffffffffffffffffffffffffffffffff168173ffffffffffffffffffffffffffffffffffffffff161415151561169e57600080fd5b8073ffffffffffffffffffffffffffffffffffffffff166000809054906101000a900473ffffffffffffffffffffffffffffffffffffffff1673ffffffffffffffffffffffffffffffffffffffff167f8be0079c531659141344cd1fd0a4f28419497f9722a3daafe3b4186f6b6457e060405160405180910390a3806000806101000a81548173ffffffffffffffffffffffffffffffffffffffff021916908373ffffffffffffffffffffffffffffffffffffffff16021790555050565b600080600060035442101580156117755750600b544211155b9150600f5434101590506003544210158015611792575060045442105b156117a05760105434101590505b8180156117aa5750805b80156117c25750601460019054906101000a900460ff165b9250505090565b60008082840190508381101515156117dd57fe5b8091505092915050565b6000806000806000611804600e5487611a0590919063ffffffff16565b935061181a606485611a4090919063ffffffff16565b9250600091506003544210158015611833575060045442105b156118535761184c601984611a0590919063ffffffff16565b91506119a9565b6004544210158015611866575060055442105b156118865761187f601484611a0590919063ffffffff16565b91506119a8565b6005544210158015611899575060065442105b156118b9576118b2601084611a0590919063ffffffff16565b91506119a7565b60065442101580156118cc575060075442105b156118ec576118e5600c84611a0590919063ffffffff16565b91506119a6565b60075442101580156118ff575060085442105b1561191f57611918600884611a0590919063ffffffff16565b91506119a5565b6008544210158015611932575060095442105b156119525761194b600484611a0590919063ffffffff16565b91506119a4565b60095442101580156119655750600a5442105b156119855761197e600284611a0590919063ffffffff16565b91506119a3565b600a5442101580156119985750600b5442105b156119a257600091505b5b5b5b5b5b5b5b6119bc82856117c990919063ffffffff16565b905080945050505050919050565b60006011546013541015156119fd576001601460006101000a81548160ff02191690831515021790555060019050611a02565b600090505b90565b6000806000841415611a1a5760009150611a39565b8284029050828482811515611a2b57fe5b04141515611a3557fe5b8091505b5092915050565b6000808284811515611a4e57fe5b04905080915050929150505600a165627a7a72305820bb4da9f336f90fe4dac550caf459ed8d8ff137620b73889044c1760ac9792bc900296060604052341561000f57600080fd5b6040516040806119d583398101604052808051906020019091908051906020019091905050336000806101000a81548173ffffffffffffffffffffffffffffffffffffffff021916908373ffffffffffffffffffffffffffffffffffffffff160217905550600073ffffffffffffffffffffffffffffffffffffffff168273ffffffffffffffffffffffffffffffffffffffff16141515156100b057600080fd5b81600560006101000a81548173ffffffffffffffffffffffffffffffffffffffff021916908373ffffffffffffffffffffffffffffffffffffffff1602179055506000600560146101000a81548160ff0219169083600281111561011057fe5b021790555080600160006101000a81548173ffffffffffffffffffffffffffffffffffffffff021916908373ffffffffffffffffffffffffffffffffffffffff160217905550505061186e806101676000396000f3006060604052600436106100f1576000357c0100000000000000000000000000000000000000000000000000000000900463ffffffff16806343d726d6146100f657806347e7ef241461010b57806347ee039414610142578063482ed2a21461017b578063521eb273146101c857806354d7fa331461021d578063742513c9146102725780638ab1d681146102a05780638c10671c146102d95780638c52dc41146103075780638da5cb5b1461031c5780639b19251a14610371578063c19d93fb146103c2578063c326bf4f146103f9578063df8de3e714610446578063f2fde38b1461047f578063fa89401a146104b8575b600080fd5b341561010157600080fd5b6101096104f1565b005b610140600480803573ffffffffffffffffffffffffffffffffffffffff1690602001909190803590602001909190505061064b565b005b341561014d57600080fd5b610179600480803573ffffffffffffffffffffffffffffffffffffffff16906020019091905050610808565b005b341561018657600080fd5b6101b2600480803573ffffffffffffffffffffffffffffffffffffffff16906020019091905050610921565b6040518082815260200191505060405180910390f35b34156101d357600080fd5b6101db610939565b604051808273ffffffffffffffffffffffffffffffffffffffff1673ffffffffffffffffffffffffffffffffffffffff16815260200191505060405180910390f35b341561022857600080fd5b61023061095f565b604051808273ffffffffffffffffffffffffffffffffffffffff1673ffffffffffffffffffffffffffffffffffffffff16815260200191505060405180910390f35b341561027d57600080fd5b61029e60048080359060200190820180359060200191909192905050610985565b005b34156102ab57600080fd5b6102d7600480803573ffffffffffffffffffffffffffffffffffffffff16906020019091905050610d3a565b005b34156102e457600080fd5b61030560048080359060200190820180359060200191909192905050610df0565b005b341561031257600080fd5b61031a610f7e565b005b341561032757600080fd5b61032f61105f565b604051808273ffffffffffffffffffffffffffffffffffffffff1673ffffffffffffffffffffffffffffffffffffffff16815260200191505060405180910390f35b341561037c57600080fd5b6103a8600480803573ffffffffffffffffffffffffffffffffffffffff16906020019091905050611084565b604051808215151515815260200191505060405180910390f35b34156103cd57600080fd5b6103d56110a4565b604051808260028111156103e557fe5b60ff16815260200191505060405180910390f35b341561040457600080fd5b610430600480803573ffffffffffffffffffffffffffffffffffffffff169060200190919050506110b7565b6040518082815260200191505060405180910390f35b341561045157600080fd5b61047d600480803573ffffffffffffffffffffffffffffffffffffffff169060200190919050506110cf565b005b341561048a57600080fd5b6104b6600480803573ffffffffffffffffffffffffffffffffffffffff16906020019091905050611444565b005b34156104c357600080fd5b6104ef600480803573ffffffffffffffffffffffffffffffffffffffff16906020019091905050611599565b005b6000809054906101000a900473ffffffffffffffffffffffffffffffffffffffff1673ffffffffffffffffffffffffffffffffffffffff163373ffffffffffffffffffffffffffffffffffffffff1614151561054c57600080fd5b6000600281111561055957fe5b600560149054906101000a900460ff16600281111561057457fe5b14151561058057600080fd5b6002600560146101000a81548160ff0219169083600281111561059f57fe5b02179055507f1cdde67b72a90f19919ac732a437ac2f7a10fc128d28c2a6e525d89ce5cd9d3a60405160405180910390a1600560009054906101000a900473ffffffffffffffffffffffffffffffffffffffff1673ffffffffffffffffffffffffffffffffffffffff166108fc3073ffffffffffffffffffffffffffffffffffffffff16319081150290604051600060405180830381858888f19350505050151561064957600080fd5b565b6000809054906101000a900473ffffffffffffffffffffffffffffffffffffffff1673ffffffffffffffffffffffffffffffffffffffff163373ffffffffffffffffffffffffffffffffffffffff161415156106a657600080fd5b600060028111156106b357fe5b600560149054906101000a900460ff1660028111156106ce57fe5b1415156106da57600080fd5b61072c81600460008573ffffffffffffffffffffffffffffffffffffffff1673ffffffffffffffffffffffffffffffffffffffff1681526020019081526020016000205461182490919063ffffffff16565b600460008473ffffffffffffffffffffffffffffffffffffffff1673ffffffffffffffffffffffffffffffffffffffff168152602001908152602001600020819055506107c134600360008573ffffffffffffffffffffffffffffffffffffffff1673ffffffffffffffffffffffffffffffffffffffff1681526020019081526020016000205461182490919063ffffffff16565b600360008473ffffffffffffffffffffffffffffffffffffffff1673ffffffffffffffffffffffffffffffffffffffff168152602001908152602001600020819055505050565b6000809054906101000a900473ffffffffffffffffffffffffffffffffffffffff1673ffffffffffffffffffffffffffffffffffffffff163373ffffffffffffffffffffffffffffffffffffffff1614151561086357600080fd5b6001600260008373ffffffffffffffffffffffffffffffffffffffff1673ffffffffffffffffffffffffffffffffffffffff16815260200190815260200160002060006101000a81548160ff0219169083151502179055507faab7954e9d246b167ef88aeddad35209ca2489d95a8aeb59e288d9b19fae5a5481604051808273ffffffffffffffffffffffffffffffffffffffff1673ffffffffffffffffffffffffffffffffffffffff16815260200191505060405180910390a150565b60036020528060005260406000206000915090505481565b600560009054906101000a900473ffffffffffffffffffffffffffffffffffffffff1681565b600160009054906101000a900473ffffffffffffffffffffffffffffffffffffffff1681565b60008060008060009054906101000a900473ffffffffffffffffffffffffffffffffffffffff1673ffffffffffffffffffffffffffffffffffffffff163373ffffffffffffffffffffffffffffffffffffffff161415156109e557600080fd5b600092505b84849050831015610d33578484848181101515610a0357fe5b9050602002013573ffffffffffffffffffffffffffffffffffffffff1691506001600260008473ffffffffffffffffffffffffffffffffffffffff1673ffffffffffffffffffffffffffffffffffffffff16815260200190815260200160002060006101000a81548160ff0219169083151502179055507faab7954e9d246b167ef88aeddad35209ca2489d95a8aeb59e288d9b19fae5a5482604051808273ffffffffffffffffffffffffffffffffffffffff1673ffffffffffffffffffffffffffffffffffffffff16815260200191505060405180910390a16000600460008473ffffffffffffffffffffffffffffffffffffffff1673ffffffffffffffffffffffffffffffffffffffff16815260200190815260200160002054118015610b6b57506000600360008473ffffffffffffffffffffffffffffffffffffffff1673ffffffffffffffffffffffffffffffffffffffff16815260200190815260200160002054115b15610d2657600460008373ffffffffffffffffffffffffffffffffffffffff1673ffffffffffffffffffffffffffffffffffffffff1681526020019081526020016000205490506000600460008473ffffffffffffffffffffffffffffffffffffffff1673ffffffffffffffffffffffffffffffffffffffff168152602001908152602001600020819055506000600360008473ffffffffffffffffffffffffffffffffffffffff1673ffffffffffffffffffffffffffffffffffffffff16815260200190815260200160002081905550600160009054906101000a900473ffffffffffffffffffffffffffffffffffffffff1673ffffffffffffffffffffffffffffffffffffffff1663a9059cbb83836000604051602001526040518363ffffffff167c0100000000000000000000000000000000000000000000000000000000028152600401808373ffffffffffffffffffffffffffffffffffffffff1673ffffffffffffffffffffffffffffffffffffffff16815260200182815260200192505050602060405180830381600087803b1515610d0957600080fd5b6102c65a03f11515610d1a57600080fd5b50505060405180519050505b82806001019350506109ea565b5050505050565b6000809054906101000a900473ffffffffffffffffffffffffffffffffffffffff1673ffffffffffffffffffffffffffffffffffffffff163373ffffffffffffffffffffffffffffffffffffffff16141515610d9557600080fd5b6000600260008373ffffffffffffffffffffffffffffffffffffffff1673ffffffffffffffffffffffffffffffffffffffff16815260200190815260200160002060006101000a81548160ff02191690831515021790555050565b60008060009054906101000a900473ffffffffffffffffffffffffffffffffffffffff1673ffffffffffffffffffffffffffffffffffffffff163373ffffffffffffffffffffffffffffffffffffffff16141515610e4d57600080fd5b600090505b82829050811015610f79576001600260008585858181101515610e7157fe5b9050602002013573ffffffffffffffffffffffffffffffffffffffff1673ffffffffffffffffffffffffffffffffffffffff1673ffffffffffffffffffffffffffffffffffffffff16815260200190815260200160002060006101000a81548160ff0219169083151502179055507faab7954e9d246b167ef88aeddad35209ca2489d95a8aeb59e288d9b19fae5a548383838181101515610f0e57fe5b9050602002013573ffffffffffffffffffffffffffffffffffffffff16604051808273ffffffffffffffffffffffffffffffffffffffff1673ffffffffffffffffffffffffffffffffffffffff16815260200191505060405180910390a18080600101915050610e52565b505050565b6000809054906101000a900473ffffffffffffffffffffffffffffffffffffffff1673ffffffffffffffffffffffffffffffffffffffff163373ffffffffffffffffffffffffffffffffffffffff16141515610fd957600080fd5b60006002811115610fe657fe5b600560149054906101000a900460ff16600281111561100157fe5b14151561100d57600080fd5b6001600560146101000a81548160ff0219169083600281111561102c57fe5b02179055507f599d8e5a83cffb867d051598c4d70e805d59802d8081c1c7d6dffc5b6aca2b8960405160405180910390a1565b6000809054906101000a900473ffffffffffffffffffffffffffffffffffffffff1681565b60026020528060005260406000206000915054906101000a900460ff1681565b600560149054906101000a900460ff1681565b60046020528060005260406000206000915090505481565b60008060009054906101000a900473ffffffffffffffffffffffffffffffffffffffff1673ffffffffffffffffffffffffffffffffffffffff163373ffffffffffffffffffffffffffffffffffffffff1614151561112c57600080fd5b6000600460008473ffffffffffffffffffffffffffffffffffffffff1673ffffffffffffffffffffffffffffffffffffffff1681526020019081526020016000205411151561117a57600080fd5b6000600360008473ffffffffffffffffffffffffffffffffffffffff1673ffffffffffffffffffffffffffffffffffffffff168152602001908152602001600020541115156111c857600080fd5b600260008373ffffffffffffffffffffffffffffffffffffffff1673ffffffffffffffffffffffffffffffffffffffff16815260200190815260200160002060009054906101000a900460ff16151561122057600080fd5b600460008373ffffffffffffffffffffffffffffffffffffffff1673ffffffffffffffffffffffffffffffffffffffff1681526020019081526020016000205490506000600460008473ffffffffffffffffffffffffffffffffffffffff1673ffffffffffffffffffffffffffffffffffffffff168152602001908152602001600020819055506000600360008473ffffffffffffffffffffffffffffffffffffffff1673ffffffffffffffffffffffffffffffffffffffff16815260200190815260200160002081905550600160009054906101000a900473ffffffffffffffffffffffffffffffffffffffff1673ffffffffffffffffffffffffffffffffffffffff1663a9059cbb83836000604051602001526040518363ffffffff167c0100000000000000000000000000000000000000000000000000000000028152600401808373ffffffffffffffffffffffffffffffffffffffff1673ffffffffffffffffffffffffffffffffffffffff16815260200182815260200192505050602060405180830381600087803b15156113b957600080fd5b6102c65a03f115156113ca57600080fd5b50505060405180519050507f896e034966eaaf1adc54acc0f257056febbd300c9e47182cf761982cf1f5e4308282604051808373ffffffffffffffffffffffffffffffffffffffff1673ffffffffffffffffffffffffffffffffffffffff1681526020018281526020019250505060405180910390a15050565b6000809054906101000a900473ffffffffffffffffffffffffffffffffffffffff1673ffffffffffffffffffffffffffffffffffffffff163373ffffffffffffffffffffffffffffffffffffffff1614151561149f57600080fd5b600073ffffffffffffffffffffffffffffffffffffffff168173ffffffffffffffffffffffffffffffffffffffff16141515156114db57600080fd5b8073ffffffffffffffffffffffffffffffffffffffff166000809054906101000a900473ffffffffffffffffffffffffffffffffffffffff1673ffffffffffffffffffffffffffffffffffffffff167f8be0079c531659141344cd1fd0a4f28419497f9722a3daafe3b4186f6b6457e060405160405180910390a3806000806101000a81548173ffffffffffffffffffffffffffffffffffffffff021916908373ffffffffffffffffffffffffffffffffffffffff16021790555050565b60008060009054906101000a900473ffffffffffffffffffffffffffffffffffffffff1673ffffffffffffffffffffffffffffffffffffffff163373ffffffffffffffffffffffffffffffffffffffff161415156115f657600080fd5b6001600281111561160357fe5b600560149054906101000a900460ff16600281111561161e57fe5b14151561162a57600080fd5b6000600460008473ffffffffffffffffffffffffffffffffffffffff1673ffffffffffffffffffffffffffffffffffffffff1681526020019081526020016000205411151561167857600080fd5b6000600360008473ffffffffffffffffffffffffffffffffffffffff1673ffffffffffffffffffffffffffffffffffffffff168152602001908152602001600020541115156116c657600080fd5b600360008373ffffffffffffffffffffffffffffffffffffffff1673ffffffffffffffffffffffffffffffffffffffff1681526020019081526020016000205490506000600360008473ffffffffffffffffffffffffffffffffffffffff1673ffffffffffffffffffffffffffffffffffffffff168152602001908152602001600020819055506000600460008473ffffffffffffffffffffffffffffffffffffffff1673ffffffffffffffffffffffffffffffffffffffff168152602001908152602001600020819055508173ffffffffffffffffffffffffffffffffffffffff166108fc829081150290604051600060405180830381858888f1935050505015156117d257600080fd5b8173ffffffffffffffffffffffffffffffffffffffff167fd7dee2702d63ad89917b6a4da9981c90c4d24f8c2bdfd64c604ecae57d8d0651826040518082815260200191505060405180910390a25050565b600080828401905083811015151561183857fe5b80915050929150505600a165627a7a72305820288b74bebd29127bba1b9cefbd4eb00b2ee4bfbfa1d86d4afcb12614446b8ce30029",
  "source": "pragma solidity ^0.4.18;\r\n\r\nimport \"zeppelin-solidity/contracts/math/SafeMath.sol\";\r\nimport \"zeppelin-solidity/contracts/ownership/Ownable.sol\";\r\nimport \"./RefundVault.sol\";\r\n//import \"./GStarToken.sol\";\r\n\r\n/**\r\n * @title GStarCrowdsale\r\n * @dev This contract manages the crowdsale of GStar Tokens.\r\n * The crowdsale will involve seven key timings - Start time, end time,\r\n * and the start time of each five phases. In each phase, token buyers\r\n * will receive different bonuses - The earlier the purchase, the larger\r\n * the bonuses.\r\n * Funds collected are forwarded to a wallet as they arrive.\r\n * There is only one owner at any one time. The owner can stop or start\r\n * the crowdsale at anytime. In case unforeseen demand, the owner can\r\n * choose to raise the fundingGoal as required.\r\n */\r\ncontract GStarCrowdsale is Ownable {\r\n  using SafeMath for uint256;\r\n\r\n  // The address of the GStar Token contract deployed.\r\n  GStarToken public gStarToken;\r\n  RefundVault public refundVault;\r\n\r\n  // Start and end timestamps where investments are allowed (both inclusive)\r\n  // All timestamps are expressed in seconds instead of block number.\r\n  uint256 public startTime = 1518500261;\r\n  uint256 public phaseOne = 1518600261;\r\n  uint256 public phaseTwo = 1518700261;\r\n  uint256 public phaseThree = 1518800261;\r\n  uint256 public phaseFour = 1518900261;\r\n  uint256 public phaseFive = 1519500261;\r\n  uint256 public phaseSix = 1519600261;\r\n  uint256 public phaseSeven = 1519700261;\r\n  uint256 public endTime = 1519800261;\r\n\r\n  // Important addresses for this crowdsale.\r\n  // Note that the owner only refers to owner of the crowdsale,\r\n  // not the owner of the GStar Token.\r\n  address public owner;\r\n  address public ETH_WALLET = 0x9A1C6fA66DbaEA367e21403609628a40Cf345b6e; //ETH will be forwarded to this address.\r\n\r\n  // The base rate the buyer gets for each ETH invested.\r\n  // This rate is exclusive of any bonuses.\r\n  uint256 public GST_PER_ETH = 10000;\r\n\r\n  // Parameters for this crowdsale.\r\n  uint256 public MINIMUM_PURCHASE_AMOUNT_IN_WEI = 10**17; // the minimum of ETH that buyer can purchase is 0.1ETH\r\n  uint256 public PRE_ICO_MINIMUM_PURCHASE_AMOUNT_IN_WEI = 10**18; // the minimum of ETH that buyer can purchase during pre-ICO is 1ETH\r\n  uint256 public fundingGoal = 1 * (10**18); //expressed in amount of Ether in Wei units\r\n  uint256 public tokensRaisedInWei = 0;\r\n  uint256 public etherRaisedInWei = 0;\r\n  bool fundingGoalReached = false;\r\n  bool crowdsaleActive = false;\r\n\r\n\r\n/*\r\n  mapping (address -> bool) registered;\r\n  mapping(address -> uint256) etherContributed;\r\n  mapping(address -> uint256) tokensReward;\r\n*/\r\n  event TokenPurchase(address indexed purchaser, address indexed beneficiary, uint256 value, uint256 amount);\r\n  event GoalReached(uint256 totalAmountRaised);\r\n  event OwnershipTransferred(address indexed previousOwner, address indexed newOwner);\r\n  event FundingGoalRaised(uint256 newFundingGoal);\r\n  event ETHWalletAddressChanged(address newETHWallet);\r\n\r\n\r\n  /**\r\n  * @dev Constructor function. Checks validity of the time entered and sets owner.\r\n  */\r\n  function GStarCrowdsale(address deployedGStar) public {\r\n    require(startTime < phaseOne);\r\n    require(phaseOne < phaseTwo);\r\n    require(phaseTwo < phaseThree);\r\n    require(phaseThree < phaseFour);\r\n    require(phaseFour < phaseFive);\r\n    require(phaseFive < phaseSix);\r\n    require(phaseSix < phaseSeven);\r\n    require(phaseSeven < endTime);\r\n\r\n    require(fundingGoal > 0);\r\n\r\n    owner = msg.sender;\r\n    gStarToken = GStarToken(deployedGStar);\r\n    refundVault = new RefundVault(ETH_WALLET, deployedGStar);\r\n  }\r\n\r\n  /**\r\n  * @dev Fallback function can be used to buy tokens when crowdsale is active.\r\n  */\r\n  function () public payable {\r\n    require(crowdsaleActive);\r\n    buyTokens(msg.sender);\r\n  }\r\n\r\n  /**\r\n  * @dev Actual buy tokens function. Buyers can choose to buy for another person by\r\n  * calling this contract directly. However, that will not be our main mode of token sale.\r\n  * @param beneficiary The address that receives the tokens purchased.\r\n  */\r\n  function buyTokens(address beneficiary) public payable {\r\n    require(beneficiary != address(0));\r\n    require(msg.sender == beneficiary);\r\n    require(validPurchase());\r\n\r\n    // throws if this purchase exceed funding goal\r\n    uint256 weiAmount = msg.value;\r\n    require(weiAmount.add(etherRaisedInWei) <= fundingGoal);\r\n\r\n    // calculate total token amount purchased. bonus included\r\n    uint256 tokens = getTokenAmount(weiAmount);\r\n\r\n    // update state\r\n    etherRaisedInWei = etherRaisedInWei.add(weiAmount);\r\n    tokensRaisedInWei = tokensRaisedInWei.add(tokens);\r\n\r\n    // forward ETH amount to RefundVault\r\n    refundVault.deposit.value(msg.value)(msg.sender, tokens);\r\n\r\n    TokenPurchase(msg.sender, beneficiary, weiAmount, tokens);\r\n\r\n    /*\r\n    // After purchase is succesful, the contract records the details\r\n    uint256 previousContribution = etherContributed[msg.sender];\r\n    etherContributed[msg.sender] = previousContribution.add(weiAmount);\r\n    uint256 previousTokenAmount = tokensReward[beneficiary];\r\n    tokensReward[beneficiary] = previousTokenAmount.add(tokens);\r\n    */\r\n\r\n    // checks and update fundingGoal\r\n    isFundingGoalReached();\r\n  }\r\n\r\n  /**\r\n  * @dev Calculates the bonuses and total token amount buyer receives.\r\n  *\r\n  * @param weiAmount The ETH amount buyer sent to this contract.\r\n  * @return The total token amount buyer will receive.\r\n  */\r\n  function getTokenAmount(uint256 weiAmount) internal view returns(uint256) {\r\n\r\n    uint256 baseAmount = weiAmount.mul(GST_PER_ETH);\r\n    uint256 onePercentOfBaseAmount = baseAmount.div(100); //used for calculating bonus\r\n    uint256 bonusAmount = 0;\r\n\r\n    //calculate bonus based on phases\r\n    if(now >= startTime && now < phaseOne) {\r\n      //Prefund period, 25 percent bonus\r\n      bonusAmount = onePercentOfBaseAmount.mul(25);\r\n\r\n    } else if(now >= phaseOne && now < phaseTwo) {\r\n      //Phase One, 20 percent bonus\r\n      bonusAmount = onePercentOfBaseAmount.mul(20);\r\n\r\n    } else if(now >= phaseTwo && now < phaseThree) {\r\n      //Phase Two, 15 percent bonus\r\n      bonusAmount = onePercentOfBaseAmount.mul(16);\r\n\r\n    } else if(now >= phaseThree && now < phaseFour) {\r\n      //Phase Three, 10 percent bonus\r\n      bonusAmount = onePercentOfBaseAmount.mul(12);\r\n\r\n    } else if(now >= phaseFour && now < phaseFive) {\r\n      //Phase Four, 5 percent bonus\r\n      bonusAmount = onePercentOfBaseAmount.mul(8);\r\n\r\n    } else if(now >= phaseFive && now < phaseSix) {\r\n      //Phase Four, 5 percent bonus\r\n      bonusAmount = onePercentOfBaseAmount.mul(4);\r\n\r\n    } else if(now >= phaseSix && now < phaseSeven) {\r\n      //Phase Four, 5 percent bonus\r\n      bonusAmount = onePercentOfBaseAmount.mul(2);\r\n\r\n    } else if(now >= phaseSeven && now < endTime) {\r\n      //Phase Five, no bonus\r\n      bonusAmount = 0;\r\n    }\r\n\r\n    uint256 totalPurchaseAmount = baseAmount.add(bonusAmount);\r\n    return totalPurchaseAmount;\r\n  }\r\n\r\n  /**\r\n  * @dev Checks and updates fundingGoal status.\r\n  * @return Returns true if fundingGoal is reached.\r\n  */\r\n  function isFundingGoalReached() internal returns(bool) {\r\n    if(etherRaisedInWei >= fundingGoal){\r\n      fundingGoalReached = true;\r\n      return true;\r\n\r\n    } else {\r\n      return false;\r\n    }\r\n  }\r\n\r\n  /**\r\n  * @dev Displays if crowdsale is active.\r\n  * @return Returns true if crowdsale is active.\r\n  */\r\n  function isCrowdsaleActive() public view returns (bool) {\r\n    return crowdsaleActive;\r\n  }\r\n\r\n\r\n  /**\r\n  * @dev Checks if purchase is made within crowdsale period.\r\n  * Also checks if purchase is non-zero.\r\n  * @return Returns true if purchase meets both requirements.\r\n  */\r\n  function validPurchase() internal view returns (bool) {\r\n    bool withinPeriod = now >= startTime && now <= endTime;\r\n    bool atLeastMinimumAmount = msg.value >= MINIMUM_PURCHASE_AMOUNT_IN_WEI;\r\n\r\n    if(now >= startTime && now < phaseOne) {\r\n      atLeastMinimumAmount = msg.value >= PRE_ICO_MINIMUM_PURCHASE_AMOUNT_IN_WEI;\r\n    }\r\n    return withinPeriod && atLeastMinimumAmount && crowdsaleActive;\r\n  }\r\n\r\n  /**\r\n  * @dev Allows owner to start/unpause crowdsale.\r\n  */\r\n  function startCrowdsale() public onlyOwner {\r\n    crowdsaleActive = true;\r\n  }\r\n\r\n  /**\r\n  * @dev Allows owner to stop/pause crowdsale.\r\n  */\r\n  function stopCrowdsale() public onlyOwner {\r\n    crowdsaleActive = false;\r\n  }\r\n\r\n\r\n  /**\r\n   * @dev Allows the current owner to change where ETH is stored.\r\n   * @param newWalletAddress The new address to forward funds to.\r\n   */\r\n  function changeETHWallet(address newWalletAddress) public onlyOwner {\r\n    require(newWalletAddress != address(0));\r\n    ETH_WALLET = newWalletAddress;\r\n    ETHWalletAddressChanged(ETH_WALLET);\r\n  }\r\n\r\n  function claimTokens() public {\r\n    refundVault.claimTokens(msg.sender);\r\n  }\r\n\r\n  function claimRefund() public {\r\n    refundVault.refund(msg.sender);\r\n  }\r\n\r\n  function enableRefund() public onlyOwner {\r\n    refundVault.enableRefunds();\r\n  }\r\n\r\n  function closeRefund() public onlyOwner {\r\n    refundVault.close();\r\n  }\r\n\r\n  function addToWhitelist(address beneficiary) public onlyOwner {\r\n    refundVault.addToWhiteList(beneficiary);\r\n  }\r\n\r\n  function removeFromWhitelist(address beneficiary) public onlyOwner {\r\n    refundVault.removeFromWhitelist(beneficiary);\r\n  }\r\n\r\n  function addManyToWhitelist(address[] beneficiaries) public onlyOwner {\r\n    refundVault.addManyToWhitelist(beneficiaries);\r\n  }\r\n\r\n  function whitelistAndReleaseTokens(address[] beneficiaries) public onlyOwner {\r\n    refundVault.whitelistAndReleaseTokens(beneficiaries);\r\n  }\r\n\r\n}\r\n",
  "sourcePath": "C:\\GStarCrowdsale\\contracts\\GStarCrowdsale.sol",
  "compiler": {
    "name": "solc",
    "version": "0.4.19+commit.c4cbbb05.Emscripten.clang"
  },
  "schemaVersion": "2.0.0",
  "updatedAt": "2018-03-02T20:07:10.779Z"
}