{
  "contractName": "GSTARAirdrop",
  "abi": [
    {
      "constant": true,
      "inputs": [],
      "name": "decimals",
      "outputs": [
        {
          "name": "",
          "type": "uint256"
        }
      ],
      "payable": false,
      "stateMutability": "view",
      "type": "function"
    },
    {
      "constant": false,
      "inputs": [
        {
          "name": "beneficiaries",
          "type": "address[]"
        },
        {
          "name": "tokensAmountEachReceives",
          "type": "uint256"
        }
      ],
      "name": "drop",
      "outputs": [],
      "payable": false,
      "stateMutability": "nonpayable",
      "type": "function"
    },
    {
      "constant": true,
      "inputs": [],
      "name": "gStarToken",
      "outputs": [
        {
          "name": "",
          "type": "address"
        }
      ],
      "payable": false,
      "stateMutability": "view",
      "type": "function"
    },
    {
      "constant": true,
      "inputs": [],
      "name": "owner",
      "outputs": [
        {
          "name": "",
          "type": "address"
        }
      ],
      "payable": false,
      "stateMutability": "view",
      "type": "function"
    },
    {
      "constant": false,
      "inputs": [
        {
          "name": "newOwner",
          "type": "address"
        }
      ],
      "name": "transferOwnership",
      "outputs": [],
      "payable": false,
      "stateMutability": "nonpayable",
      "type": "function"
    },
    {
      "inputs": [
        {
          "name": "deployedGStar",
          "type": "address"
        }
      ],
      "payable": false,
      "stateMutability": "nonpayable",
      "type": "constructor"
    },
    {
      "anonymous": false,
      "inputs": [
        {
          "indexed": false,
          "name": "beneficiaries",
          "type": "address[]"
        },
        {
          "indexed": false,
          "name": "tokensAmountEachReceives",
          "type": "uint256"
        }
      ],
      "name": "Dropped",
      "type": "event"
    },
    {
      "anonymous": false,
      "inputs": [
        {
          "indexed": true,
          "name": "previousOwner",
          "type": "address"
        },
        {
          "indexed": true,
          "name": "newOwner",
          "type": "address"
        }
      ],
      "name": "OwnershipTransferred",
      "type": "event"
    }
  ],
  "bytecode": "0x6060604052670de0b6b3a7640000600255341561001b57600080fd5b6040516020806107d383398101604052808051906020019091905050336000806101000a81548173ffffffffffffffffffffffffffffffffffffffff021916908373ffffffffffffffffffffffffffffffffffffffff16021790555080600160006101000a81548173ffffffffffffffffffffffffffffffffffffffff021916908373ffffffffffffffffffffffffffffffffffffffff1602179055505061070b806100c86000396000f30060606040526004361061006d576000357c0100000000000000000000000000000000000000000000000000000000900463ffffffff168063313ce567146100725780633974874b1461009b57806354d7fa33146100fe5780638da5cb5b14610153578063f2fde38b146101a8575b600080fd5b341561007d57600080fd5b6100856101e1565b6040518082815260200191505060405180910390f35b34156100a657600080fd5b6100fc6004808035906020019082018035906020019080806020026020016040519081016040528093929190818152602001838360200280828437820191505050505050919080359060200190919050506101e7565b005b341561010957600080fd5b610111610504565b604051808273ffffffffffffffffffffffffffffffffffffffff1673ffffffffffffffffffffffffffffffffffffffff16815260200191505060405180910390f35b341561015e57600080fd5b61016661052a565b604051808273ffffffffffffffffffffffffffffffffffffffff1673ffffffffffffffffffffffffffffffffffffffff16815260200191505060405180910390f35b34156101b357600080fd5b6101df600480803573ffffffffffffffffffffffffffffffffffffffff1690602001909190505061054f565b005b60025481565b60008060008060009054906101000a900473ffffffffffffffffffffffffffffffffffffffff1673ffffffffffffffffffffffffffffffffffffffff163373ffffffffffffffffffffffffffffffffffffffff1614151561024757600080fd5b61025c600254856106a490919063ffffffff16565b92506102728386516106a490919063ffffffff16565b915081600160009054906101000a900473ffffffffffffffffffffffffffffffffffffffff1673ffffffffffffffffffffffffffffffffffffffff166370a08231306000604051602001526040518263ffffffff167c0100000000000000000000000000000000000000000000000000000000028152600401808273ffffffffffffffffffffffffffffffffffffffff1673ffffffffffffffffffffffffffffffffffffffff168152602001915050602060405180830381600087803b151561033a57600080fd5b6102c65a03f1151561034b57600080fd5b505050604051805190501015151561036257600080fd5b600090505b845181101561047d57600160009054906101000a900473ffffffffffffffffffffffffffffffffffffffff1673ffffffffffffffffffffffffffffffffffffffff1663a9059cbb86838151811015156103bc57fe5b90602001906020020151856000604051602001526040518363ffffffff167c0100000000000000000000000000000000000000000000000000000000028152600401808373ffffffffffffffffffffffffffffffffffffffff1673ffffffffffffffffffffffffffffffffffffffff16815260200182815260200192505050602060405180830381600087803b151561045457600080fd5b6102c65a03f1151561046557600080fd5b50505060405180519050508080600101915050610367565b7facc2ab4272fa3bff8712385193b7fd86c7e626a8ff41ffe7c3e653861f465d4d85856040518080602001838152602001828103825284818151815260200191508051906020019060200280838360005b838110156104e95780820151818401526020810190506104ce565b50505050905001935050505060405180910390a15050505050565b600160009054906101000a900473ffffffffffffffffffffffffffffffffffffffff1681565b6000809054906101000a900473ffffffffffffffffffffffffffffffffffffffff1681565b6000809054906101000a900473ffffffffffffffffffffffffffffffffffffffff1673ffffffffffffffffffffffffffffffffffffffff163373ffffffffffffffffffffffffffffffffffffffff161415156105aa57600080fd5b600073ffffffffffffffffffffffffffffffffffffffff168173ffffffffffffffffffffffffffffffffffffffff16141515156105e657600080fd5b8073ffffffffffffffffffffffffffffffffffffffff166000809054906101000a900473ffffffffffffffffffffffffffffffffffffffff1673ffffffffffffffffffffffffffffffffffffffff167f8be0079c531659141344cd1fd0a4f28419497f9722a3daafe3b4186f6b6457e060405160405180910390a3806000806101000a81548173ffffffffffffffffffffffffffffffffffffffff021916908373ffffffffffffffffffffffffffffffffffffffff16021790555050565b60008060008414156106b957600091506106d8565b82840290508284828115156106ca57fe5b041415156106d457fe5b8091505b50929150505600a165627a7a72305820c680c0da22c84090f41965714073068c561cc6c4202d8c65a8f99af1a68978720029",
  "source": "pragma solidity ^0.4.18;\r\n\r\nimport \"./math/SafeMath.sol\";\r\nimport \"./ownership/Ownable.sol\";\r\n\r\n\r\ninterface GStarToken {\r\n    function transfer(address to, uint256 value) public returns (bool);\r\n    function balanceOf(address who) public view returns (uint256);\r\n}\r\n\r\n\r\ncontract GSTARAirdrop is Ownable {\r\n    using SafeMath for uint256;\r\n\r\n    GStarToken public gStarToken;\r\n    uint256 public decimals = 10**18;\r\n\r\n    event Dropped(address[] beneficiaries, uint256 tokensAmountEachReceives);\r\n\r\n    function GSTARAirdrop(address deployedGStar) public {\r\n        gStarToken = GStarToken(deployedGStar);\r\n    }\r\n\r\n    function drop(address[] beneficiaries, uint256 tokensAmountEachReceives) public onlyOwner {\r\n        uint256 tokenWeiAmountEachReceives = tokensAmountEachReceives.mul(decimals);\r\n        uint256 totalAmountRequired = beneficiaries.length.mul(tokenWeiAmountEachReceives);\r\n        require(gStarToken.balanceOf(address(this)) >= totalAmountRequired);\r\n\r\n        for (uint256 i = 0; i < beneficiaries.length; i++) {\r\n            gStarToken.transfer(beneficiaries[i], tokenWeiAmountEachReceives);\r\n        }\r\n        Dropped(beneficiaries, tokensAmountEachReceives);\r\n    }\r\n}\r\n",
  "sourcePath": "C:\\GStarCrowdsale\\contracts\\GStarAirdrop.sol",
  "compiler": {
    "name": "solc",
    "version": "0.4.19+commit.c4cbbb05.Emscripten.clang"
  },
  "schemaVersion": "2.0.0",
  "updatedAt": "2018-03-05T14:23:54.894Z"
}