{
  "contractName": "GSTARAirdrop",
  "abi": [
    {
      "constant": true,
      "inputs": [],
      "name": "decimals",
      "outputs": [
        {
          "name": "",
          "type": "uint256"
        }
      ],
      "payable": false,
      "stateMutability": "view",
      "type": "function"
    },
    {
      "constant": false,
      "inputs": [
        {
          "name": "beneficiaries",
          "type": "address[]"
        },
        {
          "name": "tokensAmountEachReceives",
          "type": "uint256"
        }
      ],
      "name": "drop",
      "outputs": [],
      "payable": false,
      "stateMutability": "nonpayable",
      "type": "function"
    },
    {
      "constant": false,
      "inputs": [],
      "name": "close",
      "outputs": [],
      "payable": false,
      "stateMutability": "nonpayable",
      "type": "function"
    },
    {
      "constant": true,
      "inputs": [],
      "name": "gStarToken",
      "outputs": [
        {
          "name": "",
          "type": "address"
        }
      ],
      "payable": false,
      "stateMutability": "view",
      "type": "function"
    },
    {
      "constant": true,
      "inputs": [],
      "name": "owner",
      "outputs": [
        {
          "name": "",
          "type": "address"
        }
      ],
      "payable": false,
      "stateMutability": "view",
      "type": "function"
    },
    {
      "constant": false,
      "inputs": [
        {
          "name": "newOwner",
          "type": "address"
        }
      ],
      "name": "transferOwnership",
      "outputs": [],
      "payable": false,
      "stateMutability": "nonpayable",
      "type": "function"
    },
    {
      "inputs": [
        {
          "name": "deployedGStar",
          "type": "address"
        }
      ],
      "payable": false,
      "stateMutability": "nonpayable",
      "type": "constructor"
    },
    {
      "anonymous": false,
      "inputs": [
        {
          "indexed": false,
          "name": "beneficiaries",
          "type": "address[]"
        },
        {
          "indexed": false,
          "name": "tokensAmountEachReceives",
          "type": "uint256"
        }
      ],
      "name": "Dropped",
      "type": "event"
    },
    {
      "anonymous": false,
      "inputs": [],
      "name": "Close",
      "type": "event"
    },
    {
      "anonymous": false,
      "inputs": [
        {
          "indexed": true,
          "name": "previousOwner",
          "type": "address"
        },
        {
          "indexed": true,
          "name": "newOwner",
          "type": "address"
        }
      ],
      "name": "OwnershipTransferred",
      "type": "event"
    }
  ],
  "bytecode": "0x6060604052670de0b6b3a7640000600255341561001b57600080fd5b604051602080610a2d83398101604052808051906020019091905050336000806101000a81548173ffffffffffffffffffffffffffffffffffffffff021916908373ffffffffffffffffffffffffffffffffffffffff16021790555080600160006101000a81548173ffffffffffffffffffffffffffffffffffffffff021916908373ffffffffffffffffffffffffffffffffffffffff16021790555050610965806100c86000396000f300606060405260043610610078576000357c0100000000000000000000000000000000000000000000000000000000900463ffffffff168063313ce5671461007d5780633974874b146100a657806343d726d6146100dd57806354d7fa33146100f25780638da5cb5b14610147578063f2fde38b1461019c575b600080fd5b341561008857600080fd5b6100906101d5565b6040518082815260200191505060405180910390f35b34156100b157600080fd5b6100db600480803590602001908201803590602001919091929080359060200190919050506101db565b005b34156100e857600080fd5b6100f06104ec565b005b34156100fd57600080fd5b61010561075e565b604051808273ffffffffffffffffffffffffffffffffffffffff1673ffffffffffffffffffffffffffffffffffffffff16815260200191505060405180910390f35b341561015257600080fd5b61015a610784565b604051808273ffffffffffffffffffffffffffffffffffffffff1673ffffffffffffffffffffffffffffffffffffffff16815260200191505060405180910390f35b34156101a757600080fd5b6101d3600480803573ffffffffffffffffffffffffffffffffffffffff169060200190919050506107a9565b005b60025481565b60008060008060009054906101000a900473ffffffffffffffffffffffffffffffffffffffff1673ffffffffffffffffffffffffffffffffffffffff163373ffffffffffffffffffffffffffffffffffffffff1614151561023b57600080fd5b610250600254856108fe90919063ffffffff16565b925061026883878790506108fe90919063ffffffff16565b915081600160009054906101000a900473ffffffffffffffffffffffffffffffffffffffff1673ffffffffffffffffffffffffffffffffffffffff166370a08231306000604051602001526040518263ffffffff167c0100000000000000000000000000000000000000000000000000000000028152600401808273ffffffffffffffffffffffffffffffffffffffff1673ffffffffffffffffffffffffffffffffffffffff168152602001915050602060405180830381600087803b151561033057600080fd5b6102c65a03f1151561034157600080fd5b505050604051805190501015151561035857600080fd5b600090505b8585905081101561048857600160009054906101000a900473ffffffffffffffffffffffffffffffffffffffff1673ffffffffffffffffffffffffffffffffffffffff1663a9059cbb87878481811015156103b457fe5b9050602002013573ffffffffffffffffffffffffffffffffffffffff16856000604051602001526040518363ffffffff167c0100000000000000000000000000000000000000000000000000000000028152600401808373ffffffffffffffffffffffffffffffffffffffff1673ffffffffffffffffffffffffffffffffffffffff16815260200182815260200192505050602060405180830381600087803b151561045f57600080fd5b6102c65a03f1151561047057600080fd5b5050506040518051905050808060010191505061035d565b7facc2ab4272fa3bff8712385193b7fd86c7e626a8ff41ffe7c3e653861f465d4d86868660405180806020018381526020018281038252858582818152602001925060200280828437820191505094505050505060405180910390a1505050505050565b6000809054906101000a900473ffffffffffffffffffffffffffffffffffffffff1673ffffffffffffffffffffffffffffffffffffffff163373ffffffffffffffffffffffffffffffffffffffff1614151561054757600080fd5b600160009054906101000a900473ffffffffffffffffffffffffffffffffffffffff1673ffffffffffffffffffffffffffffffffffffffff1663a9059cbb6000809054906101000a900473ffffffffffffffffffffffffffffffffffffffff16600160009054906101000a900473ffffffffffffffffffffffffffffffffffffffff1673ffffffffffffffffffffffffffffffffffffffff166370a08231306000604051602001526040518263ffffffff167c0100000000000000000000000000000000000000000000000000000000028152600401808273ffffffffffffffffffffffffffffffffffffffff1673ffffffffffffffffffffffffffffffffffffffff168152602001915050602060405180830381600087803b151561066c57600080fd5b6102c65a03f1151561067d57600080fd5b505050604051805190506000604051602001526040518363ffffffff167c0100000000000000000000000000000000000000000000000000000000028152600401808373ffffffffffffffffffffffffffffffffffffffff1673ffffffffffffffffffffffffffffffffffffffff16815260200182815260200192505050602060405180830381600087803b151561071457600080fd5b6102c65a03f1151561072557600080fd5b50505060405180519050507fc35789ccff76271dc0efa6bfde2f4d4a32cd48dd86278f75f8648cb068c86e3b60405160405180910390a1565b600160009054906101000a900473ffffffffffffffffffffffffffffffffffffffff1681565b6000809054906101000a900473ffffffffffffffffffffffffffffffffffffffff1681565b6000809054906101000a900473ffffffffffffffffffffffffffffffffffffffff1673ffffffffffffffffffffffffffffffffffffffff163373ffffffffffffffffffffffffffffffffffffffff1614151561080457600080fd5b600073ffffffffffffffffffffffffffffffffffffffff168173ffffffffffffffffffffffffffffffffffffffff161415151561084057600080fd5b8073ffffffffffffffffffffffffffffffffffffffff166000809054906101000a900473ffffffffffffffffffffffffffffffffffffffff1673ffffffffffffffffffffffffffffffffffffffff167f8be0079c531659141344cd1fd0a4f28419497f9722a3daafe3b4186f6b6457e060405160405180910390a3806000806101000a81548173ffffffffffffffffffffffffffffffffffffffff021916908373ffffffffffffffffffffffffffffffffffffffff16021790555050565b60008060008414156109135760009150610932565b828402905082848281151561092457fe5b0414151561092e57fe5b8091505b50929150505600a165627a7a7230582048cbeb1d7b5840ed73c9da0f56a2c9896f78dceeab5eee7ac3b0ddafc3b0b1810029",
  "source": "pragma solidity ^0.4.18;\r\n\r\nimport \"./math/SafeMath.sol\";\r\nimport \"./ownership/Ownable.sol\";\r\n\r\n\r\ninterface GStarToken {\r\n    function transfer(address to, uint256 value) public returns (bool);\r\n    function balanceOf(address who) public view returns (uint256);\r\n}\r\n\r\n\r\ncontract GSTARAirdrop is Ownable {\r\n    using SafeMath for uint256;\r\n\r\n    GStarToken public gStarToken;\r\n    uint256 public decimals = 10**18;\r\n\r\n    event Dropped(address[] beneficiaries, uint256 tokensAmountEachReceives);\r\n    event Close();\r\n\r\n    function GSTARAirdrop(address deployedGStar) public {\r\n        gStarToken = GStarToken(deployedGStar);\r\n    }\r\n\r\n    function drop(address[] beneficiaries, uint256 tokensAmountEachReceives) external onlyOwner {\r\n        uint256 tokenWeiAmountEachReceives = tokensAmountEachReceives.mul(decimals);\r\n        uint256 totalAmountRequired = beneficiaries.length.mul(tokenWeiAmountEachReceives);\r\n        require(gStarToken.balanceOf(address(this)) >= totalAmountRequired);\r\n\r\n        for (uint256 i = 0; i < beneficiaries.length; i++) {\r\n            gStarToken.transfer(beneficiaries[i], tokenWeiAmountEachReceives);\r\n        }\r\n        Dropped(beneficiaries, tokensAmountEachReceives);\r\n    }\r\n\r\n    function close() external onlyOwner {\r\n        gStarToken.transfer(owner, gStarToken.balanceOf(address(this)));\r\n        Close();\r\n    }\r\n}\r\n",
  "sourcePath": "C:\\GStarCrowdsale\\contracts\\GStarAirdrop.sol",
  "compiler": {
    "name": "solc",
    "version": "0.4.19+commit.c4cbbb05.Emscripten.clang"
  },
  "schemaVersion": "2.0.0",
  "updatedAt": "2018-03-07T19:46:35.984Z"
}