{
  "contractName": "GStarCrowdsale",
  "abi": [
    {
      "constant": true,
      "inputs": [],
      "name": "PRE_ICO_MINIMUM_PURCHASE_AMOUNT_IN_WEI",
      "outputs": [
        {
          "name": "",
          "type": "uint256"
        }
      ],
      "payable": false,
      "stateMutability": "view",
      "type": "function"
    },
    {
      "constant": true,
      "inputs": [],
      "name": "crowdsaleActive",
      "outputs": [
        {
          "name": "",
          "type": "bool"
        }
      ],
      "payable": false,
      "stateMutability": "view",
      "type": "function"
    },
    {
      "constant": true,
      "inputs": [],
      "name": "phaseFour",
      "outputs": [
        {
          "name": "",
          "type": "uint256"
        }
      ],
      "payable": false,
      "stateMutability": "view",
      "type": "function"
    },
    {
      "constant": true,
      "inputs": [],
      "name": "rate",
      "outputs": [
        {
          "name": "",
          "type": "uint256"
        }
      ],
      "payable": false,
      "stateMutability": "view",
      "type": "function"
    },
    {
      "constant": true,
      "inputs": [],
      "name": "endTime",
      "outputs": [
        {
          "name": "",
          "type": "uint256"
        }
      ],
      "payable": false,
      "stateMutability": "view",
      "type": "function"
    },
    {
      "constant": true,
      "inputs": [],
      "name": "phaseThree",
      "outputs": [
        {
          "name": "",
          "type": "uint256"
        }
      ],
      "payable": false,
      "stateMutability": "view",
      "type": "function"
    },
    {
      "constant": true,
      "inputs": [],
      "name": "weiRaised",
      "outputs": [
        {
          "name": "",
          "type": "uint256"
        }
      ],
      "payable": false,
      "stateMutability": "view",
      "type": "function"
    },
    {
      "constant": true,
      "inputs": [],
      "name": "wallet",
      "outputs": [
        {
          "name": "",
          "type": "address"
        }
      ],
      "payable": false,
      "stateMutability": "view",
      "type": "function"
    },
    {
      "constant": true,
      "inputs": [],
      "name": "tokensReleasedAmount",
      "outputs": [
        {
          "name": "",
          "type": "uint256"
        }
      ],
      "payable": false,
      "stateMutability": "view",
      "type": "function"
    },
    {
      "constant": true,
      "inputs": [],
      "name": "startTime",
      "outputs": [
        {
          "name": "",
          "type": "uint256"
        }
      ],
      "payable": false,
      "stateMutability": "view",
      "type": "function"
    },
    {
      "constant": true,
      "inputs": [],
      "name": "fundingGoal",
      "outputs": [
        {
          "name": "",
          "type": "uint256"
        }
      ],
      "payable": false,
      "stateMutability": "view",
      "type": "function"
    },
    {
      "constant": false,
      "inputs": [
        {
          "name": "_beneficiary",
          "type": "address"
        }
      ],
      "name": "removeFromWhitelist",
      "outputs": [],
      "payable": false,
      "stateMutability": "nonpayable",
      "type": "function"
    },
    {
      "constant": false,
      "inputs": [
        {
          "name": "_beneficiaries",
          "type": "address[]"
        }
      ],
      "name": "addManyToWhitelist",
      "outputs": [],
      "payable": false,
      "stateMutability": "nonpayable",
      "type": "function"
    },
    {
      "constant": true,
      "inputs": [],
      "name": "owner",
      "outputs": [
        {
          "name": "",
          "type": "address"
        }
      ],
      "payable": false,
      "stateMutability": "view",
      "type": "function"
    },
    {
      "constant": true,
      "inputs": [],
      "name": "phaseOne",
      "outputs": [
        {
          "name": "",
          "type": "uint256"
        }
      ],
      "payable": false,
      "stateMutability": "view",
      "type": "function"
    },
    {
      "constant": true,
      "inputs": [
        {
          "name": "",
          "type": "address"
        }
      ],
      "name": "whitelist",
      "outputs": [
        {
          "name": "",
          "type": "bool"
        }
      ],
      "payable": false,
      "stateMutability": "view",
      "type": "function"
    },
    {
      "constant": true,
      "inputs": [],
      "name": "canTokenRelease",
      "outputs": [
        {
          "name": "",
          "type": "bool"
        }
      ],
      "payable": false,
      "stateMutability": "view",
      "type": "function"
    },
    {
      "constant": true,
      "inputs": [
        {
          "name": "",
          "type": "address"
        }
      ],
      "name": "depositedTokens",
      "outputs": [
        {
          "name": "",
          "type": "uint256"
        }
      ],
      "payable": false,
      "stateMutability": "view",
      "type": "function"
    },
    {
      "constant": true,
      "inputs": [],
      "name": "fundingGoalReached",
      "outputs": [
        {
          "name": "",
          "type": "bool"
        }
      ],
      "payable": false,
      "stateMutability": "view",
      "type": "function"
    },
    {
      "constant": true,
      "inputs": [],
      "name": "MINIMUM_PURCHASE_AMOUNT_IN_WEI",
      "outputs": [
        {
          "name": "",
          "type": "uint256"
        }
      ],
      "payable": false,
      "stateMutability": "view",
      "type": "function"
    },
    {
      "constant": true,
      "inputs": [],
      "name": "phaseSix",
      "outputs": [
        {
          "name": "",
          "type": "uint256"
        }
      ],
      "payable": false,
      "stateMutability": "view",
      "type": "function"
    },
    {
      "constant": true,
      "inputs": [],
      "name": "phaseTwo",
      "outputs": [
        {
          "name": "",
          "type": "uint256"
        }
      ],
      "payable": false,
      "stateMutability": "view",
      "type": "function"
    },
    {
      "constant": true,
      "inputs": [],
      "name": "tokensWeiRaised",
      "outputs": [
        {
          "name": "",
          "type": "uint256"
        }
      ],
      "payable": false,
      "stateMutability": "view",
      "type": "function"
    },
    {
      "constant": false,
      "inputs": [
        {
          "name": "_beneficiary",
          "type": "address"
        }
      ],
      "name": "addToWhitelist",
      "outputs": [],
      "payable": false,
      "stateMutability": "nonpayable",
      "type": "function"
    },
    {
      "constant": true,
      "inputs": [],
      "name": "phaseFive",
      "outputs": [
        {
          "name": "",
          "type": "uint256"
        }
      ],
      "payable": false,
      "stateMutability": "view",
      "type": "function"
    },
    {
      "constant": false,
      "inputs": [
        {
          "name": "_beneficiary",
          "type": "address"
        }
      ],
      "name": "buyTokens",
      "outputs": [],
      "payable": true,
      "stateMutability": "payable",
      "type": "function"
    },
    {
      "constant": false,
      "inputs": [
        {
          "name": "newOwner",
          "type": "address"
        }
      ],
      "name": "transferOwnership",
      "outputs": [],
      "payable": false,
      "stateMutability": "nonpayable",
      "type": "function"
    },
    {
      "constant": true,
      "inputs": [],
      "name": "token",
      "outputs": [
        {
          "name": "",
          "type": "address"
        }
      ],
      "payable": false,
      "stateMutability": "view",
      "type": "function"
    },
    {
      "inputs": [
        {
          "name": "_rate",
          "type": "uint256"
        },
        {
          "name": "_wallet",
          "type": "address"
        },
        {
          "name": "token",
          "type": "address"
        }
      ],
      "payable": false,
      "stateMutability": "nonpayable",
      "type": "constructor"
    },
    {
      "payable": true,
      "stateMutability": "payable",
      "type": "fallback"
    },
    {
      "anonymous": false,
      "inputs": [
        {
          "indexed": true,
          "name": "purchaser",
          "type": "address"
        },
        {
          "indexed": true,
          "name": "beneficiary",
          "type": "address"
        },
        {
          "indexed": false,
          "name": "value",
          "type": "uint256"
        },
        {
          "indexed": false,
          "name": "amount",
          "type": "uint256"
        }
      ],
      "name": "TokenPurchase",
      "type": "event"
    },
    {
      "anonymous": false,
      "inputs": [
        {
          "indexed": false,
          "name": "totalEtherAmountRaised",
          "type": "uint256"
        }
      ],
      "name": "GoalReached",
      "type": "event"
    },
    {
      "anonymous": false,
      "inputs": [],
      "name": "StartCrowdsale",
      "type": "event"
    },
    {
      "anonymous": false,
      "inputs": [],
      "name": "StopCrowdsale",
      "type": "event"
    },
    {
      "anonymous": false,
      "inputs": [],
      "name": "SettlementEnabled",
      "type": "event"
    },
    {
      "anonymous": false,
      "inputs": [],
      "name": "SettlementEnded",
      "type": "event"
    },
    {
      "anonymous": false,
      "inputs": [],
      "name": "TokenReleaseEnabled",
      "type": "event"
    },
    {
      "anonymous": false,
      "inputs": [],
      "name": "TokenReleaseDisabled",
      "type": "event"
    },
    {
      "anonymous": false,
      "inputs": [
        {
          "indexed": false,
          "name": "_beneficiaries",
          "type": "address[]"
        }
      ],
      "name": "ReleaseTokens",
      "type": "event"
    },
    {
      "anonymous": false,
      "inputs": [],
      "name": "Close",
      "type": "event"
    },
    {
      "anonymous": false,
      "inputs": [
        {
          "indexed": true,
          "name": "previousOwner",
          "type": "address"
        },
        {
          "indexed": true,
          "name": "newOwner",
          "type": "address"
        }
      ],
      "name": "OwnershipTransferred",
      "type": "event"
    },
    {
      "constant": true,
      "inputs": [],
      "name": "getRate",
      "outputs": [
        {
          "name": "",
          "type": "uint256"
        }
      ],
      "payable": false,
      "stateMutability": "view",
      "type": "function"
    },
    {
      "constant": false,
      "inputs": [],
      "name": "startCrowdsale",
      "outputs": [],
      "payable": false,
      "stateMutability": "nonpayable",
      "type": "function"
    },
    {
      "constant": false,
      "inputs": [],
      "name": "stopCrowdsale",
      "outputs": [],
      "payable": false,
      "stateMutability": "nonpayable",
      "type": "function"
    },
    {
      "constant": false,
      "inputs": [],
      "name": "enableTokenRelease",
      "outputs": [],
      "payable": false,
      "stateMutability": "nonpayable",
      "type": "function"
    },
    {
      "constant": false,
      "inputs": [],
      "name": "disableTokenRelease",
      "outputs": [],
      "payable": false,
      "stateMutability": "nonpayable",
      "type": "function"
    },
    {
      "constant": false,
      "inputs": [
        {
          "name": "contributors",
          "type": "address[]"
        }
      ],
      "name": "releaseTokens",
      "outputs": [],
      "payable": false,
      "stateMutability": "nonpayable",
      "type": "function"
    },
    {
      "constant": false,
      "inputs": [],
      "name": "close",
      "outputs": [],
      "payable": false,
      "stateMutability": "nonpayable",
      "type": "function"
    }
  ],
  "bytecode": "0x6060604052635a9a4660600655635aa988a0600755635ab8cae0600855635ac80d20600955635ad74f60600a55635ae691a0600b55635af5d3e0600c55635b145860600d5567016345785d8a0000600f55670de0b6b3a76400006010556000601155678ac7230489e800006012556000601360006101000a81548160ff0219169083151502179055506000601360016101000a81548160ff0219169083151502179055506000601360026101000a81548160ff02191690831515021790555060006014553415620000cf57600080fd5b60405160608062001f3b833981016040528080519060200190919080519060200190919080519060200190919050508282826000831115156200011157600080fd5b600073ffffffffffffffffffffffffffffffffffffffff168273ffffffffffffffffffffffffffffffffffffffff16141515156200014e57600080fd5b600073ffffffffffffffffffffffffffffffffffffffff168173ffffffffffffffffffffffffffffffffffffffff16141515156200018b57600080fd5b8260028190555081600160006101000a81548173ffffffffffffffffffffffffffffffffffffffff021916908373ffffffffffffffffffffffffffffffffffffffff160217905550806000806101000a81548173ffffffffffffffffffffffffffffffffffffffff021916908373ffffffffffffffffffffffffffffffffffffffff16021790555050505033600460006101000a81548173ffffffffffffffffffffffffffffffffffffffff021916908373ffffffffffffffffffffffffffffffffffffffff1602179055506007546006541015156200026a57600080fd5b6008546007541015156200027d57600080fd5b6009546008541015156200029057600080fd5b600a54600954101515620002a357600080fd5b600b54600a54101515620002b657600080fd5b600c54600b54101515620002c957600080fd5b600d54600c54101515620002dc57600080fd5b6000601254111515620002ee57600080fd5b505050611c3a80620003016000396000f3006060604052600436106101b7576000357c0100000000000000000000000000000000000000000000000000000000900463ffffffff16806309e13d9b146101c25780630b87cf10146101eb5780632a920456146102185780632c4e722e146102415780633197cbb61461026a578063391fce3c146102935780634042b66f146102bc57806343d726d6146102e5578063507d5954146102fa578063521eb2731461030f5780636686e17414610364578063679aefce1461038d5780636d9634b7146103b657806378e97925146103e45780637a3a0e841461040d5780638ab1d681146104365780638c10671c1461046f5780638da5cb5b1461049d57806390369001146104f25780639b19251a1461051b578063a39953b21461056c578063b4fff0c614610581578063c326bf4f146105ae578063d424f628146105fb578063d4d90bd514610628578063d5adee8c14610651578063de1234b01461067a578063e11f02d71461068f578063e2496d5b146106b8578063e43252d7146106e1578063e4a749d61461071a578063ec8ac4d814610743578063f1f82cc714610771578063f2fde38b14610786578063fc0c546a146107bf575b6101c033610814565b005b34156101cd57600080fd5b6101d56108d8565b6040518082815260200191505060405180910390f35b34156101f657600080fd5b6101fe6108de565b604051808215151515815260200191505060405180910390f35b341561022357600080fd5b61022b6108f1565b6040518082815260200191505060405180910390f35b341561024c57600080fd5b6102546108f7565b6040518082815260200191505060405180910390f35b341561027557600080fd5b61027d6108fd565b6040518082815260200191505060405180910390f35b341561029e57600080fd5b6102a6610903565b6040518082815260200191505060405180910390f35b34156102c757600080fd5b6102cf610909565b6040518082815260200191505060405180910390f35b34156102f057600080fd5b6102f861090f565b005b341561030557600080fd5b61030d610bb7565b005b341561031a57600080fd5b610322610c77565b604051808273ffffffffffffffffffffffffffffffffffffffff1673ffffffffffffffffffffffffffffffffffffffff16815260200191505060405180910390f35b341561036f57600080fd5b610377610c9d565b6040518082815260200191505060405180910390f35b341561039857600080fd5b6103a0610ca3565b6040518082815260200191505060405180910390f35b34156103c157600080fd5b6103e260048080359060200190820180359060200191909192905050610d9c565b005b34156103ef57600080fd5b6103f7611035565b6040518082815260200191505060405180910390f35b341561041857600080fd5b61042061103b565b6040518082815260200191505060405180910390f35b341561044157600080fd5b61046d600480803573ffffffffffffffffffffffffffffffffffffffff16906020019091905050611041565b005b341561047a57600080fd5b61049b600480803590602001908201803590602001919091929050506110f8565b005b34156104a857600080fd5b6104b06111fa565b604051808273ffffffffffffffffffffffffffffffffffffffff1673ffffffffffffffffffffffffffffffffffffffff16815260200191505060405180910390f35b34156104fd57600080fd5b610505611220565b6040518082815260200191505060405180910390f35b341561052657600080fd5b610552600480803573ffffffffffffffffffffffffffffffffffffffff16906020019091905050611226565b604051808215151515815260200191505060405180910390f35b341561057757600080fd5b61057f611246565b005b341561058c57600080fd5b610594611307565b604051808215151515815260200191505060405180910390f35b34156105b957600080fd5b6105e5600480803573ffffffffffffffffffffffffffffffffffffffff1690602001909190505061131a565b6040518082815260200191505060405180910390f35b341561060657600080fd5b61060e611332565b604051808215151515815260200191505060405180910390f35b341561063357600080fd5b61063b611345565b6040518082815260200191505060405180910390f35b341561065c57600080fd5b61066461134b565b6040518082815260200191505060405180910390f35b341561068557600080fd5b61068d611351565b005b341561069a57600080fd5b6106a2611411565b6040518082815260200191505060405180910390f35b34156106c357600080fd5b6106cb611417565b6040518082815260200191505060405180910390f35b34156106ec57600080fd5b610718600480803573ffffffffffffffffffffffffffffffffffffffff1690602001909190505061141d565b005b341561072557600080fd5b61072d6114d4565b6040518082815260200191505060405180910390f35b61076f600480803573ffffffffffffffffffffffffffffffffffffffff16906020019091905050610814565b005b341561077c57600080fd5b6107846114da565b005b341561079157600080fd5b6107bd600480803573ffffffffffffffffffffffffffffffffffffffff1690602001909190505061159b565b005b34156107ca57600080fd5b6107d26116f3565b604051808273ffffffffffffffffffffffffffffffffffffffff1673ffffffffffffffffffffffffffffffffffffffff16815260200191505060405180910390f35b6000803491506108248383611718565b61082d82611856565b90506108448260035461187990919063ffffffff16565b6003819055508273ffffffffffffffffffffffffffffffffffffffff163373ffffffffffffffffffffffffffffffffffffffff167f623b3804fa71d67900d064613da8f94b9617215ee90799290593e1745087ad188484604051808381526020018281526020019250505060405180910390a36108c18383611897565b6108c96118c6565b6108d3838361192a565b505050565b60105481565b601360019054906101000a900460ff1681565b600a5481565b60025481565b600d5481565b60095481565b60035481565b600460009054906101000a900473ffffffffffffffffffffffffffffffffffffffff1673ffffffffffffffffffffffffffffffffffffffff163373ffffffffffffffffffffffffffffffffffffffff1614151561096b57600080fd5b6000601360016101000a81548160ff0219169083151502179055506000601360026101000a81548160ff0219169083151502179055506000809054906101000a900473ffffffffffffffffffffffffffffffffffffffff1673ffffffffffffffffffffffffffffffffffffffff1663a9059cbb600460009054906101000a900473ffffffffffffffffffffffffffffffffffffffff166000809054906101000a900473ffffffffffffffffffffffffffffffffffffffff1673ffffffffffffffffffffffffffffffffffffffff166370a08231306000604051602001526040518263ffffffff167c0100000000000000000000000000000000000000000000000000000000028152600401808273ffffffffffffffffffffffffffffffffffffffff1673ffffffffffffffffffffffffffffffffffffffff168152602001915050602060405180830381600087803b1515610ac557600080fd5b6102c65a03f11515610ad657600080fd5b505050604051805190506000604051602001526040518363ffffffff167c0100000000000000000000000000000000000000000000000000000000028152600401808373ffffffffffffffffffffffffffffffffffffffff1673ffffffffffffffffffffffffffffffffffffffff16815260200182815260200192505050602060405180830381600087803b1515610b6d57600080fd5b6102c65a03f11515610b7e57600080fd5b50505060405180519050507fc35789ccff76271dc0efa6bfde2f4d4a32cd48dd86278f75f8648cb068c86e3b60405160405180910390a1565b600460009054906101000a900473ffffffffffffffffffffffffffffffffffffffff1673ffffffffffffffffffffffffffffffffffffffff163373ffffffffffffffffffffffffffffffffffffffff16141515610c1357600080fd5b601360019054906101000a900460ff161515610c2e57600080fd5b6000601360016101000a81548160ff0219169083151502179055507fe37426d4980e7bc40b6d3ce2bad8990c86960ca6767e7f643f48e1faccbb636f60405160405180910390a1565b600160009054906101000a900473ffffffffffffffffffffffffffffffffffffffff1681565b60145481565b60006006544210158015610cb8575060075442105b15610cc757612ee09050610d99565b6007544210158015610cda575060085442105b15610ce957612cec9050610d99565b6008544210158015610cfc575060095442105b15610d0b57612bc09050610d99565b6009544210158015610d1e5750600a5442105b15610d2d57612a309050610d99565b600a544210158015610d405750600b5442105b15610d4f576128a09050610d99565b600b544210158015610d625750600c5442105b15610d71576127d89050610d99565b600c544210158015610d845750600d5442105b15610d93576127109050610d99565b60025490505b90565b600080600460009054906101000a900473ffffffffffffffffffffffffffffffffffffffff1673ffffffffffffffffffffffffffffffffffffffff163373ffffffffffffffffffffffffffffffffffffffff16141515610dfb57600080fd5b600091505b8383905082101561102f57600e60008585858181101515610e1d57fe5b9050602002013573ffffffffffffffffffffffffffffffffffffffff1673ffffffffffffffffffffffffffffffffffffffff1673ffffffffffffffffffffffffffffffffffffffff168152602001908152602001600020549050806000809054906101000a900473ffffffffffffffffffffffffffffffffffffffff1673ffffffffffffffffffffffffffffffffffffffff166370a08231306000604051602001526040518263ffffffff167c0100000000000000000000000000000000000000000000000000000000028152600401808273ffffffffffffffffffffffffffffffffffffffff1673ffffffffffffffffffffffffffffffffffffffff168152602001915050602060405180830381600087803b1515610f3c57600080fd5b6102c65a03f11515610f4d57600080fd5b5050506040518051905010151515610f6457600080fd5b610f988484848181101515610f7557fe5b9050602002013573ffffffffffffffffffffffffffffffffffffffff16826119cb565b6000600e60008686868181101515610fac57fe5b9050602002013573ffffffffffffffffffffffffffffffffffffffff1673ffffffffffffffffffffffffffffffffffffffff1673ffffffffffffffffffffffffffffffffffffffff1681526020019081526020016000208190555061101c8160145461187990919063ffffffff16565b6014819055508180600101925050610e00565b50505050565b60065481565b60125481565b600460009054906101000a900473ffffffffffffffffffffffffffffffffffffffff1673ffffffffffffffffffffffffffffffffffffffff163373ffffffffffffffffffffffffffffffffffffffff1614151561109d57600080fd5b6000600560008373ffffffffffffffffffffffffffffffffffffffff1673ffffffffffffffffffffffffffffffffffffffff16815260200190815260200160002060006101000a81548160ff02191690831515021790555050565b6000600460009054906101000a900473ffffffffffffffffffffffffffffffffffffffff1673ffffffffffffffffffffffffffffffffffffffff163373ffffffffffffffffffffffffffffffffffffffff1614151561115657600080fd5b600090505b828290508110156111f557600160056000858585818110151561117a57fe5b9050602002013573ffffffffffffffffffffffffffffffffffffffff1673ffffffffffffffffffffffffffffffffffffffff1673ffffffffffffffffffffffffffffffffffffffff16815260200190815260200160002060006101000a81548160ff021916908315150217905550808060010191505061115b565b505050565b600460009054906101000a900473ffffffffffffffffffffffffffffffffffffffff1681565b60075481565b60056020528060005260406000206000915054906101000a900460ff1681565b600460009054906101000a900473ffffffffffffffffffffffffffffffffffffffff1673ffffffffffffffffffffffffffffffffffffffff163373ffffffffffffffffffffffffffffffffffffffff161415156112a257600080fd5b601360019054906101000a900460ff161515156112be57600080fd5b6001601360016101000a81548160ff0219169083151502179055507fc7a327262dbe9cd2bf3282d035e03d69a2b73561e7dcc74caa29f84ee3b9ab6d60405160405180910390a1565b601360029054906101000a900460ff1681565b600e6020528060005260406000206000915090505481565b601360009054906101000a900460ff1681565b600f5481565b600c5481565b600460009054906101000a900473ffffffffffffffffffffffffffffffffffffffff1673ffffffffffffffffffffffffffffffffffffffff163373ffffffffffffffffffffffffffffffffffffffff161415156113ad57600080fd5b601360029054906101000a900460ff1615156113c857600080fd5b6000601360026101000a81548160ff0219169083151502179055507fea687f80397005450503feacab7739e47a991283b2d0d6cefe230f535409941260405160405180910390a1565b60085481565b60115481565b600460009054906101000a900473ffffffffffffffffffffffffffffffffffffffff1673ffffffffffffffffffffffffffffffffffffffff163373ffffffffffffffffffffffffffffffffffffffff1614151561147957600080fd5b6001600560008373ffffffffffffffffffffffffffffffffffffffff1673ffffffffffffffffffffffffffffffffffffffff16815260200190815260200160002060006101000a81548160ff02191690831515021790555050565b600b5481565b600460009054906101000a900473ffffffffffffffffffffffffffffffffffffffff1673ffffffffffffffffffffffffffffffffffffffff163373ffffffffffffffffffffffffffffffffffffffff1614151561153657600080fd5b601360029054906101000a900460ff1615151561155257600080fd5b6001601360026101000a81548160ff0219169083151502179055507f88ce60cc8f043c7da082a179a8df53662baac9b5e9c89ef20c113b81634f0fc160405160405180910390a1565b600460009054906101000a900473ffffffffffffffffffffffffffffffffffffffff1673ffffffffffffffffffffffffffffffffffffffff163373ffffffffffffffffffffffffffffffffffffffff161415156115f757600080fd5b600073ffffffffffffffffffffffffffffffffffffffff168173ffffffffffffffffffffffffffffffffffffffff161415151561163357600080fd5b8073ffffffffffffffffffffffffffffffffffffffff16600460009054906101000a900473ffffffffffffffffffffffffffffffffffffffff1673ffffffffffffffffffffffffffffffffffffffff167f8be0079c531659141344cd1fd0a4f28419497f9722a3daafe3b4186f6b6457e060405160405180910390a380600460006101000a81548173ffffffffffffffffffffffffffffffffffffffff021916908373ffffffffffffffffffffffffffffffffffffffff16021790555050565b6000809054906101000a900473ffffffffffffffffffffffffffffffffffffffff1681565b60008083600560008273ffffffffffffffffffffffffffffffffffffffff1673ffffffffffffffffffffffffffffffffffffffff16815260200190815260200160002060009054906101000a900460ff16151561177457600080fd5b60065442101580156117885750600d544211155b9250600f54841015915060065442101580156117a5575060075442105b156117b35760105484101591505b6117bd8585611ab7565b8473ffffffffffffffffffffffffffffffffffffffff163373ffffffffffffffffffffffffffffffffffffffff161415156117f757600080fd5b60125461180f6003548661187990919063ffffffff16565b1115151561181c57600080fd5b82151561182857600080fd5b81151561183457600080fd5b601360019054906101000a900460ff16151561184f57600080fd5b5050505050565b6000611872611863610ca3565b83611b1f90919063ffffffff16565b9050919050565b600080828401905083811015151561188d57fe5b8091505092915050565b6118b46118a382611856565b60115461187990919063ffffffff16565b6011819055506118c2611b5a565b5050565b600160009054906101000a900473ffffffffffffffffffffffffffffffffffffffff1673ffffffffffffffffffffffffffffffffffffffff166108fc349081150290604051600060405180830381858888f19350505050151561192857600080fd5b565b61198461193682611856565b600e60008573ffffffffffffffffffffffffffffffffffffffff1673ffffffffffffffffffffffffffffffffffffffff1681526020019081526020016000205461187990919063ffffffff16565b600e60008473ffffffffffffffffffffffffffffffffffffffff1673ffffffffffffffffffffffffffffffffffffffff168152602001908152602001600020819055505050565b6000809054906101000a900473ffffffffffffffffffffffffffffffffffffffff1673ffffffffffffffffffffffffffffffffffffffff1663a9059cbb83836000604051602001526040518363ffffffff167c0100000000000000000000000000000000000000000000000000000000028152600401808373ffffffffffffffffffffffffffffffffffffffff1673ffffffffffffffffffffffffffffffffffffffff16815260200182815260200192505050602060405180830381600087803b1515611a9757600080fd5b6102c65a03f11515611aa857600080fd5b50505060405180519050505050565b81600560008273ffffffffffffffffffffffffffffffffffffffff1673ffffffffffffffffffffffffffffffffffffffff16815260200190815260200160002060009054906101000a900460ff161515611b1057600080fd5b611b1a8383611bbe565b505050565b6000806000841415611b345760009150611b53565b8284029050828482811515611b4557fe5b04141515611b4f57fe5b8091505b5092915050565b601254600354101515611bbc576001601360006101000a81548160ff0219169083151502179055507ffbfd8ab7c24300fa9888cd721c8565a7da56759384781283684dcf7c7c4a846b6003546040518082815260200191505060405180910390a15b565b600073ffffffffffffffffffffffffffffffffffffffff168273ffffffffffffffffffffffffffffffffffffffff1614151515611bfa57600080fd5b60008114151515611c0a57600080fd5b50505600a165627a7a723058209da0648eef418aeb5f84c73fcef1015d916fd1df165a5749c55dbcc9670892320029",
  "source": "pragma solidity ^0.4.18;\n\nimport \"./math/SafeMath.sol\";\nimport \"./ownership/Ownable.sol\";\nimport \"./crowdsale/Crowdsale.sol\";\nimport \"./crowdsale/validation/WhitelistedCrowdsale.sol\";\n\nimport \"./GStarToken.sol\";\n\n/**\n * @title GStarCrowdsale\n * @dev This contract manages the crowdsale of GStar Tokens.\n * The crowdsale will involve eight key timings - Start time, end time,\n * and the start time of each six phases. In each phase, token buyers\n * will receive different bonuses - The earlier the purchase, the larger\n * the bonuses.\n * Funds collected are forwarded to a RefundVault as they arrive.\n * Buyers can claim their tokens or refund from this crowdsale contract,\n * which will then access the RefundVault contract.\n * There is only one owner at any one time. The owner can stop or start\n * the crowdsale at anytime.\n */\ncontract GStarCrowdsale is WhitelistedCrowdsale {\n    using SafeMath for uint256;\n\n    // Start and end timestamps where investments are allowed (both inclusive)\n    // All timestamps are expressed in seconds instead of block number.\n    uint256 public startTime = 1520060000;\n    uint256 public phaseOne = 1521060000;\n    uint256 public phaseTwo = 1522060000;\n    uint256 public phaseThree = 1523060000;\n    uint256 public phaseFour = 1524060000;\n    uint256 public phaseFive = 1525060000;\n    uint256 public phaseSix = 1526060000;\n    uint256 public endTime = 1528060000;\n\n    // Keeps track of contributors tokens\n    mapping (address => uint256) public depositedTokens;\n\n    // Minimum amount of ETH contribution during ICO and Pre-ICO period\n    // Minimum of ETH contributed during ICO is 0.1ETH\n    // Minimum of ETH contributed during pre-ICO is 1ETH\n    uint256 public MINIMUM_PURCHASE_AMOUNT_IN_WEI = 10**17;\n    uint256 public PRE_ICO_MINIMUM_PURCHASE_AMOUNT_IN_WEI = 10**18;\n\n    // Total tokens raised so far, bonus inclusive\n    uint256 public tokensWeiRaised = 0;\n\n    //Funding goal is 38,000 ETH\n    uint256 public fundingGoal = 10 ether;\n    bool public fundingGoalReached = false;\n\n    // Indicates if crowdsale is active\n    bool public crowdsaleActive = false;\n\n    // Indicates if tokens can be released\n    bool public canTokenRelease = false;\n\n    uint256 public tokensReleasedAmount = 0;\n\n    event TokenPurchase(address indexed purchaser, address indexed beneficiary, uint256 value, uint256 amount);\n    event GoalReached(uint256 totalEtherAmountRaised);\n    event StartCrowdsale();\n    event StopCrowdsale();\n    event SettlementEnabled();\n    event SettlementEnded();\n    event TokenReleaseEnabled();\n    event TokenReleaseDisabled();\n    event ReleaseTokens(address[] _beneficiaries);\n    event Close();\n\n    /**\n    * @dev Constructor. Checks validity of the time entered.\n    */\n    function GStarCrowdsale(uint256 _rate, address _wallet, GStarToken token) public\n    Crowdsale(_rate, _wallet, token) {\n        require(startTime < phaseOne);\n        require(phaseOne < phaseTwo);\n        require(phaseTwo < phaseThree);\n        require(phaseThree < phaseFour);\n        require(phaseFour < phaseFive);\n        require(phaseFive < phaseSix);\n        require(phaseSix < endTime);\n\n        require(fundingGoal > 0);\n    }\n\n    /**\n    * @dev Overrides _preValidatePurchase function in Crowdsale.\n    * Requires purchase is made within crowdsale period.\n    * Requires contributor to be the beneficiary.\n    * Requires purchase value and address to be non-zero.\n    * Requires amount not to exceed funding goal.\n    * Requires purchase value to be higher or equal to minimum amount.\n    * Requires contributor to be whitelisted.\n    * The minimum purchase amount for Pre-ICO is different from ICO.\n    */\n    function _preValidatePurchase(address _beneficiary, uint256 _weiAmount) internal isWhitelisted(_beneficiary) {\n        bool withinPeriod = now >= startTime && now <= endTime;\n        bool atLeastMinimumAmount = _weiAmount >= MINIMUM_PURCHASE_AMOUNT_IN_WEI;\n\n        if(now >= startTime && now < phaseOne) {\n            atLeastMinimumAmount = _weiAmount >= PRE_ICO_MINIMUM_PURCHASE_AMOUNT_IN_WEI;\n        }\n        super._preValidatePurchase(_beneficiary, _weiAmount);\n        require(msg.sender == _beneficiary);\n        require(_weiAmount.add(weiRaised) <= fundingGoal);\n        require(withinPeriod);\n        require(atLeastMinimumAmount);\n        require(crowdsaleActive);\n    }\n\n    /**\n    * @dev Overrides _getTokenAmount function in Crowdsale.\n    * Calculates token amount, inclusive of bonus, based on ETH contributed.\n    * @param _weiAmount Value in wei to be converted into tokens\n    * @return Number of tokens that can be purchased with the specified _weiAmount\n    */\n    function _getTokenAmount(uint256 _weiAmount) internal view returns (uint256) {\n        return _weiAmount.mul(getRate());\n    }\n\n    /**\n    * @dev Calculates the token amount per ETH contributed based on the time now.\n    * @return Rate of amount of GSTAR per Ether as of current time.\n    */\n    function getRate() public view returns (uint256) {\n        //calculate bonus based on phases\n        if(now >= startTime && now < phaseOne) {return 12000;}\n        else if(now >= phaseOne && now < phaseTwo) {return 11500;}\n        else if(now >= phaseTwo && now < phaseThree) {return 11200;}\n        else if(now >= phaseThree && now < phaseFour) {return 10800;}\n        else if(now >= phaseFour && now < phaseFive) {return 10400;}\n        else if(now >= phaseFive && now < phaseSix) {return 10200;}\n        else if(now >= phaseSix && now < endTime) {return 10000;}\n\n        return rate;\n    }\n\n    /**\n    * @dev Overrides _updatePurchasingState function from Crowdsale.\n    * Updates tokenWeiRaised amount and funding goal status.\n    */\n    function _updatePurchasingState(address _beneficiary, uint256 _weiAmount) internal {\n        tokensWeiRaised = tokensWeiRaised.add(_getTokenAmount(_weiAmount));\n        updateFundingGoal();\n    }\n\n    /**\n    * @dev Overrides _postValidatePurchase function from Crowdsale.\n    * Updates beneficiary's contribution.\n    */\n    function _postValidatePurchase(address _beneficiary, uint256 _weiAmount) internal {\n      depositedTokens[_beneficiary] = depositedTokens[_beneficiary].add(_getTokenAmount(_weiAmount));\n    }\n\n    /**\n    * @dev Updates fundingGoal status.\n    */\n    function updateFundingGoal() internal {\n        if(weiRaised >= fundingGoal){\n            fundingGoalReached = true;\n            GoalReached(weiRaised);\n        }\n    }\n\n    /**\n    * @dev Allows owner to start/unpause crowdsale.\n    */\n    function startCrowdsale() external onlyOwner {\n        require(!crowdsaleActive);\n        crowdsaleActive = true;\n        StartCrowdsale();\n    }\n\n    /**\n    * @dev Allows owner to stop/pause crowdsale.\n    */\n    function stopCrowdsale() external onlyOwner {\n        require(crowdsaleActive);\n        crowdsaleActive = false;\n        StopCrowdsale();\n    }\n\n    /**\n    * @dev Allows owner to enable release of tokens.\n    */\n    function enableTokenRelease() external onlyOwner {\n        require(!canTokenRelease);\n        canTokenRelease = true;\n        TokenReleaseEnabled();\n    }\n\n    /**\n    * @dev Allows owner to disable token release.\n    */\n    function disableTokenRelease() external onlyOwner {\n        require(canTokenRelease);\n        canTokenRelease = false;\n        TokenReleaseDisabled();\n    }\n\n\n    function releaseTokens(address[] contributors) external onlyOwner {\n        for (uint256 i = 0; i < contributors.length; i++) {\n\n            // the amount of tokens to be distributed to contributor\n            uint256 tokensAmount = depositedTokens[contributors[i]];\n\n            //ensure that there is enough tokens to distribute\n            require(token.balanceOf(address(this)) >= tokensAmount);\n            super._deliverTokens(contributors[i], tokensAmount);\n\n            depositedTokens[contributors[i]] = 0;\n            tokensReleasedAmount = tokensReleasedAmount.add(tokensAmount);\n        }\n    }\n\n    function close() external onlyOwner {\n        crowdsaleActive = false;\n        canTokenRelease = false;\n        token.transfer(owner, token.balanceOf(address(this)));\n        Close();\n    }\n\n }\n",
  "sourcePath": "/Users/zack/GStarCrowdsale/contracts/GStarCrowdsale.sol",
  "compiler": {
    "name": "solc",
    "version": "0.4.19+commit.c4cbbb05.Emscripten.clang"
  },
  "schemaVersion": "2.0.0",
  "updatedAt": "2018-03-08T09:28:53.705Z"
}