{
  "contractName": "GStarCrowdsale",
  "abi": [
    {
      "constant": true,
      "inputs": [],
      "name": "PRE_ICO_MINIMUM_PURCHASE_AMOUNT_IN_WEI",
      "outputs": [
        {
          "name": "",
          "type": "uint256"
        }
      ],
      "payable": false,
      "stateMutability": "view",
      "type": "function"
    },
    {
      "constant": true,
      "inputs": [],
      "name": "tokensRaisedInWei",
      "outputs": [
        {
          "name": "",
          "type": "uint256"
        }
      ],
      "payable": false,
      "stateMutability": "view",
      "type": "function"
    },
    {
      "constant": true,
      "inputs": [],
      "name": "refundVault",
      "outputs": [
        {
          "name": "",
          "type": "address"
        }
      ],
      "payable": false,
      "stateMutability": "view",
      "type": "function"
    },
    {
      "constant": true,
      "inputs": [],
      "name": "phaseFour",
      "outputs": [
        {
          "name": "",
          "type": "uint256"
        }
      ],
      "payable": false,
      "stateMutability": "view",
      "type": "function"
    },
    {
      "constant": true,
      "inputs": [],
      "name": "endTime",
      "outputs": [
        {
          "name": "",
          "type": "uint256"
        }
      ],
      "payable": false,
      "stateMutability": "view",
      "type": "function"
    },
    {
      "constant": true,
      "inputs": [],
      "name": "phaseThree",
      "outputs": [
        {
          "name": "",
          "type": "uint256"
        }
      ],
      "payable": false,
      "stateMutability": "view",
      "type": "function"
    },
    {
      "constant": true,
      "inputs": [],
      "name": "gStarToken",
      "outputs": [
        {
          "name": "",
          "type": "address"
        }
      ],
      "payable": false,
      "stateMutability": "view",
      "type": "function"
    },
    {
      "constant": true,
      "inputs": [],
      "name": "startTime",
      "outputs": [
        {
          "name": "",
          "type": "uint256"
        }
      ],
      "payable": false,
      "stateMutability": "view",
      "type": "function"
    },
    {
      "constant": true,
      "inputs": [],
      "name": "fundingGoal",
      "outputs": [
        {
          "name": "",
          "type": "uint256"
        }
      ],
      "payable": false,
      "stateMutability": "view",
      "type": "function"
    },
    {
      "constant": true,
      "inputs": [],
      "name": "owner",
      "outputs": [
        {
          "name": "",
          "type": "address"
        }
      ],
      "payable": false,
      "stateMutability": "view",
      "type": "function"
    },
    {
      "constant": true,
      "inputs": [],
      "name": "phaseOne",
      "outputs": [
        {
          "name": "",
          "type": "uint256"
        }
      ],
      "payable": false,
      "stateMutability": "view",
      "type": "function"
    },
    {
      "constant": true,
      "inputs": [],
      "name": "etherRaisedInWei",
      "outputs": [
        {
          "name": "",
          "type": "uint256"
        }
      ],
      "payable": false,
      "stateMutability": "view",
      "type": "function"
    },
    {
      "constant": true,
      "inputs": [],
      "name": "MINIMUM_PURCHASE_AMOUNT_IN_WEI",
      "outputs": [
        {
          "name": "",
          "type": "uint256"
        }
      ],
      "payable": false,
      "stateMutability": "view",
      "type": "function"
    },
    {
      "constant": true,
      "inputs": [],
      "name": "phaseSix",
      "outputs": [
        {
          "name": "",
          "type": "uint256"
        }
      ],
      "payable": false,
      "stateMutability": "view",
      "type": "function"
    },
    {
      "constant": true,
      "inputs": [],
      "name": "phaseTwo",
      "outputs": [
        {
          "name": "",
          "type": "uint256"
        }
      ],
      "payable": false,
      "stateMutability": "view",
      "type": "function"
    },
    {
      "constant": true,
      "inputs": [],
      "name": "phaseFive",
      "outputs": [
        {
          "name": "",
          "type": "uint256"
        }
      ],
      "payable": false,
      "stateMutability": "view",
      "type": "function"
    },
    {
      "constant": true,
      "inputs": [],
      "name": "GSTAR_PER_ETH",
      "outputs": [
        {
          "name": "",
          "type": "uint256"
        }
      ],
      "payable": false,
      "stateMutability": "view",
      "type": "function"
    },
    {
      "constant": false,
      "inputs": [
        {
          "name": "newOwner",
          "type": "address"
        }
      ],
      "name": "transferOwnership",
      "outputs": [],
      "payable": false,
      "stateMutability": "nonpayable",
      "type": "function"
    },
    {
      "inputs": [
        {
          "name": "deployedGStar",
          "type": "address"
        },
        {
          "name": "deployedRefundVault",
          "type": "address"
        }
      ],
      "payable": false,
      "stateMutability": "nonpayable",
      "type": "constructor"
    },
    {
      "payable": true,
      "stateMutability": "payable",
      "type": "fallback"
    },
    {
      "anonymous": false,
      "inputs": [
        {
          "indexed": true,
          "name": "purchaser",
          "type": "address"
        },
        {
          "indexed": true,
          "name": "beneficiary",
          "type": "address"
        },
        {
          "indexed": false,
          "name": "value",
          "type": "uint256"
        },
        {
          "indexed": false,
          "name": "amount",
          "type": "uint256"
        }
      ],
      "name": "TokenPurchase",
      "type": "event"
    },
    {
      "anonymous": false,
      "inputs": [
        {
          "indexed": false,
          "name": "totalEtherAmountRaised",
          "type": "uint256"
        }
      ],
      "name": "GoalReached",
      "type": "event"
    },
    {
      "anonymous": false,
      "inputs": [
        {
          "indexed": true,
          "name": "previousOwner",
          "type": "address"
        },
        {
          "indexed": true,
          "name": "newOwner",
          "type": "address"
        }
      ],
      "name": "OwnershipTransferred",
      "type": "event"
    },
    {
      "anonymous": false,
      "inputs": [],
      "name": "StartCrowdsale",
      "type": "event"
    },
    {
      "anonymous": false,
      "inputs": [],
      "name": "StopCrowdsale",
      "type": "event"
    },
    {
      "anonymous": false,
      "inputs": [],
      "name": "SettlementEnabled",
      "type": "event"
    },
    {
      "anonymous": false,
      "inputs": [],
      "name": "SettlementEnded",
      "type": "event"
    },
    {
      "anonymous": false,
      "inputs": [
        {
          "indexed": false,
          "name": "investor",
          "type": "address"
        },
        {
          "indexed": false,
          "name": "etherWeiAmount",
          "type": "uint256"
        },
        {
          "indexed": false,
          "name": "success",
          "type": "bool"
        }
      ],
      "name": "RefundClaimed",
      "type": "event"
    },
    {
      "anonymous": false,
      "inputs": [
        {
          "indexed": false,
          "name": "investor",
          "type": "address"
        },
        {
          "indexed": false,
          "name": "tokensWeiAmount",
          "type": "uint256"
        }
      ],
      "name": "TokensClaimed",
      "type": "event"
    },
    {
      "anonymous": false,
      "inputs": [
        {
          "indexed": false,
          "name": "beneficiary",
          "type": "address"
        }
      ],
      "name": "Whitelisted",
      "type": "event"
    },
    {
      "anonymous": false,
      "inputs": [
        {
          "indexed": false,
          "name": "beneficiary",
          "type": "address"
        }
      ],
      "name": "Delisted",
      "type": "event"
    },
    {
      "anonymous": false,
      "inputs": [
        {
          "indexed": false,
          "name": "beneficiaries",
          "type": "address[]"
        }
      ],
      "name": "AddedMultipleToWhitelist",
      "type": "event"
    },
    {
      "anonymous": false,
      "inputs": [
        {
          "indexed": false,
          "name": "beneficiaries",
          "type": "address[]"
        }
      ],
      "name": "BulkWhitelistAndReleaseTokens",
      "type": "event"
    },
    {
      "constant": false,
      "inputs": [
        {
          "name": "beneficiary",
          "type": "address"
        }
      ],
      "name": "buyTokens",
      "outputs": [],
      "payable": true,
      "stateMutability": "payable",
      "type": "function"
    },
    {
      "constant": true,
      "inputs": [],
      "name": "getRate",
      "outputs": [
        {
          "name": "",
          "type": "uint256"
        }
      ],
      "payable": false,
      "stateMutability": "view",
      "type": "function"
    },
    {
      "constant": true,
      "inputs": [],
      "name": "isFundingGoalReached",
      "outputs": [
        {
          "name": "",
          "type": "bool"
        }
      ],
      "payable": false,
      "stateMutability": "view",
      "type": "function"
    },
    {
      "constant": true,
      "inputs": [],
      "name": "isCrowdsaleActive",
      "outputs": [
        {
          "name": "",
          "type": "bool"
        }
      ],
      "payable": false,
      "stateMutability": "view",
      "type": "function"
    },
    {
      "constant": false,
      "inputs": [],
      "name": "startCrowdsale",
      "outputs": [],
      "payable": false,
      "stateMutability": "nonpayable",
      "type": "function"
    },
    {
      "constant": false,
      "inputs": [],
      "name": "stopCrowdsale",
      "outputs": [],
      "payable": false,
      "stateMutability": "nonpayable",
      "type": "function"
    },
    {
      "constant": false,
      "inputs": [],
      "name": "claimTokens",
      "outputs": [],
      "payable": false,
      "stateMutability": "nonpayable",
      "type": "function"
    },
    {
      "constant": false,
      "inputs": [],
      "name": "claimRefund",
      "outputs": [],
      "payable": false,
      "stateMutability": "nonpayable",
      "type": "function"
    },
    {
      "constant": false,
      "inputs": [],
      "name": "enableSettlement",
      "outputs": [],
      "payable": false,
      "stateMutability": "nonpayable",
      "type": "function"
    },
    {
      "constant": false,
      "inputs": [],
      "name": "endSettlement",
      "outputs": [],
      "payable": false,
      "stateMutability": "nonpayable",
      "type": "function"
    },
    {
      "constant": false,
      "inputs": [
        {
          "name": "beneficiary",
          "type": "address"
        }
      ],
      "name": "addToWhitelist",
      "outputs": [],
      "payable": false,
      "stateMutability": "nonpayable",
      "type": "function"
    },
    {
      "constant": false,
      "inputs": [
        {
          "name": "beneficiary",
          "type": "address"
        }
      ],
      "name": "removeFromWhitelist",
      "outputs": [],
      "payable": false,
      "stateMutability": "nonpayable",
      "type": "function"
    },
    {
      "constant": false,
      "inputs": [
        {
          "name": "beneficiaries",
          "type": "address[]"
        }
      ],
      "name": "addManyToWhitelist",
      "outputs": [],
      "payable": false,
      "stateMutability": "nonpayable",
      "type": "function"
    },
    {
      "constant": false,
      "inputs": [
        {
          "name": "beneficiaries",
          "type": "address[]"
        }
      ],
      "name": "whitelistAndReleaseTokens",
      "outputs": [],
      "payable": false,
      "stateMutability": "nonpayable",
      "type": "function"
    }
  ],
  "bytecode": "0x6060604052635a9a4660600355635aa988a0600455635ab8cae0600555635ac80d20600655635ad74f60600755635ae691a0600855635af5d3e0600955635b145860600a55612710600b5567016345785d8a0000600c55670de0b6b3a7640000600d55678ac7230489e80000600e556000600f5560006010556000601160006101000a81548160ff0219169083151502179055506000601160016101000a81548160ff0219169083151502179055503415620000ba57600080fd5b6040516040806200219a83398101604052808051906020019091908051906020019091905050336000806101000a81548173ffffffffffffffffffffffffffffffffffffffff021916908373ffffffffffffffffffffffffffffffffffffffff1602179055506004546003541015156200013357600080fd5b6005546004541015156200014657600080fd5b6006546005541015156200015957600080fd5b6007546006541015156200016c57600080fd5b6008546007541015156200017f57600080fd5b6009546008541015156200019257600080fd5b600a54600954101515620001a557600080fd5b600073ffffffffffffffffffffffffffffffffffffffff168273ffffffffffffffffffffffffffffffffffffffff1614151515620001e257600080fd5b600073ffffffffffffffffffffffffffffffffffffffff168173ffffffffffffffffffffffffffffffffffffffff16141515156200021f57600080fd5b6000600e541115156200023157600080fd5b336000806101000a81548173ffffffffffffffffffffffffffffffffffffffff021916908373ffffffffffffffffffffffffffffffffffffffff16021790555081600160006101000a81548173ffffffffffffffffffffffffffffffffffffffff021916908373ffffffffffffffffffffffffffffffffffffffff16021790555080600260006101000a81548173ffffffffffffffffffffffffffffffffffffffff021916908373ffffffffffffffffffffffffffffffffffffffff1602179055505050611e9580620003056000396000f300606060405260043610610196576000357c0100000000000000000000000000000000000000000000000000000000900463ffffffff1680630118e686146101bc57806309e13d9b146101e95780630d7725b91461021257806311777af71461023b57806327190a47146102905780632a920456146102a55780633197cbb6146102ce578063391fce3c146102f757806348c54b9d14610320578063507d59541461033557806354d7fa331461034a578063679aefce1461039f578063742513c9146103c857806378e97925146104225780637a3a0e841461044b5780638ab1d681146104745780638c10671c146104ad5780638da5cb5b14610507578063903690011461055c5780639ec4762614610585578063a39953b2146105ae578063b5545a3c146105c3578063bab69c93146105d8578063d4d90bd514610605578063d5adee8c1461062e578063e11f02d714610657578063e43252d714610680578063e4a749d6146106b9578063ec8ac4d8146106e2578063f1f67bd314610710578063f2fde38b14610739578063fa2dcd9314610772575b601160019054906101000a900460ff1615156101b157600080fd5b6101ba33610787565b005b34156101c757600080fd5b6101cf6109e1565b604051808215151515815260200191505060405180910390f35b34156101f457600080fd5b6101fc6109f8565b6040518082815260200191505060405180910390f35b341561021d57600080fd5b6102256109fe565b6040518082815260200191505060405180910390f35b341561024657600080fd5b61024e610a04565b604051808273ffffffffffffffffffffffffffffffffffffffff1673ffffffffffffffffffffffffffffffffffffffff16815260200191505060405180910390f35b341561029b57600080fd5b6102a3610a2a565b005b34156102b057600080fd5b6102b8610b67565b6040518082815260200191505060405180910390f35b34156102d957600080fd5b6102e1610b6d565b6040518082815260200191505060405180910390f35b341561030257600080fd5b61030a610b73565b6040518082815260200191505060405180910390f35b341561032b57600080fd5b610333610b79565b005b341561034057600080fd5b610348610d9b565b005b341561035557600080fd5b61035d610e5a565b604051808273ffffffffffffffffffffffffffffffffffffffff1673ffffffffffffffffffffffffffffffffffffffff16815260200191505060405180910390f35b34156103aa57600080fd5b6103b2610e80565b6040518082815260200191505060405180910390f35b34156103d357600080fd5b610420600480803590602001908201803590602001908080602002602001604051908101604052809392919081815260200183836020028082843782019150505050505091905050610f79565b005b341561042d57600080fd5b610435611134565b6040518082815260200191505060405180910390f35b341561045657600080fd5b61045e61113a565b6040518082815260200191505060405180910390f35b341561047f57600080fd5b6104ab600480803573ffffffffffffffffffffffffffffffffffffffff16906020019091905050611140565b005b34156104b857600080fd5b6105056004808035906020019082018035906020019080806020026020016040519081016040528093929190818152602001838360200280828437820191505050505050919050506112d1565b005b341561051257600080fd5b61051a61148c565b604051808273ffffffffffffffffffffffffffffffffffffffff1673ffffffffffffffffffffffffffffffffffffffff16815260200191505060405180910390f35b341561056757600080fd5b61056f6114b1565b6040518082815260200191505060405180910390f35b341561059057600080fd5b6105986114b7565b6040518082815260200191505060405180910390f35b34156105b957600080fd5b6105c16114bd565b005b34156105ce57600080fd5b6105d661157d565b005b34156105e357600080fd5b6105eb6118e1565b604051808215151515815260200191505060405180910390f35b341561061057600080fd5b6106186118f0565b6040518082815260200191505060405180910390f35b341561063957600080fd5b6106416118f6565b6040518082815260200191505060405180910390f35b341561066257600080fd5b61066a6118fc565b6040518082815260200191505060405180910390f35b341561068b57600080fd5b6106b7600480803573ffffffffffffffffffffffffffffffffffffffff16906020019091905050611902565b005b34156106c457600080fd5b6106cc611a93565b6040518082815260200191505060405180910390f35b61070e600480803573ffffffffffffffffffffffffffffffffffffffff16906020019091905050610787565b005b341561071b57600080fd5b610723611a99565b6040518082815260200191505060405180910390f35b341561074457600080fd5b610770600480803573ffffffffffffffffffffffffffffffffffffffff16906020019091905050611a9f565b005b341561077d57600080fd5b610785611bf4565b005b600080600073ffffffffffffffffffffffffffffffffffffffff168373ffffffffffffffffffffffffffffffffffffffff16141515156107c657600080fd5b8273ffffffffffffffffffffffffffffffffffffffff163373ffffffffffffffffffffffffffffffffffffffff1614151561080057600080fd5b610808611d16565b151561081357600080fd5b349150600e5461082e60105484611d8390919063ffffffff16565b1115151561083b57600080fd5b61085582610847610e80565b611da190919063ffffffff16565b905061086c82601054611d8390919063ffffffff16565b60108190555061088781600f54611d8390919063ffffffff16565b600f81905550600260009054906101000a900473ffffffffffffffffffffffffffffffffffffffff1673ffffffffffffffffffffffffffffffffffffffff166347e7ef243433846040518463ffffffff167c0100000000000000000000000000000000000000000000000000000000028152600401808373ffffffffffffffffffffffffffffffffffffffff1673ffffffffffffffffffffffffffffffffffffffff168152602001828152602001925050506000604051808303818588803b151561095157600080fd5b6125ee5a03f1151561096257600080fd5b505050508273ffffffffffffffffffffffffffffffffffffffff163373ffffffffffffffffffffffffffffffffffffffff167f623b3804fa71d67900d064613da8f94b9617215ee90799290593e1745087ad188484604051808381526020018281526020019250505060405180910390a36109db611ddc565b50505050565b6000601160019054906101000a900460ff16905090565b600d5481565b600f5481565b600260009054906101000a900473ffffffffffffffffffffffffffffffffffffffff1681565b6000809054906101000a900473ffffffffffffffffffffffffffffffffffffffff1673ffffffffffffffffffffffffffffffffffffffff163373ffffffffffffffffffffffffffffffffffffffff16141515610a8557600080fd5b600260009054906101000a900473ffffffffffffffffffffffffffffffffffffffff1673ffffffffffffffffffffffffffffffffffffffff166327190a476040518163ffffffff167c0100000000000000000000000000000000000000000000000000000000028152600401600060405180830381600087803b1515610b0a57600080fd5b6102c65a03f11515610b1b57600080fd5b5050506000601160016101000a81548160ff0219169083151502179055507f83e651407bff0c3e4b6db4833747e071ce13a156902eaed9b1cf16967395809360405160405180910390a1565b60075481565b600a5481565b60065481565b6000600260009054906101000a900473ffffffffffffffffffffffffffffffffffffffff1673ffffffffffffffffffffffffffffffffffffffff1663a161c205336000604051602001526040518263ffffffff167c0100000000000000000000000000000000000000000000000000000000028152600401808273ffffffffffffffffffffffffffffffffffffffff1673ffffffffffffffffffffffffffffffffffffffff168152602001915050602060405180830381600087803b1515610c4057600080fd5b6102c65a03f11515610c5157600080fd5b505050604051805190509050600260009054906101000a900473ffffffffffffffffffffffffffffffffffffffff1673ffffffffffffffffffffffffffffffffffffffff1663df8de3e7336040518263ffffffff167c0100000000000000000000000000000000000000000000000000000000028152600401808273ffffffffffffffffffffffffffffffffffffffff1673ffffffffffffffffffffffffffffffffffffffff168152602001915050600060405180830381600087803b1515610d1957600080fd5b6102c65a03f11515610d2a57600080fd5b5050507f896e034966eaaf1adc54acc0f257056febbd300c9e47182cf761982cf1f5e4303382604051808373ffffffffffffffffffffffffffffffffffffffff1673ffffffffffffffffffffffffffffffffffffffff1681526020018281526020019250505060405180910390a150565b6000809054906101000a900473ffffffffffffffffffffffffffffffffffffffff1673ffffffffffffffffffffffffffffffffffffffff163373ffffffffffffffffffffffffffffffffffffffff16141515610df657600080fd5b601160019054906101000a900460ff161515610e1157600080fd5b6000601160016101000a81548160ff0219169083151502179055507fe37426d4980e7bc40b6d3ce2bad8990c86960ca6767e7f643f48e1faccbb636f60405160405180910390a1565b600160009054906101000a900473ffffffffffffffffffffffffffffffffffffffff1681565b60006003544210158015610e95575060045442105b15610ea457612ee09050610f76565b6004544210158015610eb7575060055442105b15610ec657612cec9050610f76565b6005544210158015610ed9575060065442105b15610ee857612bc09050610f76565b6006544210158015610efb575060075442105b15610f0a57612a309050610f76565b6007544210158015610f1d575060085442105b15610f2c576128a09050610f76565b6008544210158015610f3f575060095442105b15610f4e576127d89050610f76565b6009544210158015610f615750600a5442105b15610f70576127109050610f76565b600b5490505b90565b6000809054906101000a900473ffffffffffffffffffffffffffffffffffffffff1673ffffffffffffffffffffffffffffffffffffffff163373ffffffffffffffffffffffffffffffffffffffff16141515610fd457600080fd5b600260009054906101000a900473ffffffffffffffffffffffffffffffffffffffff1673ffffffffffffffffffffffffffffffffffffffff1663742513c9826040518263ffffffff167c01000000000000000000000000000000000000000000000000000000000281526004018080602001828103825283818151815260200191508051906020019060200280838360005b83811015611081578082015181840152602081019050611066565b5050505090500192505050600060405180830381600087803b15156110a557600080fd5b6102c65a03f115156110b657600080fd5b5050507f2cf90ebdb4294ac4df3683f90fee6b2e4305b924da3c3b145960c0392f8cf027816040518080602001828103825283818151815260200191508051906020019060200280838360005b8381101561111e578082015181840152602081019050611103565b505050509050019250505060405180910390a150565b60035481565b600e5481565b6000809054906101000a900473ffffffffffffffffffffffffffffffffffffffff1673ffffffffffffffffffffffffffffffffffffffff163373ffffffffffffffffffffffffffffffffffffffff1614151561119b57600080fd5b600260009054906101000a900473ffffffffffffffffffffffffffffffffffffffff1673ffffffffffffffffffffffffffffffffffffffff16638ab1d681826040518263ffffffff167c0100000000000000000000000000000000000000000000000000000000028152600401808273ffffffffffffffffffffffffffffffffffffffff1673ffffffffffffffffffffffffffffffffffffffff168152602001915050600060405180830381600087803b151561125757600080fd5b6102c65a03f1151561126857600080fd5b5050507f7e1dd2258a1fa02a8360869a16fa4e1d4649c796d79a8d520f03a1dd8ae41af081604051808273ffffffffffffffffffffffffffffffffffffffff1673ffffffffffffffffffffffffffffffffffffffff16815260200191505060405180910390a150565b6000809054906101000a900473ffffffffffffffffffffffffffffffffffffffff1673ffffffffffffffffffffffffffffffffffffffff163373ffffffffffffffffffffffffffffffffffffffff1614151561132c57600080fd5b600260009054906101000a900473ffffffffffffffffffffffffffffffffffffffff1673ffffffffffffffffffffffffffffffffffffffff16638c10671c826040518263ffffffff167c01000000000000000000000000000000000000000000000000000000000281526004018080602001828103825283818151815260200191508051906020019060200280838360005b838110156113d95780820151818401526020810190506113be565b5050505090500192505050600060405180830381600087803b15156113fd57600080fd5b6102c65a03f1151561140e57600080fd5b5050507f38b0ca37539c1f04430742c13474bf9185bc2faf638609de5d6ce28de7da4d55816040518080602001828103825283818151815260200191508051906020019060200280838360005b8381101561147657808201518184015260208101905061145b565b505050509050019250505060405180910390a150565b6000809054906101000a900473ffffffffffffffffffffffffffffffffffffffff1681565b60045481565b60105481565b6000809054906101000a900473ffffffffffffffffffffffffffffffffffffffff1673ffffffffffffffffffffffffffffffffffffffff163373ffffffffffffffffffffffffffffffffffffffff1614151561151857600080fd5b601160019054906101000a900460ff1615151561153457600080fd5b6001601160016101000a81548160ff0219169083151502179055507fc7a327262dbe9cd2bf3282d035e03d69a2b73561e7dcc74caa29f84ee3b9ab6d60405160405180910390a1565b6000806000600260009054906101000a900473ffffffffffffffffffffffffffffffffffffffff1673ffffffffffffffffffffffffffffffffffffffff1663a161c205336000604051602001526040518263ffffffff167c0100000000000000000000000000000000000000000000000000000000028152600401808273ffffffffffffffffffffffffffffffffffffffff1673ffffffffffffffffffffffffffffffffffffffff168152602001915050602060405180830381600087803b151561164757600080fd5b6102c65a03f1151561165857600080fd5b505050604051805190509250600260009054906101000a900473ffffffffffffffffffffffffffffffffffffffff1673ffffffffffffffffffffffffffffffffffffffff16630c3827d0336000604051602001526040518263ffffffff167c0100000000000000000000000000000000000000000000000000000000028152600401808273ffffffffffffffffffffffffffffffffffffffff1673ffffffffffffffffffffffffffffffffffffffff168152602001915050602060405180830381600087803b151561172957600080fd5b6102c65a03f1151561173a57600080fd5b505050604051805190509150600260009054906101000a900473ffffffffffffffffffffffffffffffffffffffff1673ffffffffffffffffffffffffffffffffffffffff1663fa89401a336000604051602001526040518263ffffffff167c0100000000000000000000000000000000000000000000000000000000028152600401808273ffffffffffffffffffffffffffffffffffffffff1673ffffffffffffffffffffffffffffffffffffffff168152602001915050602060405180830381600087803b151561180b57600080fd5b6102c65a03f1151561181c57600080fd5b50505060405180519050905080156118655761184383600f54611e5090919063ffffffff16565b600f8190555061185e82601054611e5090919063ffffffff16565b6010819055505b7f5ddba39597909531f681f30fb5a259665fbcd0085603a50dd7080e9c60f8f98c338383604051808473ffffffffffffffffffffffffffffffffffffffff1673ffffffffffffffffffffffffffffffffffffffff16815260200183815260200182151515158152602001935050505060405180910390a1505050565b6000600e546010541015905090565b600c5481565b60095481565b60055481565b6000809054906101000a900473ffffffffffffffffffffffffffffffffffffffff1673ffffffffffffffffffffffffffffffffffffffff163373ffffffffffffffffffffffffffffffffffffffff1614151561195d57600080fd5b600260009054906101000a900473ffffffffffffffffffffffffffffffffffffffff1673ffffffffffffffffffffffffffffffffffffffff166347ee0394826040518263ffffffff167c0100000000000000000000000000000000000000000000000000000000028152600401808273ffffffffffffffffffffffffffffffffffffffff1673ffffffffffffffffffffffffffffffffffffffff168152602001915050600060405180830381600087803b1515611a1957600080fd5b6102c65a03f11515611a2a57600080fd5b5050507faab7954e9d246b167ef88aeddad35209ca2489d95a8aeb59e288d9b19fae5a5481604051808273ffffffffffffffffffffffffffffffffffffffff1673ffffffffffffffffffffffffffffffffffffffff16815260200191505060405180910390a150565b60085481565b600b5481565b6000809054906101000a900473ffffffffffffffffffffffffffffffffffffffff1673ffffffffffffffffffffffffffffffffffffffff163373ffffffffffffffffffffffffffffffffffffffff16141515611afa57600080fd5b600073ffffffffffffffffffffffffffffffffffffffff168173ffffffffffffffffffffffffffffffffffffffff1614151515611b3657600080fd5b8073ffffffffffffffffffffffffffffffffffffffff166000809054906101000a900473ffffffffffffffffffffffffffffffffffffffff1673ffffffffffffffffffffffffffffffffffffffff167f8be0079c531659141344cd1fd0a4f28419497f9722a3daafe3b4186f6b6457e060405160405180910390a3806000806101000a81548173ffffffffffffffffffffffffffffffffffffffff021916908373ffffffffffffffffffffffffffffffffffffffff16021790555050565b6000809054906101000a900473ffffffffffffffffffffffffffffffffffffffff1673ffffffffffffffffffffffffffffffffffffffff163373ffffffffffffffffffffffffffffffffffffffff16141515611c4f57600080fd5b600260009054906101000a900473ffffffffffffffffffffffffffffffffffffffff1673ffffffffffffffffffffffffffffffffffffffff1663fa2dcd936040518163ffffffff167c0100000000000000000000000000000000000000000000000000000000028152600401600060405180830381600087803b1515611cd457600080fd5b6102c65a03f11515611ce557600080fd5b5050507f14ec60d0373c83ba77dc45414cae907fae75e119a6017990140d4c4aed95803b60405160405180910390a1565b60008060006003544210158015611d2f5750600a544211155b9150600c5434101590506003544210158015611d4c575060045442105b15611d5a57600d5434101590505b818015611d645750805b8015611d7c5750601160019054906101000a900460ff165b9250505090565b6000808284019050838110151515611d9757fe5b8091505092915050565b6000806000841415611db65760009150611dd5565b8284029050828482811515611dc757fe5b04141515611dd157fe5b8091505b5092915050565b6000600e54601054101515611e48576001601160006101000a81548160ff0219169083151502179055507ffbfd8ab7c24300fa9888cd721c8565a7da56759384781283684dcf7c7c4a846b6010546040518082815260200191505060405180910390a160019050611e4d565b600090505b90565b6000828211151515611e5e57fe5b8183039050929150505600a165627a7a72305820b4d451ddf39742f40593d227207dbdff830ea72427027e812f40af79e918afe60029",
  "source": "pragma solidity ^0.4.18;\r\n\r\nimport \"./math/SafeMath.sol\";\r\nimport \"./ownership/Ownable.sol\";\r\nimport \"./RefundVault.sol\";\r\n//import \"./GStarToken.sol\";\r\n\r\n/**\r\n * @title GStarCrowdsale\r\n * @dev This contract manages the crowdsale of GStar Tokens.\r\n * The crowdsale will involve eight key timings - Start time, end time,\r\n * and the start time of each six phases. In each phase, token buyers\r\n * will receive different bonuses - The earlier the purchase, the larger\r\n * the bonuses.\r\n * Funds collected are forwarded to a RefundVault as they arrive.\r\n * Buyers can claim their tokens or refund from this crowdsale contract,\r\n * which will then access the RefundVault contract.\r\n * There is only one owner at any one time. The owner can stop or start\r\n * the crowdsale at anytime.\r\n */\r\ncontract GStarCrowdsale is Ownable {\r\n    using SafeMath for uint256;\r\n\r\n    // The address of the GStar Token contract deployed.\r\n    GStarToken public gStarToken;\r\n    RefundVault public refundVault;\r\n\r\n    // Start and end timestamps where investments are allowed (both inclusive)\r\n    // All timestamps are expressed in seconds instead of block number.\r\n    uint256 public startTime = 1520060000;\r\n    uint256 public phaseOne = 1521060000;\r\n    uint256 public phaseTwo = 1522060000;\r\n    uint256 public phaseThree = 1523060000;\r\n    uint256 public phaseFour = 1524060000;\r\n    uint256 public phaseFive = 1525060000;\r\n    uint256 public phaseSix = 1526060000;\r\n    uint256 public endTime = 1528060000;\r\n\r\n    // The base rate the buyer gets for each ETH invested.\r\n    // This rate is exclusive of any bonuses.\r\n    uint256 public GSTAR_PER_ETH = 10000;\r\n\r\n    // Parameters for this crowdsale.\r\n    uint256 public MINIMUM_PURCHASE_AMOUNT_IN_WEI = 10**17; // the minimum of ETH that buyer can purchase is 0.1ETH\r\n    uint256 public PRE_ICO_MINIMUM_PURCHASE_AMOUNT_IN_WEI = 10**18; // the minimum of ETH that buyer can purchase during pre-ICO is 1ETH\r\n    uint256 public fundingGoal = 10 ether; //expressed in amount of Ether in Wei units\r\n    uint256 public tokensRaisedInWei = 0;\r\n    uint256 public etherRaisedInWei = 0;\r\n    bool fundingGoalReached = false;\r\n    bool crowdsaleActive = false;\r\n\r\n    event TokenPurchase(address indexed purchaser, address indexed beneficiary, uint256 value, uint256 amount);\r\n    event GoalReached(uint256 totalEtherAmountRaised);\r\n    event OwnershipTransferred(address indexed previousOwner, address indexed newOwner);\r\n    event StartCrowdsale();\r\n    event StopCrowdsale();\r\n    event SettlementEnabled();\r\n    event SettlementEnded();\r\n    event RefundClaimed(address investor, uint256 etherWeiAmount, bool success);\r\n    event TokensClaimed(address investor, uint256 tokensWeiAmount);\r\n    event Whitelisted(address beneficiary);\r\n    event Delisted(address beneficiary);\r\n    event AddedMultipleToWhitelist(address[] beneficiaries);\r\n    event BulkWhitelistAndReleaseTokens(address[] beneficiaries);\r\n\r\n\r\n    /**\r\n    * @dev Constructor function. Checks validity of the time entered, sets owner,\r\n    * and creates new RefundVault.\r\n    * @param deployedGStar The address of the GStarToken this contract crowdsells.\r\n    */\r\n    function GStarCrowdsale(address deployedGStar, address deployedRefundVault) public {\r\n        require(startTime < phaseOne);\r\n        require(phaseOne < phaseTwo);\r\n        require(phaseTwo < phaseThree);\r\n        require(phaseThree < phaseFour);\r\n        require(phaseFour < phaseFive);\r\n        require(phaseFive < phaseSix);\r\n        require(phaseSix < endTime);\r\n        require(deployedGStar != address(0));\r\n        require(deployedRefundVault != address(0));\r\n\r\n        require(fundingGoal > 0);\r\n\r\n        owner = msg.sender;\r\n        gStarToken = GStarToken(deployedGStar);\r\n        refundVault = RefundVault(deployedRefundVault);\r\n    }\r\n\r\n    /**\r\n    * @dev Fallback function can be used to buy tokens when crowdsale is active.\r\n    */\r\n    function () public payable {\r\n        require(crowdsaleActive);\r\n        buyTokens(msg.sender);\r\n    }\r\n\r\n    /**\r\n    * @dev Actual buy tokens function. Buyers are restricted to only buy tokens for themselves.\r\n    * @param beneficiary The address that receives the tokens purchased.\r\n    */\r\n    function buyTokens(address beneficiary) public payable {\r\n        require(beneficiary != address(0));\r\n        require(msg.sender == beneficiary);\r\n        require(validPurchase());\r\n\r\n        // throws if this purchase exceed funding goal\r\n        uint256 weiAmount = msg.value;\r\n        require(weiAmount.add(etherRaisedInWei) <= fundingGoal);\r\n\r\n        // calculate total token amount purchased, bonus included\r\n        uint256 tokens = getRate().mul(weiAmount);\r\n\r\n        // update state\r\n        etherRaisedInWei = etherRaisedInWei.add(weiAmount);\r\n        tokensRaisedInWei = tokensRaisedInWei.add(tokens);\r\n\r\n        // forward ETH amount to RefundVault\r\n        refundVault.deposit.value(msg.value)(msg.sender, tokens);\r\n\r\n        TokenPurchase(msg.sender, beneficiary, weiAmount, tokens);\r\n\r\n        // checks and update fundingGoal\r\n        updateFundingGoal();\r\n    }\r\n\r\n    /**\r\n    * @dev Calculates the token amount per ether based on the time now.\r\n    * Returns rate of amount of GSTAR per Ether as of current time.\r\n    */\r\n    function getRate() public view returns (uint256) {\r\n        //calculate bonus based on phases\r\n        if(now >= startTime && now < phaseOne) {return 12000;}\r\n        else if(now >= phaseOne && now < phaseTwo) {return 11500;}\r\n        else if(now >= phaseTwo && now < phaseThree) {return 11200;}\r\n        else if(now >= phaseThree && now < phaseFour) {return 10800;}\r\n        else if(now >= phaseFour && now < phaseFive) {return 10400;}\r\n        else if(now >= phaseFive && now < phaseSix) {return 10200;}\r\n        else if(now >= phaseSix && now < endTime) {return 10000;}\r\n\r\n        return GSTAR_PER_ETH;\r\n    }\r\n\r\n    /**\r\n    * @dev Checks and updates fundingGoal status.\r\n    * Returns true if funding goal is reached.\r\n    */\r\n    function updateFundingGoal() internal returns (bool) {\r\n        if(etherRaisedInWei >= fundingGoal){\r\n            fundingGoalReached = true;\r\n            GoalReached(etherRaisedInWei);\r\n            return true;\r\n        } else {\r\n            return false;\r\n        }\r\n    }\r\n\r\n    /**\r\n    * @dev Checks whether the cap has been reached.\r\n    * Returns true if funding goal is reached.\r\n    */\r\n    function isFundingGoalReached() public view returns (bool) {\r\n        return etherRaisedInWei >= fundingGoal;\r\n    }\r\n\r\n    /**\r\n    * @dev Displays if crowdsale is active.\r\n    * Returns true if crowdsale is active.\r\n    */\r\n    function isCrowdsaleActive() public view returns (bool) {\r\n        return crowdsaleActive;\r\n    }\r\n\r\n\r\n    /**\r\n    * @dev Checks if purchase is made within crowdsale period.\r\n    * Checks if purchase is non-zero.\r\n    * Checks if purchase is higher or equal to minimum amount.\r\n    * The minimum purchase amount for Pre-ICO is different from ICO.\r\n    * @return Returns true if purchase meets all requirements.\r\n    */\r\n    function validPurchase() internal view returns (bool) {\r\n        bool withinPeriod = now >= startTime && now <= endTime;\r\n        bool atLeastMinimumAmount = msg.value >= MINIMUM_PURCHASE_AMOUNT_IN_WEI;\r\n\r\n        if(now >= startTime && now < phaseOne) {\r\n            atLeastMinimumAmount = msg.value >= PRE_ICO_MINIMUM_PURCHASE_AMOUNT_IN_WEI;\r\n        }\r\n        return withinPeriod && atLeastMinimumAmount && crowdsaleActive;\r\n    }\r\n\r\n    /**\r\n    * @dev Allows owner to start/unpause crowdsale.\r\n    */\r\n    function startCrowdsale() public onlyOwner {\r\n        require(!crowdsaleActive);\r\n        crowdsaleActive = true;\r\n        StartCrowdsale();\r\n    }\r\n\r\n    /**\r\n    * @dev Allows owner to stop/pause crowdsale.\r\n    */\r\n    function stopCrowdsale() public onlyOwner {\r\n        require(crowdsaleActive);\r\n        crowdsaleActive = false;\r\n        StopCrowdsale();\r\n    }\r\n\r\n    /**\r\n    * @dev Allows buyers to claim their tokens after the purchase.\r\n    * Buyers have to claim their tokens with the wallet address they used to send ether.\r\n    */\r\n    function claimTokens() public {\r\n\r\n        uint256 tokensAmount = refundVault.tokensDeposited(msg.sender);\r\n        refundVault.claimTokens(msg.sender);\r\n        TokensClaimed(msg.sender, tokensAmount);\r\n    }\r\n\r\n    /**\r\n    * @dev Allows buyers to claim refund after the purchase.\r\n    * Buyers have to claim refund with the wallet address they used to send ether.\r\n    */\r\n    function claimRefund() public {\r\n\r\n        uint256 tokenAmount = refundVault.tokensDeposited(msg.sender);\r\n        uint256 refundAmount = refundVault.etherDeposited(msg.sender);\r\n        bool refundStatus = refundVault.refund(msg.sender);\r\n\r\n        if(refundStatus) {\r\n            tokensRaisedInWei = tokensRaisedInWei.sub(tokenAmount);\r\n            etherRaisedInWei = etherRaisedInWei.sub(refundAmount);\r\n        }\r\n        RefundClaimed(msg.sender, refundAmount, refundStatus);\r\n    }\r\n\r\n\r\n    /**\r\n    * @dev Allows owner to enable refund and release of tokens.\r\n    * Once settlement is enabled, no further purchase of tokens is possible.\r\n    */\r\n    function enableSettlement() public onlyOwner {\r\n        refundVault.enableSettlement();\r\n        crowdsaleActive = false;\r\n        SettlementEnabled();\r\n    }\r\n\r\n    /**\r\n    * @dev Allows owner to end settlement.\r\n    * Upon ending, ether in the refund vault will be sent to the wallet.\r\n    * Settlement can only be ended once and is not revertible.\r\n    */\r\n    function endSettlement() public onlyOwner {\r\n        refundVault.endSettlement();\r\n        SettlementEnded();\r\n    }\r\n\r\n    /**\r\n    * @dev Allows owner to add buyers to whitelist upon confirmation.\r\n    * @param beneficiary Address to whitelist.\r\n    */\r\n    function addToWhitelist(address beneficiary) public onlyOwner {\r\n        refundVault.addToWhiteList(beneficiary);\r\n        Whitelisted(beneficiary);\r\n    }\r\n\r\n    /**\r\n    * @dev Allows owner to remove buyers from whitelist.\r\n    * @param beneficiary Address to remove from whitelist.\r\n    */\r\n    function removeFromWhitelist(address beneficiary) public onlyOwner {\r\n        refundVault.removeFromWhitelist(beneficiary);\r\n        Delisted(beneficiary);\r\n    }\r\n\r\n    /**\r\n    * @dev Allows owner to add multiple addresses to whitelist.\r\n    * @param beneficiaries Array of addresses to add to whitelist.\r\n    */\r\n    function addManyToWhitelist(address[] beneficiaries) public onlyOwner {\r\n        refundVault.addManyToWhitelist(beneficiaries);\r\n        AddedMultipleToWhitelist(beneficiaries);\r\n    }\r\n\r\n    /**\r\n    * @dev Allows owner to add multiple addresses to whitelist and release tokens.\r\n    * @param beneficiaries Array of addresses to be added to whitelist and release tokens to.\r\n    */\r\n    function whitelistAndReleaseTokens(address[] beneficiaries) public onlyOwner {\r\n        refundVault.whitelistAndReleaseTokens(beneficiaries);\r\n        BulkWhitelistAndReleaseTokens(beneficiaries);\r\n    }\r\n }\r\n",
  "sourcePath": "C:\\GStarCrowdsale\\contracts\\GStarCrowdsale.sol",
  "compiler": {
    "name": "solc",
    "version": "0.4.19+commit.c4cbbb05.Emscripten.clang"
  },
  "schemaVersion": "2.0.0",
  "updatedAt": "2018-03-05T14:08:21.243Z"
}