{
  "contractName": "GStarCrowdsale",
  "abi": [
    {
      "constant": true,
      "inputs": [],
      "name": "PRE_ICO_MINIMUM_PURCHASE_AMOUNT_IN_WEI",
      "outputs": [
        {
          "name": "",
          "type": "uint256"
        }
      ],
      "payable": false,
      "stateMutability": "view",
      "type": "function"
    },
    {
      "constant": true,
      "inputs": [],
      "name": "crowdsaleActive",
      "outputs": [
        {
          "name": "",
          "type": "bool"
        }
      ],
      "payable": false,
      "stateMutability": "view",
      "type": "function"
    },
    {
      "constant": true,
      "inputs": [],
      "name": "phaseFour",
      "outputs": [
        {
          "name": "",
          "type": "uint256"
        }
      ],
      "payable": false,
      "stateMutability": "view",
      "type": "function"
    },
    {
      "constant": true,
      "inputs": [],
      "name": "rate",
      "outputs": [
        {
          "name": "",
          "type": "uint256"
        }
      ],
      "payable": false,
      "stateMutability": "view",
      "type": "function"
    },
    {
      "constant": true,
      "inputs": [],
      "name": "endTime",
      "outputs": [
        {
          "name": "",
          "type": "uint256"
        }
      ],
      "payable": false,
      "stateMutability": "view",
      "type": "function"
    },
    {
      "constant": true,
      "inputs": [],
      "name": "phaseThree",
      "outputs": [
        {
          "name": "",
          "type": "uint256"
        }
      ],
      "payable": false,
      "stateMutability": "view",
      "type": "function"
    },
    {
      "constant": true,
      "inputs": [],
      "name": "weiRaised",
      "outputs": [
        {
          "name": "",
          "type": "uint256"
        }
      ],
      "payable": false,
      "stateMutability": "view",
      "type": "function"
    },
    {
      "constant": true,
      "inputs": [],
      "name": "wallet",
      "outputs": [
        {
          "name": "",
          "type": "address"
        }
      ],
      "payable": false,
      "stateMutability": "view",
      "type": "function"
    },
    {
      "constant": true,
      "inputs": [],
      "name": "tokensReleasedAmount",
      "outputs": [
        {
          "name": "",
          "type": "uint256"
        }
      ],
      "payable": false,
      "stateMutability": "view",
      "type": "function"
    },
    {
      "constant": true,
      "inputs": [],
      "name": "startTime",
      "outputs": [
        {
          "name": "",
          "type": "uint256"
        }
      ],
      "payable": false,
      "stateMutability": "view",
      "type": "function"
    },
    {
      "constant": true,
      "inputs": [],
      "name": "fundingGoal",
      "outputs": [
        {
          "name": "",
          "type": "uint256"
        }
      ],
      "payable": false,
      "stateMutability": "view",
      "type": "function"
    },
    {
      "constant": false,
      "inputs": [
        {
          "name": "_beneficiary",
          "type": "address"
        }
      ],
      "name": "removeFromWhitelist",
      "outputs": [],
      "payable": false,
      "stateMutability": "nonpayable",
      "type": "function"
    },
    {
      "constant": false,
      "inputs": [
        {
          "name": "_beneficiaries",
          "type": "address[]"
        }
      ],
      "name": "addManyToWhitelist",
      "outputs": [],
      "payable": false,
      "stateMutability": "nonpayable",
      "type": "function"
    },
    {
      "constant": true,
      "inputs": [],
      "name": "owner",
      "outputs": [
        {
          "name": "",
          "type": "address"
        }
      ],
      "payable": false,
      "stateMutability": "view",
      "type": "function"
    },
    {
      "constant": true,
      "inputs": [],
      "name": "phaseOne",
      "outputs": [
        {
          "name": "",
          "type": "uint256"
        }
      ],
      "payable": false,
      "stateMutability": "view",
      "type": "function"
    },
    {
      "constant": true,
      "inputs": [
        {
          "name": "",
          "type": "address"
        }
      ],
      "name": "whitelist",
      "outputs": [
        {
          "name": "",
          "type": "bool"
        }
      ],
      "payable": false,
      "stateMutability": "view",
      "type": "function"
    },
    {
      "constant": true,
      "inputs": [],
      "name": "canTokenRelease",
      "outputs": [
        {
          "name": "",
          "type": "bool"
        }
      ],
      "payable": false,
      "stateMutability": "view",
      "type": "function"
    },
    {
      "constant": true,
      "inputs": [
        {
          "name": "",
          "type": "address"
        }
      ],
      "name": "depositedTokens",
      "outputs": [
        {
          "name": "",
          "type": "uint256"
        }
      ],
      "payable": false,
      "stateMutability": "view",
      "type": "function"
    },
    {
      "constant": true,
      "inputs": [],
      "name": "fundingGoalReached",
      "outputs": [
        {
          "name": "",
          "type": "bool"
        }
      ],
      "payable": false,
      "stateMutability": "view",
      "type": "function"
    },
    {
      "constant": true,
      "inputs": [],
      "name": "MINIMUM_PURCHASE_AMOUNT_IN_WEI",
      "outputs": [
        {
          "name": "",
          "type": "uint256"
        }
      ],
      "payable": false,
      "stateMutability": "view",
      "type": "function"
    },
    {
      "constant": true,
      "inputs": [],
      "name": "phaseSix",
      "outputs": [
        {
          "name": "",
          "type": "uint256"
        }
      ],
      "payable": false,
      "stateMutability": "view",
      "type": "function"
    },
    {
      "constant": true,
      "inputs": [],
      "name": "phaseTwo",
      "outputs": [
        {
          "name": "",
          "type": "uint256"
        }
      ],
      "payable": false,
      "stateMutability": "view",
      "type": "function"
    },
    {
      "constant": true,
      "inputs": [],
      "name": "tokensWeiRaised",
      "outputs": [
        {
          "name": "",
          "type": "uint256"
        }
      ],
      "payable": false,
      "stateMutability": "view",
      "type": "function"
    },
    {
      "constant": false,
      "inputs": [
        {
          "name": "_beneficiary",
          "type": "address"
        }
      ],
      "name": "addToWhitelist",
      "outputs": [],
      "payable": false,
      "stateMutability": "nonpayable",
      "type": "function"
    },
    {
      "constant": true,
      "inputs": [],
      "name": "phaseFive",
      "outputs": [
        {
          "name": "",
          "type": "uint256"
        }
      ],
      "payable": false,
      "stateMutability": "view",
      "type": "function"
    },
    {
      "constant": false,
      "inputs": [
        {
          "name": "_beneficiary",
          "type": "address"
        }
      ],
      "name": "buyTokens",
      "outputs": [],
      "payable": true,
      "stateMutability": "payable",
      "type": "function"
    },
    {
      "constant": false,
      "inputs": [
        {
          "name": "newOwner",
          "type": "address"
        }
      ],
      "name": "transferOwnership",
      "outputs": [],
      "payable": false,
      "stateMutability": "nonpayable",
      "type": "function"
    },
    {
      "constant": true,
      "inputs": [],
      "name": "token",
      "outputs": [
        {
          "name": "",
          "type": "address"
        }
      ],
      "payable": false,
      "stateMutability": "view",
      "type": "function"
    },
    {
      "inputs": [
        {
          "name": "_rate",
          "type": "uint256"
        },
        {
          "name": "_wallet",
          "type": "address"
        },
        {
          "name": "token",
          "type": "address"
        }
      ],
      "payable": false,
      "stateMutability": "nonpayable",
      "type": "constructor"
    },
    {
      "payable": true,
      "stateMutability": "payable",
      "type": "fallback"
    },
    {
      "anonymous": false,
      "inputs": [
        {
          "indexed": true,
          "name": "purchaser",
          "type": "address"
        },
        {
          "indexed": true,
          "name": "beneficiary",
          "type": "address"
        },
        {
          "indexed": false,
          "name": "value",
          "type": "uint256"
        },
        {
          "indexed": false,
          "name": "amount",
          "type": "uint256"
        }
      ],
      "name": "TokenPurchase",
      "type": "event"
    },
    {
      "anonymous": false,
      "inputs": [
        {
          "indexed": false,
          "name": "totalEtherAmountRaised",
          "type": "uint256"
        }
      ],
      "name": "GoalReached",
      "type": "event"
    },
    {
      "anonymous": false,
      "inputs": [],
      "name": "StartCrowdsale",
      "type": "event"
    },
    {
      "anonymous": false,
      "inputs": [],
      "name": "StopCrowdsale",
      "type": "event"
    },
    {
      "anonymous": false,
      "inputs": [],
      "name": "SettlementEnabled",
      "type": "event"
    },
    {
      "anonymous": false,
      "inputs": [],
      "name": "SettlementEnded",
      "type": "event"
    },
    {
      "anonymous": false,
      "inputs": [],
      "name": "TokenReleaseEnabled",
      "type": "event"
    },
    {
      "anonymous": false,
      "inputs": [],
      "name": "TokenReleaseDisabled",
      "type": "event"
    },
    {
      "anonymous": false,
      "inputs": [
        {
          "indexed": false,
          "name": "_beneficiaries",
          "type": "address[]"
        }
      ],
      "name": "ReleaseTokens",
      "type": "event"
    },
    {
      "anonymous": false,
      "inputs": [],
      "name": "Close",
      "type": "event"
    },
    {
      "anonymous": false,
      "inputs": [
        {
          "indexed": true,
          "name": "previousOwner",
          "type": "address"
        },
        {
          "indexed": true,
          "name": "newOwner",
          "type": "address"
        }
      ],
      "name": "OwnershipTransferred",
      "type": "event"
    },
    {
      "constant": true,
      "inputs": [],
      "name": "getRate",
      "outputs": [
        {
          "name": "",
          "type": "uint256"
        }
      ],
      "payable": false,
      "stateMutability": "view",
      "type": "function"
    },
    {
      "constant": false,
      "inputs": [
        {
          "name": "etherWeiAmount",
          "type": "uint256"
        }
      ],
      "name": "changePrivateContribution",
      "outputs": [],
      "payable": false,
      "stateMutability": "nonpayable",
      "type": "function"
    },
    {
      "constant": false,
      "inputs": [],
      "name": "startCrowdsale",
      "outputs": [],
      "payable": false,
      "stateMutability": "nonpayable",
      "type": "function"
    },
    {
      "constant": false,
      "inputs": [],
      "name": "stopCrowdsale",
      "outputs": [],
      "payable": false,
      "stateMutability": "nonpayable",
      "type": "function"
    },
    {
      "constant": false,
      "inputs": [],
      "name": "enableTokenRelease",
      "outputs": [],
      "payable": false,
      "stateMutability": "nonpayable",
      "type": "function"
    },
    {
      "constant": false,
      "inputs": [],
      "name": "disableTokenRelease",
      "outputs": [],
      "payable": false,
      "stateMutability": "nonpayable",
      "type": "function"
    },
    {
      "constant": false,
      "inputs": [
        {
          "name": "contributors",
          "type": "address[]"
        }
      ],
      "name": "releaseTokens",
      "outputs": [],
      "payable": false,
      "stateMutability": "nonpayable",
      "type": "function"
    },
    {
      "constant": false,
      "inputs": [],
      "name": "close",
      "outputs": [],
      "payable": false,
      "stateMutability": "nonpayable",
      "type": "function"
    }
  ],
  "bytecode": "0x6060604052635a9a4660600655635aa988a0600755635ab8cae0600855635ac80d20600955635ad74f60600a55635ae691a0600b55635af5d3e0600c55635b145860600d5567016345785d8a0000600f55670de0b6b3a7640000601055600060115569080bfbefcb5f0bc000006012556000601360006101000a81548160ff02191690831515021790555060006014556000601560006101000a81548160ff0219169083151502179055506000601560016101000a81548160ff02191690831515021790555060006016553415620000d657600080fd5b60405160608062001fe9833981016040528080519060200190919080519060200190919080519060200190919050508282826000831115156200011857600080fd5b600073ffffffffffffffffffffffffffffffffffffffff168273ffffffffffffffffffffffffffffffffffffffff16141515156200015557600080fd5b600073ffffffffffffffffffffffffffffffffffffffff168173ffffffffffffffffffffffffffffffffffffffff16141515156200019257600080fd5b8260028190555081600160006101000a81548173ffffffffffffffffffffffffffffffffffffffff021916908373ffffffffffffffffffffffffffffffffffffffff160217905550806000806101000a81548173ffffffffffffffffffffffffffffffffffffffff021916908373ffffffffffffffffffffffffffffffffffffffff16021790555050505033600460006101000a81548173ffffffffffffffffffffffffffffffffffffffff021916908373ffffffffffffffffffffffffffffffffffffffff1602179055506007546006541015156200027157600080fd5b6008546007541015156200028457600080fd5b6009546008541015156200029757600080fd5b600a54600954101515620002aa57600080fd5b600b54600a54101515620002bd57600080fd5b600c54600b54101515620002d057600080fd5b600d54600c54101515620002e357600080fd5b6000601254111515620002f557600080fd5b505050611ce180620003086000396000f3006060604052600436106101c2576000357c0100000000000000000000000000000000000000000000000000000000900463ffffffff16806309e13d9b146101cd5780630b87cf10146101f65780632a920456146102235780632c4e722e1461024c5780633197cbb614610275578063391fce3c1461029e5780634042b66f146102c757806343d726d6146102f0578063507d595414610305578063521eb2731461031a5780636686e1741461036f578063679aefce146103985780636d9634b7146103c157806378e97925146103ef5780637a3a0e84146104185780638ab1d681146104415780638c10671c1461047a5780638da5cb5b146104a857806390369001146104fd5780639b19251a14610526578063a39953b214610577578063b4fff0c61461058c578063c326bf4f146105b9578063d424f62814610606578063d4d90bd514610633578063d5adee8c1461065c578063de1234b014610685578063e11f02d71461069a578063e2496d5b146106c3578063e43252d7146106ec578063e4a749d614610725578063ec8ac4d81461074e578063f1f82cc71461077c578063f2fde38b14610791578063fc0c546a146107ca578063fd3f2f661461081f575b6101cb33610842565b005b34156101d857600080fd5b6101e0610906565b6040518082815260200191505060405180910390f35b341561020157600080fd5b61020961090c565b604051808215151515815260200191505060405180910390f35b341561022e57600080fd5b61023661091f565b6040518082815260200191505060405180910390f35b341561025757600080fd5b61025f610925565b6040518082815260200191505060405180910390f35b341561028057600080fd5b61028861092b565b6040518082815260200191505060405180910390f35b34156102a957600080fd5b6102b1610931565b6040518082815260200191505060405180910390f35b34156102d257600080fd5b6102da610937565b6040518082815260200191505060405180910390f35b34156102fb57600080fd5b61030361093d565b005b341561031057600080fd5b610318610be5565b005b341561032557600080fd5b61032d610ca5565b604051808273ffffffffffffffffffffffffffffffffffffffff1673ffffffffffffffffffffffffffffffffffffffff16815260200191505060405180910390f35b341561037a57600080fd5b610382610ccb565b6040518082815260200191505060405180910390f35b34156103a357600080fd5b6103ab610cd1565b6040518082815260200191505060405180910390f35b34156103cc57600080fd5b6103ed60048080359060200190820180359060200191909192905050610dca565b005b34156103fa57600080fd5b610402611063565b6040518082815260200191505060405180910390f35b341561042357600080fd5b61042b611069565b6040518082815260200191505060405180910390f35b341561044c57600080fd5b610478600480803573ffffffffffffffffffffffffffffffffffffffff1690602001909190505061106f565b005b341561048557600080fd5b6104a660048080359060200190820180359060200191909192905050611126565b005b34156104b357600080fd5b6104bb611228565b604051808273ffffffffffffffffffffffffffffffffffffffff1673ffffffffffffffffffffffffffffffffffffffff16815260200191505060405180910390f35b341561050857600080fd5b61051061124e565b6040518082815260200191505060405180910390f35b341561053157600080fd5b61055d600480803573ffffffffffffffffffffffffffffffffffffffff16906020019091905050611254565b604051808215151515815260200191505060405180910390f35b341561058257600080fd5b61058a611274565b005b341561059757600080fd5b61059f611335565b604051808215151515815260200191505060405180910390f35b34156105c457600080fd5b6105f0600480803573ffffffffffffffffffffffffffffffffffffffff16906020019091905050611348565b6040518082815260200191505060405180910390f35b341561061157600080fd5b610619611360565b604051808215151515815260200191505060405180910390f35b341561063e57600080fd5b610646611373565b6040518082815260200191505060405180910390f35b341561066757600080fd5b61066f611379565b6040518082815260200191505060405180910390f35b341561069057600080fd5b61069861137f565b005b34156106a557600080fd5b6106ad61143f565b6040518082815260200191505060405180910390f35b34156106ce57600080fd5b6106d6611445565b6040518082815260200191505060405180910390f35b34156106f757600080fd5b610723600480803573ffffffffffffffffffffffffffffffffffffffff1690602001909190505061144b565b005b341561073057600080fd5b610738611502565b6040518082815260200191505060405180910390f35b61077a600480803573ffffffffffffffffffffffffffffffffffffffff16906020019091905050610842565b005b341561078757600080fd5b61078f611508565b005b341561079c57600080fd5b6107c8600480803573ffffffffffffffffffffffffffffffffffffffff169060200190919050506115c9565b005b34156107d557600080fd5b6107dd611721565b604051808273ffffffffffffffffffffffffffffffffffffffff1673ffffffffffffffffffffffffffffffffffffffff16815260200191505060405180910390f35b341561082a57600080fd5b6108406004808035906020019091905050611746565b005b60008034915061085283836117ab565b61085b826118fd565b90506108728260035461192090919063ffffffff16565b6003819055508273ffffffffffffffffffffffffffffffffffffffff163373ffffffffffffffffffffffffffffffffffffffff167f623b3804fa71d67900d064613da8f94b9617215ee90799290593e1745087ad188484604051808381526020018281526020019250505060405180910390a36108ef838361193e565b6108f761196d565b61090183836119d1565b505050565b60105481565b601560009054906101000a900460ff1681565b600a5481565b60025481565b600d5481565b60095481565b60035481565b600460009054906101000a900473ffffffffffffffffffffffffffffffffffffffff1673ffffffffffffffffffffffffffffffffffffffff163373ffffffffffffffffffffffffffffffffffffffff1614151561099957600080fd5b6000601560006101000a81548160ff0219169083151502179055506000601560016101000a81548160ff0219169083151502179055506000809054906101000a900473ffffffffffffffffffffffffffffffffffffffff1673ffffffffffffffffffffffffffffffffffffffff1663a9059cbb600460009054906101000a900473ffffffffffffffffffffffffffffffffffffffff166000809054906101000a900473ffffffffffffffffffffffffffffffffffffffff1673ffffffffffffffffffffffffffffffffffffffff166370a08231306000604051602001526040518263ffffffff167c0100000000000000000000000000000000000000000000000000000000028152600401808273ffffffffffffffffffffffffffffffffffffffff1673ffffffffffffffffffffffffffffffffffffffff168152602001915050602060405180830381600087803b1515610af357600080fd5b6102c65a03f11515610b0457600080fd5b505050604051805190506000604051602001526040518363ffffffff167c0100000000000000000000000000000000000000000000000000000000028152600401808373ffffffffffffffffffffffffffffffffffffffff1673ffffffffffffffffffffffffffffffffffffffff16815260200182815260200192505050602060405180830381600087803b1515610b9b57600080fd5b6102c65a03f11515610bac57600080fd5b50505060405180519050507fc35789ccff76271dc0efa6bfde2f4d4a32cd48dd86278f75f8648cb068c86e3b60405160405180910390a1565b600460009054906101000a900473ffffffffffffffffffffffffffffffffffffffff1673ffffffffffffffffffffffffffffffffffffffff163373ffffffffffffffffffffffffffffffffffffffff16141515610c4157600080fd5b601560009054906101000a900460ff161515610c5c57600080fd5b6000601560006101000a81548160ff0219169083151502179055507fe37426d4980e7bc40b6d3ce2bad8990c86960ca6767e7f643f48e1faccbb636f60405160405180910390a1565b600160009054906101000a900473ffffffffffffffffffffffffffffffffffffffff1681565b60165481565b60006006544210158015610ce6575060075442105b15610cf557612ee09050610dc7565b6007544210158015610d08575060085442105b15610d1757612cec9050610dc7565b6008544210158015610d2a575060095442105b15610d3957612bc09050610dc7565b6009544210158015610d4c5750600a5442105b15610d5b57612a309050610dc7565b600a544210158015610d6e5750600b5442105b15610d7d576128a09050610dc7565b600b544210158015610d905750600c5442105b15610d9f576127d89050610dc7565b600c544210158015610db25750600d5442105b15610dc1576127109050610dc7565b60025490505b90565b600080600460009054906101000a900473ffffffffffffffffffffffffffffffffffffffff1673ffffffffffffffffffffffffffffffffffffffff163373ffffffffffffffffffffffffffffffffffffffff16141515610e2957600080fd5b600091505b8383905082101561105d57600e60008585858181101515610e4b57fe5b9050602002013573ffffffffffffffffffffffffffffffffffffffff1673ffffffffffffffffffffffffffffffffffffffff1673ffffffffffffffffffffffffffffffffffffffff168152602001908152602001600020549050806000809054906101000a900473ffffffffffffffffffffffffffffffffffffffff1673ffffffffffffffffffffffffffffffffffffffff166370a08231306000604051602001526040518263ffffffff167c0100000000000000000000000000000000000000000000000000000000028152600401808273ffffffffffffffffffffffffffffffffffffffff1673ffffffffffffffffffffffffffffffffffffffff168152602001915050602060405180830381600087803b1515610f6a57600080fd5b6102c65a03f11515610f7b57600080fd5b5050506040518051905010151515610f9257600080fd5b610fc68484848181101515610fa357fe5b9050602002013573ffffffffffffffffffffffffffffffffffffffff1682611a72565b6000600e60008686868181101515610fda57fe5b9050602002013573ffffffffffffffffffffffffffffffffffffffff1673ffffffffffffffffffffffffffffffffffffffff1673ffffffffffffffffffffffffffffffffffffffff1681526020019081526020016000208190555061104a8160165461192090919063ffffffff16565b6016819055508180600101925050610e2e565b50505050565b60065481565b60125481565b600460009054906101000a900473ffffffffffffffffffffffffffffffffffffffff1673ffffffffffffffffffffffffffffffffffffffff163373ffffffffffffffffffffffffffffffffffffffff161415156110cb57600080fd5b6000600560008373ffffffffffffffffffffffffffffffffffffffff1673ffffffffffffffffffffffffffffffffffffffff16815260200190815260200160002060006101000a81548160ff02191690831515021790555050565b6000600460009054906101000a900473ffffffffffffffffffffffffffffffffffffffff1673ffffffffffffffffffffffffffffffffffffffff163373ffffffffffffffffffffffffffffffffffffffff1614151561118457600080fd5b600090505b828290508110156112235760016005600085858581811015156111a857fe5b9050602002013573ffffffffffffffffffffffffffffffffffffffff1673ffffffffffffffffffffffffffffffffffffffff1673ffffffffffffffffffffffffffffffffffffffff16815260200190815260200160002060006101000a81548160ff0219169083151502179055508080600101915050611189565b505050565b600460009054906101000a900473ffffffffffffffffffffffffffffffffffffffff1681565b60075481565b60056020528060005260406000206000915054906101000a900460ff1681565b600460009054906101000a900473ffffffffffffffffffffffffffffffffffffffff1673ffffffffffffffffffffffffffffffffffffffff163373ffffffffffffffffffffffffffffffffffffffff161415156112d057600080fd5b601560009054906101000a900460ff161515156112ec57600080fd5b6001601560006101000a81548160ff0219169083151502179055507fc7a327262dbe9cd2bf3282d035e03d69a2b73561e7dcc74caa29f84ee3b9ab6d60405160405180910390a1565b601560019054906101000a900460ff1681565b600e6020528060005260406000206000915090505481565b601360009054906101000a900460ff1681565b600f5481565b600c5481565b600460009054906101000a900473ffffffffffffffffffffffffffffffffffffffff1673ffffffffffffffffffffffffffffffffffffffff163373ffffffffffffffffffffffffffffffffffffffff161415156113db57600080fd5b601560019054906101000a900460ff1615156113f657600080fd5b6000601560016101000a81548160ff0219169083151502179055507fea687f80397005450503feacab7739e47a991283b2d0d6cefe230f535409941260405160405180910390a1565b60085481565b60115481565b600460009054906101000a900473ffffffffffffffffffffffffffffffffffffffff1673ffffffffffffffffffffffffffffffffffffffff163373ffffffffffffffffffffffffffffffffffffffff161415156114a757600080fd5b6001600560008373ffffffffffffffffffffffffffffffffffffffff1673ffffffffffffffffffffffffffffffffffffffff16815260200190815260200160002060006101000a81548160ff02191690831515021790555050565b600b5481565b600460009054906101000a900473ffffffffffffffffffffffffffffffffffffffff1673ffffffffffffffffffffffffffffffffffffffff163373ffffffffffffffffffffffffffffffffffffffff1614151561156457600080fd5b601560019054906101000a900460ff1615151561158057600080fd5b6001601560016101000a81548160ff0219169083151502179055507f88ce60cc8f043c7da082a179a8df53662baac9b5e9c89ef20c113b81634f0fc160405160405180910390a1565b600460009054906101000a900473ffffffffffffffffffffffffffffffffffffffff1673ffffffffffffffffffffffffffffffffffffffff163373ffffffffffffffffffffffffffffffffffffffff1614151561162557600080fd5b600073ffffffffffffffffffffffffffffffffffffffff168173ffffffffffffffffffffffffffffffffffffffff161415151561166157600080fd5b8073ffffffffffffffffffffffffffffffffffffffff16600460009054906101000a900473ffffffffffffffffffffffffffffffffffffffff1673ffffffffffffffffffffffffffffffffffffffff167f8be0079c531659141344cd1fd0a4f28419497f9722a3daafe3b4186f6b6457e060405160405180910390a380600460006101000a81548173ffffffffffffffffffffffffffffffffffffffff021916908373ffffffffffffffffffffffffffffffffffffffff16021790555050565b6000809054906101000a900473ffffffffffffffffffffffffffffffffffffffff1681565b6000600460009054906101000a900473ffffffffffffffffffffffffffffffffffffffff1673ffffffffffffffffffffffffffffffffffffffff163373ffffffffffffffffffffffffffffffffffffffff161415156117a457600080fd5b8190505050565b60008083600560008273ffffffffffffffffffffffffffffffffffffffff1673ffffffffffffffffffffffffffffffffffffffff16815260200190815260200160002060009054906101000a900460ff16151561180757600080fd5b600654421015801561181b5750600d544211155b9250600f5484101591506006544210158015611838575060075442105b156118465760105484101591505b6118508585611b5e565b8473ffffffffffffffffffffffffffffffffffffffff163373ffffffffffffffffffffffffffffffffffffffff1614151561188a57600080fd5b6012546118b66014546118a86003548861192090919063ffffffff16565b61192090919063ffffffff16565b111515156118c357600080fd5b8215156118cf57600080fd5b8115156118db57600080fd5b601560009054906101000a900460ff1615156118f657600080fd5b5050505050565b600061191961190a610cd1565b83611bc690919063ffffffff16565b9050919050565b600080828401905083811015151561193457fe5b8091505092915050565b61195b61194a826118fd565b60115461192090919063ffffffff16565b601181905550611969611c01565b5050565b600160009054906101000a900473ffffffffffffffffffffffffffffffffffffffff1673ffffffffffffffffffffffffffffffffffffffff166108fc349081150290604051600060405180830381858888f1935050505015156119cf57600080fd5b565b611a2b6119dd826118fd565b600e60008573ffffffffffffffffffffffffffffffffffffffff1673ffffffffffffffffffffffffffffffffffffffff1681526020019081526020016000205461192090919063ffffffff16565b600e60008473ffffffffffffffffffffffffffffffffffffffff1673ffffffffffffffffffffffffffffffffffffffff168152602001908152602001600020819055505050565b6000809054906101000a900473ffffffffffffffffffffffffffffffffffffffff1673ffffffffffffffffffffffffffffffffffffffff1663a9059cbb83836000604051602001526040518363ffffffff167c0100000000000000000000000000000000000000000000000000000000028152600401808373ffffffffffffffffffffffffffffffffffffffff1673ffffffffffffffffffffffffffffffffffffffff16815260200182815260200192505050602060405180830381600087803b1515611b3e57600080fd5b6102c65a03f11515611b4f57600080fd5b50505060405180519050505050565b81600560008273ffffffffffffffffffffffffffffffffffffffff1673ffffffffffffffffffffffffffffffffffffffff16815260200190815260200160002060009054906101000a900460ff161515611bb757600080fd5b611bc18383611c65565b505050565b6000806000841415611bdb5760009150611bfa565b8284029050828482811515611bec57fe5b04141515611bf657fe5b8091505b5092915050565b601254600354101515611c63576001601360006101000a81548160ff0219169083151502179055507ffbfd8ab7c24300fa9888cd721c8565a7da56759384781283684dcf7c7c4a846b6003546040518082815260200191505060405180910390a15b565b600073ffffffffffffffffffffffffffffffffffffffff168273ffffffffffffffffffffffffffffffffffffffff1614151515611ca157600080fd5b60008114151515611cb157600080fd5b50505600a165627a7a7230582066a1e050ec29c47b4df0e5b47167561d696be092ee39e2fb03398024c3f1529c0029",
  "source": "pragma solidity ^0.4.18;\n\nimport \"./math/SafeMath.sol\";\nimport \"./ownership/Ownable.sol\";\nimport \"./crowdsale/Crowdsale.sol\";\nimport \"./crowdsale/validation/WhitelistedCrowdsale.sol\";\n\nimport \"./GStarToken.sol\";\n\n/**\n * @title GStarCrowdsale\n * @dev This contract manages the crowdsale of GStar Tokens.\n * The crowdsale will involve eight key timings - Start time, end time,\n * and the start time of each six phases. In each phase, token contributors\n * will receive different bonuses - The earlier the contribution, the larger the bonuses.\n * Tokens will be released to the contributors after the crowdsale.\n * There is only one owner at any one time. The owner can stop or start the crowdsale at anytime.\n */\ncontract GStarCrowdsale is WhitelistedCrowdsale {\n    using SafeMath for uint256;\n\n    // Start and end timestamps where contributions are allowed (both inclusive)\n    // All timestamps are expressed in seconds instead of block number.\n    uint256 public startTime = 1520060000;\n    uint256 public phaseOne = 1521060000;\n    uint256 public phaseTwo = 1522060000;\n    uint256 public phaseThree = 1523060000;\n    uint256 public phaseFour = 1524060000;\n    uint256 public phaseFive = 1525060000;\n    uint256 public phaseSix = 1526060000;\n    uint256 public endTime = 1528060000;\n\n    // Keeps track of contributors tokens\n    mapping (address => uint256) public depositedTokens;\n\n    // Minimum amount of ETH contribution during ICO and Pre-ICO period\n    // Minimum of ETH contributed during ICO is 0.1ETH\n    // Minimum of ETH contributed during pre-ICO is 1ETH\n    uint256 public MINIMUM_PURCHASE_AMOUNT_IN_WEI = 10**17;\n    uint256 public PRE_ICO_MINIMUM_PURCHASE_AMOUNT_IN_WEI = 1 ether;\n\n    // Total tokens raised so far, bonus inclusive\n    uint256 public tokensWeiRaised = 0;\n\n    //Funding goal is 38,000 ETH, includes private contributions\n    uint256 public fundingGoal = 38000 ether;\n    bool public fundingGoalReached = false;\n\n    //private contributions\n    uint256 privateContribution = 0;\n\n    // Indicates if crowdsale is active\n    bool public crowdsaleActive = false;\n\n    // Indicates if tokens can be released\n    bool public canTokenRelease = false;\n\n    uint256 public tokensReleasedAmount = 0;\n\n    event TokenPurchase(address indexed purchaser, address indexed beneficiary, uint256 value, uint256 amount);\n    event GoalReached(uint256 totalEtherAmountRaised);\n    event StartCrowdsale();\n    event StopCrowdsale();\n    event SettlementEnabled();\n    event SettlementEnded();\n    event TokenReleaseEnabled();\n    event TokenReleaseDisabled();\n    event ReleaseTokens(address[] _beneficiaries);\n    event Close();\n\n    /**\n    * @dev Constructor. Checks validity of the time entered.\n    */\n    function GStarCrowdsale(uint256 _rate, address _wallet, GStarToken token) public\n    Crowdsale(_rate, _wallet, token) {\n        require(startTime < phaseOne);\n        require(phaseOne < phaseTwo);\n        require(phaseTwo < phaseThree);\n        require(phaseThree < phaseFour);\n        require(phaseFour < phaseFive);\n        require(phaseFive < phaseSix);\n        require(phaseSix < endTime);\n\n        require(fundingGoal > 0);\n    }\n\n    /**\n    * @dev Overrides _preValidatePurchase function in Crowdsale.\n    * Requires purchase is made within crowdsale period.\n    * Requires contributor to be the beneficiary.\n    * Requires purchase value and address to be non-zero.\n    * Requires amount not to exceed funding goal.\n    * Requires purchase value to be higher or equal to minimum amount.\n    * Requires contributor to be whitelisted.\n    * The minimum purchase amount for Pre-ICO is different from ICO.\n    */\n    function _preValidatePurchase(address _beneficiary, uint256 _weiAmount) internal isWhitelisted(_beneficiary) {\n        bool withinPeriod = now >= startTime && now <= endTime;\n        bool atLeastMinimumAmount = _weiAmount >= MINIMUM_PURCHASE_AMOUNT_IN_WEI;\n\n        if(now >= startTime && now < phaseOne) {\n            atLeastMinimumAmount = _weiAmount >= PRE_ICO_MINIMUM_PURCHASE_AMOUNT_IN_WEI;\n        }\n        super._preValidatePurchase(_beneficiary, _weiAmount);\n        require(msg.sender == _beneficiary);\n        require(_weiAmount.add(weiRaised).add(privateContribution) <= fundingGoal);\n        require(withinPeriod);\n        require(atLeastMinimumAmount);\n        require(crowdsaleActive);\n    }\n\n    /**\n    * @dev Overrides _getTokenAmount function in Crowdsale.\n    * Calculates token amount, inclusive of bonus, based on ETH contributed.\n    * @param _weiAmount Value in wei to be converted into tokens\n    * @return Number of tokens that can be purchased with the specified _weiAmount\n    */\n    function _getTokenAmount(uint256 _weiAmount) internal view returns (uint256) {\n        return _weiAmount.mul(getRate());\n    }\n\n    /**\n    * @dev Calculates the token amount per ETH contributed based on the time now.\n    * @return Rate of amount of GSTAR per Ether as of current time.\n    */\n    function getRate() public view returns (uint256) {\n        //calculate bonus based on phases\n        if(now >= startTime && now < phaseOne) {return 12000;}\n        else if(now >= phaseOne && now < phaseTwo) {return 11500;}\n        else if(now >= phaseTwo && now < phaseThree) {return 11200;}\n        else if(now >= phaseThree && now < phaseFour) {return 10800;}\n        else if(now >= phaseFour && now < phaseFive) {return 10400;}\n        else if(now >= phaseFive && now < phaseSix) {return 10200;}\n        else if(now >= phaseSix && now < endTime) {return 10000;}\n\n        return rate;\n    }\n\n    /**\n    * @dev Overrides _updatePurchasingState function from Crowdsale.\n    * Updates tokenWeiRaised amount and funding goal status.\n    */\n    function _updatePurchasingState(address _beneficiary, uint256 _weiAmount) internal {\n        tokensWeiRaised = tokensWeiRaised.add(_getTokenAmount(_weiAmount));\n        updateFundingGoal();\n    }\n\n    /**\n    * @dev Overrides _postValidatePurchase function from Crowdsale.\n    * Updates beneficiary's contribution.\n    */\n    function _postValidatePurchase(address _beneficiary, uint256 _weiAmount) internal {\n      depositedTokens[_beneficiary] = depositedTokens[_beneficiary].add(_getTokenAmount(_weiAmount));\n    }\n\n    /**\n    * @dev Updates fundingGoal status.\n    */\n    function updateFundingGoal() internal {\n        if(weiRaised >= fundingGoal){\n            fundingGoalReached = true;\n            GoalReached(weiRaised);\n        }\n    }\n\n    /**\n    * @dev Change the private contribution, in ether, wei units.\n    * Private contribution amount will be calculated into funding goal.\n    */\n    function changePrivateContribution(uint256 etherWeiAmount) external onlyOwner {\n      uint256 privateContribution = etherWeiAmount;\n    }\n\n    /**\n    * @dev Allows owner to start/unpause crowdsale.\n    */\n    function startCrowdsale() external onlyOwner {\n        require(!crowdsaleActive);\n        crowdsaleActive = true;\n        StartCrowdsale();\n    }\n\n    /**\n    * @dev Allows owner to stop/pause crowdsale.\n    */\n    function stopCrowdsale() external onlyOwner {\n        require(crowdsaleActive);\n        crowdsaleActive = false;\n        StopCrowdsale();\n    }\n\n    /**\n    * @dev Allows owner to enable release of tokens.\n    */\n    function enableTokenRelease() external onlyOwner {\n        require(!canTokenRelease);\n        canTokenRelease = true;\n        TokenReleaseEnabled();\n    }\n\n    /**\n    * @dev Allows owner to disable token release.\n    */\n    function disableTokenRelease() external onlyOwner {\n        require(canTokenRelease);\n        canTokenRelease = false;\n        TokenReleaseDisabled();\n    }\n\n    /**\n    * @dev Release tokens to multiple addresses.\n    * @param contributors Addresses to release tokens to\n    */\n    function releaseTokens(address[] contributors) external onlyOwner {\n        for (uint256 i = 0; i < contributors.length; i++) {\n\n            // the amount of tokens to be distributed to contributor\n            uint256 tokensAmount = depositedTokens[contributors[i]];\n\n            //ensure that there is enough tokens to distribute\n            require(token.balanceOf(address(this)) >= tokensAmount);\n            super._deliverTokens(contributors[i], tokensAmount);\n\n            depositedTokens[contributors[i]] = 0;\n            tokensReleasedAmount = tokensReleasedAmount.add(tokensAmount);\n        }\n    }\n\n    /**\n    * @dev Stops crowdsale and release of tokens. Transfer remainining tokens back to owner.\n    */\n    function close() external onlyOwner {\n        crowdsaleActive = false;\n        canTokenRelease = false;\n        token.transfer(owner, token.balanceOf(address(this)));\n        Close();\n    }\n\n }\n",
  "sourcePath": "/Users/zack/GStarCrowdsale/contracts/GStarCrowdsale.sol",
  "compiler": {
    "name": "solc",
    "version": "0.4.19+commit.c4cbbb05.Emscripten.clang"
  },
  "schemaVersion": "2.0.0",
  "updatedAt": "2018-03-09T09:32:07.217Z"
}