{
  "contractName": "RefundVault",
  "abi": [
    {
      "constant": true,
      "inputs": [
        {
          "name": "",
          "type": "address"
        }
      ],
      "name": "depositedEther",
      "outputs": [
        {
          "name": "",
          "type": "uint256"
        }
      ],
      "payable": false,
      "stateMutability": "view",
      "type": "function"
    },
    {
      "constant": true,
      "inputs": [],
      "name": "wallet",
      "outputs": [
        {
          "name": "",
          "type": "address"
        }
      ],
      "payable": false,
      "stateMutability": "view",
      "type": "function"
    },
    {
      "constant": true,
      "inputs": [],
      "name": "gStarToken",
      "outputs": [
        {
          "name": "",
          "type": "address"
        }
      ],
      "payable": false,
      "stateMutability": "view",
      "type": "function"
    },
    {
      "constant": true,
      "inputs": [],
      "name": "owner",
      "outputs": [
        {
          "name": "",
          "type": "address"
        }
      ],
      "payable": false,
      "stateMutability": "view",
      "type": "function"
    },
    {
      "constant": true,
      "inputs": [
        {
          "name": "",
          "type": "address"
        }
      ],
      "name": "whitelist",
      "outputs": [
        {
          "name": "",
          "type": "bool"
        }
      ],
      "payable": false,
      "stateMutability": "view",
      "type": "function"
    },
    {
      "constant": true,
      "inputs": [],
      "name": "state",
      "outputs": [
        {
          "name": "",
          "type": "uint8"
        }
      ],
      "payable": false,
      "stateMutability": "view",
      "type": "function"
    },
    {
      "constant": true,
      "inputs": [
        {
          "name": "",
          "type": "address"
        }
      ],
      "name": "depositedTokens",
      "outputs": [
        {
          "name": "",
          "type": "uint256"
        }
      ],
      "payable": false,
      "stateMutability": "view",
      "type": "function"
    },
    {
      "constant": false,
      "inputs": [
        {
          "name": "newOwner",
          "type": "address"
        }
      ],
      "name": "transferOwnership",
      "outputs": [],
      "payable": false,
      "stateMutability": "nonpayable",
      "type": "function"
    },
    {
      "inputs": [
        {
          "name": "_wallet",
          "type": "address"
        },
        {
          "name": "deployedGStar",
          "type": "address"
        }
      ],
      "payable": false,
      "stateMutability": "nonpayable",
      "type": "constructor"
    },
    {
      "anonymous": false,
      "inputs": [],
      "name": "Closed",
      "type": "event"
    },
    {
      "anonymous": false,
      "inputs": [],
      "name": "RefundsEnabled",
      "type": "event"
    },
    {
      "anonymous": false,
      "inputs": [
        {
          "indexed": true,
          "name": "beneficiary",
          "type": "address"
        },
        {
          "indexed": false,
          "name": "weiAmount",
          "type": "uint256"
        }
      ],
      "name": "Refunded",
      "type": "event"
    },
    {
      "anonymous": false,
      "inputs": [
        {
          "indexed": false,
          "name": "investor",
          "type": "address"
        },
        {
          "indexed": false,
          "name": "tokensWeiAmount",
          "type": "uint256"
        }
      ],
      "name": "TokensClaimed",
      "type": "event"
    },
    {
      "anonymous": false,
      "inputs": [
        {
          "indexed": false,
          "name": "beneficiaries",
          "type": "address[]"
        }
      ],
      "name": "BulkWhitelistAndReleaseTokens",
      "type": "event"
    },
    {
      "anonymous": false,
      "inputs": [
        {
          "indexed": false,
          "name": "beneficiary",
          "type": "address"
        }
      ],
      "name": "Whitelisted",
      "type": "event"
    },
    {
      "anonymous": false,
      "inputs": [
        {
          "indexed": true,
          "name": "previousOwner",
          "type": "address"
        },
        {
          "indexed": true,
          "name": "newOwner",
          "type": "address"
        }
      ],
      "name": "OwnershipTransferred",
      "type": "event"
    },
    {
      "constant": false,
      "inputs": [
        {
          "name": "investor",
          "type": "address"
        },
        {
          "name": "tokensWeiAmount",
          "type": "uint256"
        }
      ],
      "name": "deposit",
      "outputs": [],
      "payable": true,
      "stateMutability": "payable",
      "type": "function"
    },
    {
      "constant": false,
      "inputs": [],
      "name": "close",
      "outputs": [],
      "payable": false,
      "stateMutability": "nonpayable",
      "type": "function"
    },
    {
      "constant": false,
      "inputs": [],
      "name": "enableRefunds",
      "outputs": [],
      "payable": false,
      "stateMutability": "nonpayable",
      "type": "function"
    },
    {
      "constant": false,
      "inputs": [
        {
          "name": "investor",
          "type": "address"
        }
      ],
      "name": "refund",
      "outputs": [],
      "payable": false,
      "stateMutability": "nonpayable",
      "type": "function"
    },
    {
      "constant": false,
      "inputs": [
        {
          "name": "investor",
          "type": "address"
        }
      ],
      "name": "claimTokens",
      "outputs": [],
      "payable": false,
      "stateMutability": "nonpayable",
      "type": "function"
    },
    {
      "constant": false,
      "inputs": [
        {
          "name": "beneficiary",
          "type": "address"
        }
      ],
      "name": "addToWhiteList",
      "outputs": [],
      "payable": false,
      "stateMutability": "nonpayable",
      "type": "function"
    },
    {
      "constant": false,
      "inputs": [
        {
          "name": "beneficiaries",
          "type": "address[]"
        }
      ],
      "name": "addManyToWhitelist",
      "outputs": [],
      "payable": false,
      "stateMutability": "nonpayable",
      "type": "function"
    },
    {
      "constant": false,
      "inputs": [
        {
          "name": "beneficiaries",
          "type": "address[]"
        }
      ],
      "name": "whitelistAndReleaseTokens",
      "outputs": [],
      "payable": false,
      "stateMutability": "nonpayable",
      "type": "function"
    },
    {
      "constant": false,
      "inputs": [
        {
          "name": "beneficiary",
          "type": "address"
        }
      ],
      "name": "removeFromWhitelist",
      "outputs": [],
      "payable": false,
      "stateMutability": "nonpayable",
      "type": "function"
    }
  ],
  "bytecode": "0x6060604052341561000f57600080fd5b6040516040806119c883398101604052808051906020019091908051906020019091905050336000806101000a81548173ffffffffffffffffffffffffffffffffffffffff021916908373ffffffffffffffffffffffffffffffffffffffff160217905550600073ffffffffffffffffffffffffffffffffffffffff168273ffffffffffffffffffffffffffffffffffffffff16141515156100b057600080fd5b81600560006101000a81548173ffffffffffffffffffffffffffffffffffffffff021916908373ffffffffffffffffffffffffffffffffffffffff1602179055506000600560146101000a81548160ff0219169083600281111561011057fe5b021790555080600160006101000a81548173ffffffffffffffffffffffffffffffffffffffff021916908373ffffffffffffffffffffffffffffffffffffffff1602179055505050611861806101676000396000f3006060604052600436106100f1576000357c0100000000000000000000000000000000000000000000000000000000900463ffffffff16806343d726d6146100f657806347e7ef241461010b57806347ee039414610142578063482ed2a21461017b578063521eb273146101c857806354d7fa331461021d578063742513c9146102725780638ab1d681146102a05780638c10671c146102d95780638c52dc41146103075780638da5cb5b1461031c5780639b19251a14610371578063c19d93fb146103c2578063c326bf4f146103f9578063df8de3e714610446578063f2fde38b1461047f578063fa89401a146104b8575b600080fd5b341561010157600080fd5b6101096104f1565b005b610140600480803573ffffffffffffffffffffffffffffffffffffffff1690602001909190803590602001909190505061064b565b005b341561014d57600080fd5b610179600480803573ffffffffffffffffffffffffffffffffffffffff16906020019091905050610808565b005b341561018657600080fd5b6101b2600480803573ffffffffffffffffffffffffffffffffffffffff16906020019091905050610921565b6040518082815260200191505060405180910390f35b34156101d357600080fd5b6101db610939565b604051808273ffffffffffffffffffffffffffffffffffffffff1673ffffffffffffffffffffffffffffffffffffffff16815260200191505060405180910390f35b341561022857600080fd5b61023061095f565b604051808273ffffffffffffffffffffffffffffffffffffffff1673ffffffffffffffffffffffffffffffffffffffff16815260200191505060405180910390f35b341561027d57600080fd5b61029e60048080359060200190820180359060200191909192905050610985565b005b34156102ab57600080fd5b6102d7600480803573ffffffffffffffffffffffffffffffffffffffff16906020019091905050610d3a565b005b34156102e457600080fd5b61030560048080359060200190820180359060200191909192905050610de3565b005b341561031257600080fd5b61031a610f71565b005b341561032757600080fd5b61032f611052565b604051808273ffffffffffffffffffffffffffffffffffffffff1673ffffffffffffffffffffffffffffffffffffffff16815260200191505060405180910390f35b341561037c57600080fd5b6103a8600480803573ffffffffffffffffffffffffffffffffffffffff16906020019091905050611077565b604051808215151515815260200191505060405180910390f35b34156103cd57600080fd5b6103d5611097565b604051808260028111156103e557fe5b60ff16815260200191505060405180910390f35b341561040457600080fd5b610430600480803573ffffffffffffffffffffffffffffffffffffffff169060200190919050506110aa565b6040518082815260200191505060405180910390f35b341561045157600080fd5b61047d600480803573ffffffffffffffffffffffffffffffffffffffff169060200190919050506110c2565b005b341561048a57600080fd5b6104b6600480803573ffffffffffffffffffffffffffffffffffffffff16906020019091905050611437565b005b34156104c357600080fd5b6104ef600480803573ffffffffffffffffffffffffffffffffffffffff1690602001909190505061158c565b005b6000809054906101000a900473ffffffffffffffffffffffffffffffffffffffff1673ffffffffffffffffffffffffffffffffffffffff163373ffffffffffffffffffffffffffffffffffffffff1614151561054c57600080fd5b6000600281111561055957fe5b600560149054906101000a900460ff16600281111561057457fe5b14151561058057600080fd5b6002600560146101000a81548160ff0219169083600281111561059f57fe5b02179055507f1cdde67b72a90f19919ac732a437ac2f7a10fc128d28c2a6e525d89ce5cd9d3a60405160405180910390a1600560009054906101000a900473ffffffffffffffffffffffffffffffffffffffff1673ffffffffffffffffffffffffffffffffffffffff166108fc3073ffffffffffffffffffffffffffffffffffffffff16319081150290604051600060405180830381858888f19350505050151561064957600080fd5b565b6000809054906101000a900473ffffffffffffffffffffffffffffffffffffffff1673ffffffffffffffffffffffffffffffffffffffff163373ffffffffffffffffffffffffffffffffffffffff161415156106a657600080fd5b600060028111156106b357fe5b600560149054906101000a900460ff1660028111156106ce57fe5b1415156106da57600080fd5b61072c81600460008573ffffffffffffffffffffffffffffffffffffffff1673ffffffffffffffffffffffffffffffffffffffff1681526020019081526020016000205461181790919063ffffffff16565b600460008473ffffffffffffffffffffffffffffffffffffffff1673ffffffffffffffffffffffffffffffffffffffff168152602001908152602001600020819055506107c134600360008573ffffffffffffffffffffffffffffffffffffffff1673ffffffffffffffffffffffffffffffffffffffff1681526020019081526020016000205461181790919063ffffffff16565b600360008473ffffffffffffffffffffffffffffffffffffffff1673ffffffffffffffffffffffffffffffffffffffff168152602001908152602001600020819055505050565b6000809054906101000a900473ffffffffffffffffffffffffffffffffffffffff1673ffffffffffffffffffffffffffffffffffffffff163373ffffffffffffffffffffffffffffffffffffffff1614151561086357600080fd5b6001600260008373ffffffffffffffffffffffffffffffffffffffff1673ffffffffffffffffffffffffffffffffffffffff16815260200190815260200160002060006101000a81548160ff0219169083151502179055507faab7954e9d246b167ef88aeddad35209ca2489d95a8aeb59e288d9b19fae5a5481604051808273ffffffffffffffffffffffffffffffffffffffff1673ffffffffffffffffffffffffffffffffffffffff16815260200191505060405180910390a150565b60036020528060005260406000206000915090505481565b600560009054906101000a900473ffffffffffffffffffffffffffffffffffffffff1681565b600160009054906101000a900473ffffffffffffffffffffffffffffffffffffffff1681565b60008060008060009054906101000a900473ffffffffffffffffffffffffffffffffffffffff1673ffffffffffffffffffffffffffffffffffffffff163373ffffffffffffffffffffffffffffffffffffffff161415156109e557600080fd5b600092505b84849050831015610d33578484848181101515610a0357fe5b9050602002013573ffffffffffffffffffffffffffffffffffffffff1691506001600260008473ffffffffffffffffffffffffffffffffffffffff1673ffffffffffffffffffffffffffffffffffffffff16815260200190815260200160002060006101000a81548160ff0219169083151502179055507faab7954e9d246b167ef88aeddad35209ca2489d95a8aeb59e288d9b19fae5a5482604051808273ffffffffffffffffffffffffffffffffffffffff1673ffffffffffffffffffffffffffffffffffffffff16815260200191505060405180910390a16000600460008473ffffffffffffffffffffffffffffffffffffffff1673ffffffffffffffffffffffffffffffffffffffff16815260200190815260200160002054118015610b6b57506000600360008473ffffffffffffffffffffffffffffffffffffffff1673ffffffffffffffffffffffffffffffffffffffff16815260200190815260200160002054115b15610d2657600460008373ffffffffffffffffffffffffffffffffffffffff1673ffffffffffffffffffffffffffffffffffffffff1681526020019081526020016000205490506000600460008473ffffffffffffffffffffffffffffffffffffffff1673ffffffffffffffffffffffffffffffffffffffff168152602001908152602001600020819055506000600360008473ffffffffffffffffffffffffffffffffffffffff1673ffffffffffffffffffffffffffffffffffffffff16815260200190815260200160002081905550600160009054906101000a900473ffffffffffffffffffffffffffffffffffffffff1673ffffffffffffffffffffffffffffffffffffffff1663a9059cbb83836000604051602001526040518363ffffffff167c0100000000000000000000000000000000000000000000000000000000028152600401808373ffffffffffffffffffffffffffffffffffffffff1673ffffffffffffffffffffffffffffffffffffffff16815260200182815260200192505050602060405180830381600087803b1515610d0957600080fd5b6102c65a03f11515610d1a57600080fd5b50505060405180519050505b82806001019350506109ea565b5050505050565b6000809054906101000a900473ffffffffffffffffffffffffffffffffffffffff1673ffffffffffffffffffffffffffffffffffffffff163373ffffffffffffffffffffffffffffffffffffffff16141515610d9557600080fd5b600260008273ffffffffffffffffffffffffffffffffffffffff1673ffffffffffffffffffffffffffffffffffffffff16815260200190815260200160002060009054906101000a90505050565b60008060009054906101000a900473ffffffffffffffffffffffffffffffffffffffff1673ffffffffffffffffffffffffffffffffffffffff163373ffffffffffffffffffffffffffffffffffffffff16141515610e4057600080fd5b600090505b82829050811015610f6c576001600260008585858181101515610e6457fe5b9050602002013573ffffffffffffffffffffffffffffffffffffffff1673ffffffffffffffffffffffffffffffffffffffff1673ffffffffffffffffffffffffffffffffffffffff16815260200190815260200160002060006101000a81548160ff0219169083151502179055507faab7954e9d246b167ef88aeddad35209ca2489d95a8aeb59e288d9b19fae5a548383838181101515610f0157fe5b9050602002013573ffffffffffffffffffffffffffffffffffffffff16604051808273ffffffffffffffffffffffffffffffffffffffff1673ffffffffffffffffffffffffffffffffffffffff16815260200191505060405180910390a18080600101915050610e45565b505050565b6000809054906101000a900473ffffffffffffffffffffffffffffffffffffffff1673ffffffffffffffffffffffffffffffffffffffff163373ffffffffffffffffffffffffffffffffffffffff16141515610fcc57600080fd5b60006002811115610fd957fe5b600560149054906101000a900460ff166002811115610ff457fe5b14151561100057600080fd5b6001600560146101000a81548160ff0219169083600281111561101f57fe5b02179055507f599d8e5a83cffb867d051598c4d70e805d59802d8081c1c7d6dffc5b6aca2b8960405160405180910390a1565b6000809054906101000a900473ffffffffffffffffffffffffffffffffffffffff1681565b60026020528060005260406000206000915054906101000a900460ff1681565b600560149054906101000a900460ff1681565b60046020528060005260406000206000915090505481565b60008060009054906101000a900473ffffffffffffffffffffffffffffffffffffffff1673ffffffffffffffffffffffffffffffffffffffff163373ffffffffffffffffffffffffffffffffffffffff1614151561111f57600080fd5b6000600460008473ffffffffffffffffffffffffffffffffffffffff1673ffffffffffffffffffffffffffffffffffffffff1681526020019081526020016000205411151561116d57600080fd5b6000600360008473ffffffffffffffffffffffffffffffffffffffff1673ffffffffffffffffffffffffffffffffffffffff168152602001908152602001600020541115156111bb57600080fd5b600260008373ffffffffffffffffffffffffffffffffffffffff1673ffffffffffffffffffffffffffffffffffffffff16815260200190815260200160002060009054906101000a900460ff16151561121357600080fd5b600460008373ffffffffffffffffffffffffffffffffffffffff1673ffffffffffffffffffffffffffffffffffffffff1681526020019081526020016000205490506000600460008473ffffffffffffffffffffffffffffffffffffffff1673ffffffffffffffffffffffffffffffffffffffff168152602001908152602001600020819055506000600360008473ffffffffffffffffffffffffffffffffffffffff1673ffffffffffffffffffffffffffffffffffffffff16815260200190815260200160002081905550600160009054906101000a900473ffffffffffffffffffffffffffffffffffffffff1673ffffffffffffffffffffffffffffffffffffffff1663a9059cbb83836000604051602001526040518363ffffffff167c0100000000000000000000000000000000000000000000000000000000028152600401808373ffffffffffffffffffffffffffffffffffffffff1673ffffffffffffffffffffffffffffffffffffffff16815260200182815260200192505050602060405180830381600087803b15156113ac57600080fd5b6102c65a03f115156113bd57600080fd5b50505060405180519050507f896e034966eaaf1adc54acc0f257056febbd300c9e47182cf761982cf1f5e4308282604051808373ffffffffffffffffffffffffffffffffffffffff1673ffffffffffffffffffffffffffffffffffffffff1681526020018281526020019250505060405180910390a15050565b6000809054906101000a900473ffffffffffffffffffffffffffffffffffffffff1673ffffffffffffffffffffffffffffffffffffffff163373ffffffffffffffffffffffffffffffffffffffff1614151561149257600080fd5b600073ffffffffffffffffffffffffffffffffffffffff168173ffffffffffffffffffffffffffffffffffffffff16141515156114ce57600080fd5b8073ffffffffffffffffffffffffffffffffffffffff166000809054906101000a900473ffffffffffffffffffffffffffffffffffffffff1673ffffffffffffffffffffffffffffffffffffffff167f8be0079c531659141344cd1fd0a4f28419497f9722a3daafe3b4186f6b6457e060405160405180910390a3806000806101000a81548173ffffffffffffffffffffffffffffffffffffffff021916908373ffffffffffffffffffffffffffffffffffffffff16021790555050565b60008060009054906101000a900473ffffffffffffffffffffffffffffffffffffffff1673ffffffffffffffffffffffffffffffffffffffff163373ffffffffffffffffffffffffffffffffffffffff161415156115e957600080fd5b600160028111156115f657fe5b600560149054906101000a900460ff16600281111561161157fe5b14151561161d57600080fd5b6000600460008473ffffffffffffffffffffffffffffffffffffffff1673ffffffffffffffffffffffffffffffffffffffff1681526020019081526020016000205411151561166b57600080fd5b6000600360008473ffffffffffffffffffffffffffffffffffffffff1673ffffffffffffffffffffffffffffffffffffffff168152602001908152602001600020541115156116b957600080fd5b600360008373ffffffffffffffffffffffffffffffffffffffff1673ffffffffffffffffffffffffffffffffffffffff1681526020019081526020016000205490506000600360008473ffffffffffffffffffffffffffffffffffffffff1673ffffffffffffffffffffffffffffffffffffffff168152602001908152602001600020819055506000600460008473ffffffffffffffffffffffffffffffffffffffff1673ffffffffffffffffffffffffffffffffffffffff168152602001908152602001600020819055508173ffffffffffffffffffffffffffffffffffffffff166108fc829081150290604051600060405180830381858888f1935050505015156117c557600080fd5b8173ffffffffffffffffffffffffffffffffffffffff167fd7dee2702d63ad89917b6a4da9981c90c4d24f8c2bdfd64c604ecae57d8d0651826040518082815260200191505060405180910390a25050565b600080828401905083811015151561182b57fe5b80915050929150505600a165627a7a72305820426d8c2418ca963df15af2f8b4d9c197944a00f1dee9f8328507899fc0cf910d0029",
  "source": "pragma solidity ^0.4.18;\r\n\r\nimport \"zeppelin-solidity/contracts/math/SafeMath.sol\";\r\nimport \"zeppelin-solidity/contracts/ownership/Ownable.sol\";\r\nimport \"./GStarToken.sol\";\r\n\r\n/**\r\n * @title RefundVault\r\n * @dev This contract is used for storing funds while a crowdsale\r\n * is in progress. Supports refunding the money if crowdsale fails,\r\n * and forwarding it if crowdsale is successful.\r\n */\r\ncontract RefundVault is Ownable {\r\n  using SafeMath for uint256;\r\n\r\n  enum State { Active, Refunding, Closed }\r\n\r\n  GStarToken public gStarToken;\r\n\r\n  mapping (address => bool) public whitelist;\r\n  mapping (address => uint256) public depositedEther;\r\n  mapping (address => uint256) public depositedTokens;\r\n  address public wallet;\r\n  State public state;\r\n\r\n  event Closed();\r\n  event RefundsEnabled();\r\n  event Refunded(address indexed beneficiary, uint256 weiAmount);\r\n  event TokensClaimed(address investor, uint256 tokensWeiAmount);\r\n  event BulkWhitelistAndReleaseTokens(address[] beneficiaries);\r\n  event Whitelisted(address beneficiary);\r\n\r\n  /**\r\n   * @param _wallet Vault address\r\n   */\r\n  function RefundVault(address _wallet, address deployedGStar) public {\r\n    require(_wallet != address(0));\r\n    wallet = _wallet;\r\n    state = State.Active;\r\n    gStarToken = GStarToken(deployedGStar);\r\n  }\r\n\r\n  /**\r\n   * @param investor Investor address\r\n   */\r\n  function deposit(address investor, uint256 tokensWeiAmount) onlyOwner public payable {\r\n    require(state == State.Active);\r\n    depositedTokens[investor] = depositedTokens[investor].add(tokensWeiAmount);\r\n    depositedEther[investor] = depositedEther[investor].add(msg.value);\r\n  }\r\n\r\n  function close() onlyOwner public {\r\n    require(state == State.Active);\r\n    state = State.Closed;\r\n    Closed();\r\n    wallet.transfer(this.balance);\r\n  }\r\n\r\n  function enableRefunds() onlyOwner public {\r\n    require(state == State.Active);\r\n    state = State.Refunding;\r\n    RefundsEnabled();\r\n  }\r\n\r\n  /**\r\n   * @param investor Investor address\r\n   */\r\n  function refund(address investor) onlyOwner public {\r\n    require(state == State.Refunding);\r\n    require(depositedTokens[investor] > 0);\r\n    require(depositedEther[investor] > 0);\r\n\r\n    uint256 depositedEtherValue = depositedEther[investor];\r\n    depositedEther[investor] = 0;\r\n    depositedTokens[investor] = 0;\r\n\r\n    investor.transfer(depositedEtherValue);\r\n\r\n    Refunded(investor, depositedEtherValue);\r\n  }\r\n\r\n  function claimTokens(address investor) onlyOwner public {\r\n    require(depositedTokens[investor] > 0);\r\n    require(depositedEther[investor] > 0);\r\n    require(whitelist[investor]);\r\n\r\n    uint256 tokensAmount = depositedTokens[investor];\r\n    depositedTokens[investor] = 0;\r\n    depositedEther[investor] = 0;\r\n\r\n    gStarToken.transfer(investor, tokensAmount);\r\n    TokensClaimed(investor, tokensAmount);\r\n  }\r\n\r\n  function addToWhiteList(address beneficiary) external onlyOwner {\r\n    whitelist[beneficiary] = true;\r\n    Whitelisted(beneficiary);\r\n  }\r\n\r\n  function addManyToWhitelist(address[] beneficiaries) external onlyOwner {\r\n    for (uint256 i = 0; i < beneficiaries.length; i++) {\r\n      whitelist[beneficiaries[i]] = true;\r\n      Whitelisted(beneficiaries[i]);\r\n    }\r\n  }\r\n\r\n  function whitelistAndReleaseTokens(address[] beneficiaries) external onlyOwner {\r\n    for (uint256 i = 0; i < beneficiaries.length; i++) {\r\n      address currentBeneficiary = beneficiaries[i];\r\n      whitelist[currentBeneficiary] = true;\r\n      Whitelisted(currentBeneficiary);\r\n\r\n      if(depositedTokens[currentBeneficiary] > 0 && depositedEther[currentBeneficiary] > 0) {\r\n        uint256 tokensAmount = depositedTokens[currentBeneficiary];\r\n        depositedTokens[currentBeneficiary] = 0;\r\n        depositedEther[currentBeneficiary] = 0;\r\n\r\n        gStarToken.transfer(currentBeneficiary, tokensAmount);\r\n      }\r\n    }\r\n  }\r\n\r\n  function removeFromWhitelist(address beneficiary) external onlyOwner {\r\n    whitelist[beneficiary];\r\n  }\r\n\r\n}\r\n",
  "sourcePath": "C:\\GStar\\contracts\\RefundVault.sol",
  "compiler": {
    "name": "solc",
    "version": "0.4.19+commit.c4cbbb05.Emscripten.clang"
  },
  "schemaVersion": "2.0.0",
  "updatedAt": "2018-02-28T09:19:46.260Z"
}