{
  "contractName": "RefundVault",
  "abi": [
    {
      "constant": true,
      "inputs": [
        {
          "name": "beneficiary",
          "type": "address"
        }
      ],
      "name": "etherDeposited",
      "outputs": [
        {
          "name": "",
          "type": "uint256"
        }
      ],
      "payable": false,
      "stateMutability": "view",
      "type": "function"
    },
    {
      "constant": false,
      "inputs": [],
      "name": "enableSettlement",
      "outputs": [],
      "payable": false,
      "stateMutability": "nonpayable",
      "type": "function"
    },
    {
      "constant": true,
      "inputs": [
        {
          "name": "beneficiary",
          "type": "address"
        }
      ],
      "name": "isWhitelisted",
      "outputs": [
        {
          "name": "",
          "type": "bool"
        }
      ],
      "payable": false,
      "stateMutability": "view",
      "type": "function"
    },
    {
      "constant": false,
      "inputs": [
        {
          "name": "investor",
          "type": "address"
        },
        {
          "name": "tokensWeiAmount",
          "type": "uint256"
        }
      ],
      "name": "deposit",
      "outputs": [],
      "payable": true,
      "stateMutability": "payable",
      "type": "function"
    },
    {
      "constant": false,
      "inputs": [
        {
          "name": "beneficiary",
          "type": "address"
        }
      ],
      "name": "addToWhiteList",
      "outputs": [],
      "payable": false,
      "stateMutability": "nonpayable",
      "type": "function"
    },
    {
      "constant": true,
      "inputs": [
        {
          "name": "",
          "type": "address"
        }
      ],
      "name": "depositedEther",
      "outputs": [
        {
          "name": "",
          "type": "uint256"
        }
      ],
      "payable": false,
      "stateMutability": "view",
      "type": "function"
    },
    {
      "constant": true,
      "inputs": [],
      "name": "wallet",
      "outputs": [
        {
          "name": "",
          "type": "address"
        }
      ],
      "payable": false,
      "stateMutability": "view",
      "type": "function"
    },
    {
      "constant": true,
      "inputs": [],
      "name": "gStarToken",
      "outputs": [
        {
          "name": "",
          "type": "address"
        }
      ],
      "payable": false,
      "stateMutability": "view",
      "type": "function"
    },
    {
      "constant": false,
      "inputs": [
        {
          "name": "beneficiaries",
          "type": "address[]"
        }
      ],
      "name": "whitelistAndReleaseTokens",
      "outputs": [],
      "payable": false,
      "stateMutability": "nonpayable",
      "type": "function"
    },
    {
      "constant": false,
      "inputs": [
        {
          "name": "beneficiary",
          "type": "address"
        }
      ],
      "name": "removeFromWhitelist",
      "outputs": [],
      "payable": false,
      "stateMutability": "nonpayable",
      "type": "function"
    },
    {
      "constant": false,
      "inputs": [
        {
          "name": "beneficiaries",
          "type": "address[]"
        }
      ],
      "name": "addManyToWhitelist",
      "outputs": [],
      "payable": false,
      "stateMutability": "nonpayable",
      "type": "function"
    },
    {
      "constant": true,
      "inputs": [],
      "name": "owner",
      "outputs": [
        {
          "name": "",
          "type": "address"
        }
      ],
      "payable": false,
      "stateMutability": "view",
      "type": "function"
    },
    {
      "constant": true,
      "inputs": [
        {
          "name": "",
          "type": "address"
        }
      ],
      "name": "whitelist",
      "outputs": [
        {
          "name": "",
          "type": "bool"
        }
      ],
      "payable": false,
      "stateMutability": "view",
      "type": "function"
    },
    {
      "constant": true,
      "inputs": [
        {
          "name": "beneficiary",
          "type": "address"
        }
      ],
      "name": "tokensDeposited",
      "outputs": [
        {
          "name": "",
          "type": "uint256"
        }
      ],
      "payable": false,
      "stateMutability": "view",
      "type": "function"
    },
    {
      "constant": true,
      "inputs": [],
      "name": "state",
      "outputs": [
        {
          "name": "",
          "type": "uint8"
        }
      ],
      "payable": false,
      "stateMutability": "view",
      "type": "function"
    },
    {
      "constant": true,
      "inputs": [
        {
          "name": "",
          "type": "address"
        }
      ],
      "name": "depositedTokens",
      "outputs": [
        {
          "name": "",
          "type": "uint256"
        }
      ],
      "payable": false,
      "stateMutability": "view",
      "type": "function"
    },
    {
      "constant": false,
      "inputs": [
        {
          "name": "investor",
          "type": "address"
        }
      ],
      "name": "claimTokens",
      "outputs": [],
      "payable": false,
      "stateMutability": "nonpayable",
      "type": "function"
    },
    {
      "constant": false,
      "inputs": [
        {
          "name": "newOwner",
          "type": "address"
        }
      ],
      "name": "transferOwnership",
      "outputs": [],
      "payable": false,
      "stateMutability": "nonpayable",
      "type": "function"
    },
    {
      "constant": false,
      "inputs": [],
      "name": "endSettlement",
      "outputs": [],
      "payable": false,
      "stateMutability": "nonpayable",
      "type": "function"
    },
    {
      "constant": false,
      "inputs": [
        {
          "name": "investor",
          "type": "address"
        }
      ],
      "name": "refund",
      "outputs": [
        {
          "name": "",
          "type": "bool"
        }
      ],
      "payable": false,
      "stateMutability": "nonpayable",
      "type": "function"
    },
    {
      "inputs": [
        {
          "name": "deployedGStar",
          "type": "address"
        }
      ],
      "payable": false,
      "stateMutability": "nonpayable",
      "type": "constructor"
    },
    {
      "anonymous": false,
      "inputs": [],
      "name": "SettlementEnabled",
      "type": "event"
    },
    {
      "anonymous": false,
      "inputs": [],
      "name": "SettlementEnded",
      "type": "event"
    },
    {
      "anonymous": false,
      "inputs": [
        {
          "indexed": true,
          "name": "beneficiary",
          "type": "address"
        },
        {
          "indexed": false,
          "name": "weiAmount",
          "type": "uint256"
        }
      ],
      "name": "Refunded",
      "type": "event"
    },
    {
      "anonymous": false,
      "inputs": [
        {
          "indexed": false,
          "name": "investor",
          "type": "address"
        },
        {
          "indexed": false,
          "name": "tokensWeiAmount",
          "type": "uint256"
        }
      ],
      "name": "TokensClaimed",
      "type": "event"
    },
    {
      "anonymous": false,
      "inputs": [
        {
          "indexed": false,
          "name": "beneficiary",
          "type": "address"
        }
      ],
      "name": "Whitelisted",
      "type": "event"
    },
    {
      "anonymous": false,
      "inputs": [
        {
          "indexed": false,
          "name": "beneficiary",
          "type": "address"
        }
      ],
      "name": "Delisted",
      "type": "event"
    },
    {
      "anonymous": false,
      "inputs": [
        {
          "indexed": false,
          "name": "beneficiaries",
          "type": "address[]"
        }
      ],
      "name": "AddedMultipleToWhitelist",
      "type": "event"
    },
    {
      "anonymous": false,
      "inputs": [
        {
          "indexed": false,
          "name": "beneficiaries",
          "type": "address[]"
        }
      ],
      "name": "BulkWhitelistAndReleaseTokens",
      "type": "event"
    },
    {
      "anonymous": false,
      "inputs": [
        {
          "indexed": false,
          "name": "investor",
          "type": "address"
        },
        {
          "indexed": false,
          "name": "etherWeiAmount",
          "type": "uint256"
        },
        {
          "indexed": false,
          "name": "tokensWeiAmount",
          "type": "uint256"
        }
      ],
      "name": "Deposited",
      "type": "event"
    },
    {
      "anonymous": false,
      "inputs": [
        {
          "indexed": true,
          "name": "previousOwner",
          "type": "address"
        },
        {
          "indexed": true,
          "name": "newOwner",
          "type": "address"
        }
      ],
      "name": "OwnershipTransferred",
      "type": "event"
    }
  ],
  "bytecode": "0x6060604052739a1c6fa66dbaea367e21403609628a40cf345b6e600560006101000a81548173ffffffffffffffffffffffffffffffffffffffff021916908373ffffffffffffffffffffffffffffffffffffffff160217905550341561006457600080fd5b6040516020806121e983398101604052808051906020019091905050336000806101000a81548173ffffffffffffffffffffffffffffffffffffffff021916908373ffffffffffffffffffffffffffffffffffffffff160217905550600073ffffffffffffffffffffffffffffffffffffffff168173ffffffffffffffffffffffffffffffffffffffff16141515156100fc57600080fd5b336000806101000a81548173ffffffffffffffffffffffffffffffffffffffff021916908373ffffffffffffffffffffffffffffffffffffffff1602179055506000600560146101000a81548160ff0219169083600281111561015b57fe5b021790555080600160006101000a81548173ffffffffffffffffffffffffffffffffffffffff021916908373ffffffffffffffffffffffffffffffffffffffff16021790555050612038806101b16000396000f300606060405260043610610112576000357c0100000000000000000000000000000000000000000000000000000000900463ffffffff1680630c3827d01461011757806327190a47146101645780633af32abf1461017957806347e7ef24146101ca57806347ee039414610201578063482ed2a21461023a578063521eb2731461028757806354d7fa33146102dc578063742513c9146103315780638ab1d6811461035f5780638c10671c146103985780638da5cb5b146103c65780639b19251a1461041b578063a161c2051461046c578063c19d93fb146104b9578063c326bf4f146104f0578063df8de3e71461053d578063f2fde38b14610576578063fa2dcd93146105af578063fa89401a146105c4575b600080fd5b341561012257600080fd5b61014e600480803573ffffffffffffffffffffffffffffffffffffffff16906020019091905050610615565b6040518082815260200191505060405180910390f35b341561016f57600080fd5b61017761065e565b005b341561018457600080fd5b6101b0600480803573ffffffffffffffffffffffffffffffffffffffff1690602001909190505061073f565b604051808215151515815260200191505060405180910390f35b6101ff600480803573ffffffffffffffffffffffffffffffffffffffff16906020019091908035906020019091905050610795565b005b341561020c57600080fd5b610238600480803573ffffffffffffffffffffffffffffffffffffffff169060200190919050506109c5565b005b341561024557600080fd5b610271600480803573ffffffffffffffffffffffffffffffffffffffff16906020019091905050610b37565b6040518082815260200191505060405180910390f35b341561029257600080fd5b61029a610b4f565b604051808273ffffffffffffffffffffffffffffffffffffffff1673ffffffffffffffffffffffffffffffffffffffff16815260200191505060405180910390f35b34156102e757600080fd5b6102ef610b75565b604051808273ffffffffffffffffffffffffffffffffffffffff1673ffffffffffffffffffffffffffffffffffffffff16815260200191505060405180910390f35b341561033c57600080fd5b61035d60048080359060200190820180359060200191909192905050610b9b565b005b341561036a57600080fd5b610396600480803573ffffffffffffffffffffffffffffffffffffffff16906020019091905050611069565b005b34156103a357600080fd5b6103c4600480803590602001908201803590602001919091929050506111da565b005b34156103d157600080fd5b6103d961132f565b604051808273ffffffffffffffffffffffffffffffffffffffff1673ffffffffffffffffffffffffffffffffffffffff16815260200191505060405180910390f35b341561042657600080fd5b610452600480803573ffffffffffffffffffffffffffffffffffffffff16906020019091905050611354565b604051808215151515815260200191505060405180910390f35b341561047757600080fd5b6104a3600480803573ffffffffffffffffffffffffffffffffffffffff16906020019091905050611374565b6040518082815260200191505060405180910390f35b34156104c457600080fd5b6104cc6113bd565b604051808260028111156104dc57fe5b60ff16815260200191505060405180910390f35b34156104fb57600080fd5b610527600480803573ffffffffffffffffffffffffffffffffffffffff169060200190919050506113d0565b6040518082815260200191505060405180910390f35b341561054857600080fd5b610574600480803573ffffffffffffffffffffffffffffffffffffffff169060200190919050506113e8565b005b341561058157600080fd5b6105ad600480803573ffffffffffffffffffffffffffffffffffffffff169060200190919050506118bd565b005b34156105ba57600080fd5b6105c2611a12565b005b34156105cf57600080fd5b6105fb600480803573ffffffffffffffffffffffffffffffffffffffff16906020019091905050611d5c565b604051808215151515815260200191505060405180910390f35b6000600360008373ffffffffffffffffffffffffffffffffffffffff1673ffffffffffffffffffffffffffffffffffffffff168152602001908152602001600020549050919050565b6000809054906101000a900473ffffffffffffffffffffffffffffffffffffffff1673ffffffffffffffffffffffffffffffffffffffff163373ffffffffffffffffffffffffffffffffffffffff161415156106b957600080fd5b600060028111156106c657fe5b600560149054906101000a900460ff1660028111156106e157fe5b1415156106ed57600080fd5b6001600560146101000a81548160ff0219169083600281111561070c57fe5b02179055507f83e651407bff0c3e4b6db4833747e071ce13a156902eaed9b1cf16967395809360405160405180910390a1565b6000600260008373ffffffffffffffffffffffffffffffffffffffff1673ffffffffffffffffffffffffffffffffffffffff16815260200190815260200160002060009054906101000a900460ff169050919050565b6000809054906101000a900473ffffffffffffffffffffffffffffffffffffffff1673ffffffffffffffffffffffffffffffffffffffff163373ffffffffffffffffffffffffffffffffffffffff161415156107f057600080fd5b600060028111156107fd57fe5b600560149054906101000a900460ff16600281111561081857fe5b14151561082457600080fd5b61087681600460008573ffffffffffffffffffffffffffffffffffffffff1673ffffffffffffffffffffffffffffffffffffffff16815260200190815260200160002054611fee90919063ffffffff16565b600460008473ffffffffffffffffffffffffffffffffffffffff1673ffffffffffffffffffffffffffffffffffffffff1681526020019081526020016000208190555061090b34600360008573ffffffffffffffffffffffffffffffffffffffff1673ffffffffffffffffffffffffffffffffffffffff16815260200190815260200160002054611fee90919063ffffffff16565b600360008473ffffffffffffffffffffffffffffffffffffffff1673ffffffffffffffffffffffffffffffffffffffff168152602001908152602001600020819055507f73a19dd210f1a7f902193214c0ee91dd35ee5b4d920cba8d519eca65a7b488ca823483604051808473ffffffffffffffffffffffffffffffffffffffff1673ffffffffffffffffffffffffffffffffffffffff168152602001838152602001828152602001935050505060405180910390a15050565b6000809054906101000a900473ffffffffffffffffffffffffffffffffffffffff1673ffffffffffffffffffffffffffffffffffffffff163373ffffffffffffffffffffffffffffffffffffffff16141515610a2057600080fd5b600260008273ffffffffffffffffffffffffffffffffffffffff1673ffffffffffffffffffffffffffffffffffffffff16815260200190815260200160002060009054906101000a900460ff16151515610a7957600080fd5b6001600260008373ffffffffffffffffffffffffffffffffffffffff1673ffffffffffffffffffffffffffffffffffffffff16815260200190815260200160002060006101000a81548160ff0219169083151502179055507faab7954e9d246b167ef88aeddad35209ca2489d95a8aeb59e288d9b19fae5a5481604051808273ffffffffffffffffffffffffffffffffffffffff1673ffffffffffffffffffffffffffffffffffffffff16815260200191505060405180910390a150565b60036020528060005260406000206000915090505481565b600560009054906101000a900473ffffffffffffffffffffffffffffffffffffffff1681565b600160009054906101000a900473ffffffffffffffffffffffffffffffffffffffff1681565b60008060008060009054906101000a900473ffffffffffffffffffffffffffffffffffffffff1673ffffffffffffffffffffffffffffffffffffffff163373ffffffffffffffffffffffffffffffffffffffff16141515610bfb57600080fd5b60016002811115610c0857fe5b600560149054906101000a900460ff166002811115610c2357fe5b141515610c2f57600080fd5b600092505b8484905083101561100e578484848181101515610c4d57fe5b9050602002013573ffffffffffffffffffffffffffffffffffffffff1691506001600260008473ffffffffffffffffffffffffffffffffffffffff1673ffffffffffffffffffffffffffffffffffffffff16815260200190815260200160002060006101000a81548160ff0219169083151502179055506000600460008473ffffffffffffffffffffffffffffffffffffffff1673ffffffffffffffffffffffffffffffffffffffff16815260200190815260200160002054118015610d5257506000600360008473ffffffffffffffffffffffffffffffffffffffff1673ffffffffffffffffffffffffffffffffffffffff16815260200190815260200160002054115b1561100157600460008373ffffffffffffffffffffffffffffffffffffffff1673ffffffffffffffffffffffffffffffffffffffff168152602001908152602001600020549050600081118015610e87575080600160009054906101000a900473ffffffffffffffffffffffffffffffffffffffff1673ffffffffffffffffffffffffffffffffffffffff166370a08231306000604051602001526040518263ffffffff167c0100000000000000000000000000000000000000000000000000000000028152600401808273ffffffffffffffffffffffffffffffffffffffff1673ffffffffffffffffffffffffffffffffffffffff168152602001915050602060405180830381600087803b1515610e6a57600080fd5b6102c65a03f11515610e7b57600080fd5b50505060405180519050115b15611000576000600460008473ffffffffffffffffffffffffffffffffffffffff1673ffffffffffffffffffffffffffffffffffffffff168152602001908152602001600020819055506000600360008473ffffffffffffffffffffffffffffffffffffffff1673ffffffffffffffffffffffffffffffffffffffff16815260200190815260200160002081905550600160009054906101000a900473ffffffffffffffffffffffffffffffffffffffff1673ffffffffffffffffffffffffffffffffffffffff1663a9059cbb83836000604051602001526040518363ffffffff167c0100000000000000000000000000000000000000000000000000000000028152600401808373ffffffffffffffffffffffffffffffffffffffff1673ffffffffffffffffffffffffffffffffffffffff16815260200182815260200192505050602060405180830381600087803b1515610fe357600080fd5b6102c65a03f11515610ff457600080fd5b50505060405180519050505b5b8280600101935050610c34565b7f2cf90ebdb4294ac4df3683f90fee6b2e4305b924da3c3b145960c0392f8cf0278585604051808060200182810382528484828181526020019250602002808284378201915050935050505060405180910390a15050505050565b6000809054906101000a900473ffffffffffffffffffffffffffffffffffffffff1673ffffffffffffffffffffffffffffffffffffffff163373ffffffffffffffffffffffffffffffffffffffff161415156110c457600080fd5b600260008273ffffffffffffffffffffffffffffffffffffffff1673ffffffffffffffffffffffffffffffffffffffff16815260200190815260200160002060009054906101000a900460ff16151561111c57600080fd5b6000600260008373ffffffffffffffffffffffffffffffffffffffff1673ffffffffffffffffffffffffffffffffffffffff16815260200190815260200160002060006101000a81548160ff0219169083151502179055507f7e1dd2258a1fa02a8360869a16fa4e1d4649c796d79a8d520f03a1dd8ae41af081604051808273ffffffffffffffffffffffffffffffffffffffff1673ffffffffffffffffffffffffffffffffffffffff16815260200191505060405180910390a150565b60008060009054906101000a900473ffffffffffffffffffffffffffffffffffffffff1673ffffffffffffffffffffffffffffffffffffffff163373ffffffffffffffffffffffffffffffffffffffff1614151561123757600080fd5b600090505b828290508110156112d657600160026000858585818110151561125b57fe5b9050602002013573ffffffffffffffffffffffffffffffffffffffff1673ffffffffffffffffffffffffffffffffffffffff1673ffffffffffffffffffffffffffffffffffffffff16815260200190815260200160002060006101000a81548160ff021916908315150217905550808060010191505061123c565b7f38b0ca37539c1f04430742c13474bf9185bc2faf638609de5d6ce28de7da4d558383604051808060200182810382528484828181526020019250602002808284378201915050935050505060405180910390a1505050565b6000809054906101000a900473ffffffffffffffffffffffffffffffffffffffff1681565b60026020528060005260406000206000915054906101000a900460ff1681565b6000600460008373ffffffffffffffffffffffffffffffffffffffff1673ffffffffffffffffffffffffffffffffffffffff168152602001908152602001600020549050919050565b600560149054906101000a900460ff1681565b60046020528060005260406000206000915090505481565b60008060009054906101000a900473ffffffffffffffffffffffffffffffffffffffff1673ffffffffffffffffffffffffffffffffffffffff163373ffffffffffffffffffffffffffffffffffffffff1614151561144557600080fd5b6001600281111561145257fe5b600560149054906101000a900460ff16600281111561146d57fe5b14151561147957600080fd5b6000600460008473ffffffffffffffffffffffffffffffffffffffff1673ffffffffffffffffffffffffffffffffffffffff168152602001908152602001600020541115156114c757600080fd5b6000600360008473ffffffffffffffffffffffffffffffffffffffff1673ffffffffffffffffffffffffffffffffffffffff1681526020019081526020016000205411151561151557600080fd5b600260008373ffffffffffffffffffffffffffffffffffffffff1673ffffffffffffffffffffffffffffffffffffffff16815260200190815260200160002060009054906101000a900460ff16151561156d57600080fd5b600460008373ffffffffffffffffffffffffffffffffffffffff1673ffffffffffffffffffffffffffffffffffffffff16815260200190815260200160002054600160009054906101000a900473ffffffffffffffffffffffffffffffffffffffff1673ffffffffffffffffffffffffffffffffffffffff166370a08231306000604051602001526040518263ffffffff167c0100000000000000000000000000000000000000000000000000000000028152600401808273ffffffffffffffffffffffffffffffffffffffff1673ffffffffffffffffffffffffffffffffffffffff168152602001915050602060405180830381600087803b151561167257600080fd5b6102c65a03f1151561168357600080fd5b5050506040518051905011151561169957600080fd5b600460008373ffffffffffffffffffffffffffffffffffffffff1673ffffffffffffffffffffffffffffffffffffffff1681526020019081526020016000205490506000600460008473ffffffffffffffffffffffffffffffffffffffff1673ffffffffffffffffffffffffffffffffffffffff168152602001908152602001600020819055506000600360008473ffffffffffffffffffffffffffffffffffffffff1673ffffffffffffffffffffffffffffffffffffffff16815260200190815260200160002081905550600160009054906101000a900473ffffffffffffffffffffffffffffffffffffffff1673ffffffffffffffffffffffffffffffffffffffff1663a9059cbb83836000604051602001526040518363ffffffff167c0100000000000000000000000000000000000000000000000000000000028152600401808373ffffffffffffffffffffffffffffffffffffffff1673ffffffffffffffffffffffffffffffffffffffff16815260200182815260200192505050602060405180830381600087803b151561183257600080fd5b6102c65a03f1151561184357600080fd5b50505060405180519050507f896e034966eaaf1adc54acc0f257056febbd300c9e47182cf761982cf1f5e4308282604051808373ffffffffffffffffffffffffffffffffffffffff1673ffffffffffffffffffffffffffffffffffffffff1681526020018281526020019250505060405180910390a15050565b6000809054906101000a900473ffffffffffffffffffffffffffffffffffffffff1673ffffffffffffffffffffffffffffffffffffffff163373ffffffffffffffffffffffffffffffffffffffff1614151561191857600080fd5b600073ffffffffffffffffffffffffffffffffffffffff168173ffffffffffffffffffffffffffffffffffffffff161415151561195457600080fd5b8073ffffffffffffffffffffffffffffffffffffffff166000809054906101000a900473ffffffffffffffffffffffffffffffffffffffff1673ffffffffffffffffffffffffffffffffffffffff167f8be0079c531659141344cd1fd0a4f28419497f9722a3daafe3b4186f6b6457e060405160405180910390a3806000806101000a81548173ffffffffffffffffffffffffffffffffffffffff021916908373ffffffffffffffffffffffffffffffffffffffff16021790555050565b60008060009054906101000a900473ffffffffffffffffffffffffffffffffffffffff1673ffffffffffffffffffffffffffffffffffffffff163373ffffffffffffffffffffffffffffffffffffffff16141515611a6f57600080fd5b60016002811115611a7c57fe5b600560149054906101000a900460ff166002811115611a9757fe5b141515611aa357600080fd5b6002600560146101000a81548160ff02191690836002811115611ac257fe5b0217905550600560009054906101000a900473ffffffffffffffffffffffffffffffffffffffff1673ffffffffffffffffffffffffffffffffffffffff166108fc3073ffffffffffffffffffffffffffffffffffffffff16319081150290604051600060405180830381858888f193505050501515611b4057600080fd5b600160009054906101000a900473ffffffffffffffffffffffffffffffffffffffff1673ffffffffffffffffffffffffffffffffffffffff166370a08231306000604051602001526040518263ffffffff167c0100000000000000000000000000000000000000000000000000000000028152600401808273ffffffffffffffffffffffffffffffffffffffff1673ffffffffffffffffffffffffffffffffffffffff168152602001915050602060405180830381600087803b1515611c0557600080fd5b6102c65a03f11515611c1657600080fd5b505050604051805190509050600160009054906101000a900473ffffffffffffffffffffffffffffffffffffffff1673ffffffffffffffffffffffffffffffffffffffff1663a9059cbb600560009054906101000a900473ffffffffffffffffffffffffffffffffffffffff16836000604051602001526040518363ffffffff167c0100000000000000000000000000000000000000000000000000000000028152600401808373ffffffffffffffffffffffffffffffffffffffff1673ffffffffffffffffffffffffffffffffffffffff16815260200182815260200192505050602060405180830381600087803b1515611d1157600080fd5b6102c65a03f11515611d2257600080fd5b50505060405180519050507f14ec60d0373c83ba77dc45414cae907fae75e119a6017990140d4c4aed95803b60405160405180910390a150565b6000806000809054906101000a900473ffffffffffffffffffffffffffffffffffffffff1673ffffffffffffffffffffffffffffffffffffffff163373ffffffffffffffffffffffffffffffffffffffff16141515611dba57600080fd5b60016002811115611dc757fe5b600560149054906101000a900460ff166002811115611de257fe5b141515611dee57600080fd5b6000600460008573ffffffffffffffffffffffffffffffffffffffff1673ffffffffffffffffffffffffffffffffffffffff16815260200190815260200160002054111515611e3c57600080fd5b6000600360008573ffffffffffffffffffffffffffffffffffffffff1673ffffffffffffffffffffffffffffffffffffffff16815260200190815260200160002054111515611e8a57600080fd5b600360008473ffffffffffffffffffffffffffffffffffffffff1673ffffffffffffffffffffffffffffffffffffffff1681526020019081526020016000205490506000600360008573ffffffffffffffffffffffffffffffffffffffff1673ffffffffffffffffffffffffffffffffffffffff168152602001908152602001600020819055506000600460008573ffffffffffffffffffffffffffffffffffffffff1673ffffffffffffffffffffffffffffffffffffffff168152602001908152602001600020819055508273ffffffffffffffffffffffffffffffffffffffff166108fc829081150290604051600060405180830381858888f193505050501515611f9657600080fd5b8273ffffffffffffffffffffffffffffffffffffffff167fd7dee2702d63ad89917b6a4da9981c90c4d24f8c2bdfd64c604ecae57d8d0651826040518082815260200191505060405180910390a26001915050919050565b600080828401905083811015151561200257fe5b80915050929150505600a165627a7a7230582040fdccca08d80ea79db010c7ca94de09a253ae371f3ae4f48e71041aac5fe7a90029",
  "source": "pragma solidity ^0.4.18;\r\n\r\nimport \"./math/SafeMath.sol\";\r\nimport \"./ownership/Ownable.sol\";\r\n\r\ninterface GStarToken {\r\n  function transfer(address to, uint256 value) public returns (bool);\r\n  function balanceOf(address who) public view returns (uint256);\r\n}\r\n\r\n/**\r\n * @title RefundVault\r\n * @dev This contract is used for storing funds while a crowdsale is in progress.\r\n * The RefundVault must hold tokens for tokens to be released.\r\n * Buyers can claim for a full refund for his ether against the tokens.\r\n * Once tokens is claimed, no refund can be made.\r\n */\r\ncontract RefundVault is Ownable {\r\n  using SafeMath for uint256;\r\n\r\n  enum State { Active, Settling, Closed }\r\n\r\n  GStarToken public gStarToken;\r\n\r\n  mapping (address => bool) public whitelist;\r\n  mapping (address => uint256) public depositedEther;\r\n  mapping (address => uint256) public depositedTokens;\r\n  address public wallet = 0x9A1C6fA66DbaEA367e21403609628a40Cf345b6e;\r\n  State public state;\r\n\r\n  event SettlementEnabled();\r\n  event SettlementEnded();\r\n  event Refunded(address indexed beneficiary, uint256 weiAmount);\r\n  event TokensClaimed(address investor, uint256 tokensWeiAmount);\r\n  event Whitelisted(address beneficiary);\r\n  event Delisted(address beneficiary);\r\n  event AddedMultipleToWhitelist(address[] beneficiaries);\r\n  event BulkWhitelistAndReleaseTokens(address[] beneficiaries);\r\n  event Deposited(address investor, uint256 etherWeiAmount, uint256 tokensWeiAmount);\r\n\r\n  /**\r\n   * @dev Constructor function.\r\n   * @param deployedGStar The address of the deployed GSTAR contract.\r\n   */\r\n  function RefundVault(address deployedGStar) public {\r\n    require(deployedGStar != address(0));\r\n    owner = msg.sender;\r\n    state = State.Active;\r\n    gStarToken = GStarToken(deployedGStar);\r\n  }\r\n\r\n  /**\r\n   * @dev This function updates the ether deposited to the investor and the token amount bought.\r\n   * @param investor Investor address\r\n   * @param tokensWeiAmount Amount of tokens bought.\r\n   */\r\n  function deposit(address investor, uint256 tokensWeiAmount) onlyOwner external payable {\r\n    require(state == State.Active);\r\n    depositedTokens[investor] = depositedTokens[investor].add(tokensWeiAmount);\r\n    depositedEther[investor] = depositedEther[investor].add(msg.value);\r\n\r\n    Deposited(investor, msg.value, tokensWeiAmount);\r\n  }\r\n\r\n  /**\r\n  * @dev End settlement period. This function can only be called once and it is not reversisble.\r\n  * Funds forwarded to wallet after closing.\r\n  */\r\n  function endSettlement() onlyOwner external {\r\n    require(state == State.Settling);\r\n    state = State.Closed;\r\n\r\n    wallet.transfer(this.balance);\r\n\r\n    uint256 currentRemainingBalance = gStarToken.balanceOf(address(this));\r\n    gStarToken.transfer(wallet, currentRemainingBalance);\r\n    SettlementEnded();\r\n  }\r\n\r\n  /**\r\n  * @dev Stops crowdsale and enable release of tokens and refund of ethers.\r\n  */\r\n  function enableSettlement() onlyOwner external {\r\n    require(state == State.Active);\r\n    state = State.Settling;\r\n    SettlementEnabled();\r\n  }\r\n\r\n  /**\r\n   * @dev This function refunds the investor the full ether amount.\r\n   * @param investor Investor address\r\n   // Returns true if refund is successful.\r\n   */\r\n  function refund(address investor) onlyOwner external returns (bool) {\r\n    require(state == State.Settling);\r\n    require(depositedTokens[investor] > 0);\r\n    require(depositedEther[investor] > 0);\r\n\r\n    uint256 depositedEtherValue = depositedEther[investor];\r\n    depositedEther[investor] = 0;\r\n    depositedTokens[investor] = 0;\r\n\r\n    investor.transfer(depositedEtherValue);\r\n\r\n    Refunded(investor, depositedEtherValue);\r\n    return true;\r\n  }\r\n\r\n  /**\r\n  * @dev This function releases the full amount of tokens to the investor.\r\n  * @param investor Investor address\r\n  */\r\n  function claimTokens(address investor) onlyOwner external {\r\n    require(state == State.Settling);\r\n    require(depositedTokens[investor] > 0);\r\n    require(depositedEther[investor] > 0);\r\n    require(whitelist[investor]);\r\n    require(gStarToken.balanceOf(address(this)) > depositedTokens[investor]);\r\n\r\n    uint256 tokensAmount = depositedTokens[investor];\r\n\r\n    depositedTokens[investor] = 0;\r\n    depositedEther[investor] = 0;\r\n\r\n    gStarToken.transfer(investor, tokensAmount);\r\n    TokensClaimed(investor, tokensAmount);\r\n  }\r\n\r\n  /**\r\n  * @dev Add buyer to whitelist.\r\n  * @param beneficiary Address to add to whitelist.\r\n  */\r\n  function addToWhiteList(address beneficiary) external onlyOwner {\r\n    require(!whitelist[beneficiary]);\r\n    whitelist[beneficiary] = true;\r\n    Whitelisted(beneficiary);\r\n  }\r\n\r\n  /**\r\n  * @dev Add multiple addresses to the whitelist.\r\n  * @param beneficiaries Array of addresses to add to whitelist.\r\n  */\r\n  function addManyToWhitelist(address[] beneficiaries) external onlyOwner {\r\n    for (uint256 i = 0; i < beneficiaries.length; i++) {\r\n      whitelist[beneficiaries[i]] = true;\r\n    }\r\n    AddedMultipleToWhitelist(beneficiaries);\r\n  }\r\n\r\n  /**\r\n  * @dev Add multiple addresses to the whitelist and release tokens to them.\r\n  * @param beneficiaries Array of addresses to add to whitelist and release tokens to.\r\n  */\r\n  function whitelistAndReleaseTokens(address[] beneficiaries) external onlyOwner {\r\n    require(state == State.Settling);\r\n    for (uint256 i = 0; i < beneficiaries.length; i++) {\r\n      address currentBeneficiary = beneficiaries[i];\r\n      whitelist[currentBeneficiary] = true;\r\n\r\n      if(depositedTokens[currentBeneficiary] > 0 && depositedEther[currentBeneficiary] > 0) {\r\n        uint256 tokensAmount = depositedTokens[currentBeneficiary];\r\n\r\n        if(tokensAmount > 0 && gStarToken.balanceOf(address(this)) > tokensAmount) {\r\n          depositedTokens[currentBeneficiary] = 0;\r\n          depositedEther[currentBeneficiary] = 0;\r\n          gStarToken.transfer(currentBeneficiary, tokensAmount);\r\n        }\r\n      }\r\n    }\r\n    BulkWhitelistAndReleaseTokens(beneficiaries);\r\n  }\r\n\r\n  /**\r\n  * @dev Remove single address from whitelist.\r\n  * @param beneficiary Address to remove from whitelist.\r\n  */\r\n  function removeFromWhitelist(address beneficiary) external onlyOwner {\r\n    require(whitelist[beneficiary]);\r\n    whitelist[beneficiary] = false;\r\n    Delisted(beneficiary);\r\n  }\r\n\r\n  /**\r\n* @dev Shows amount of tokens deposited in refund vault.\r\n* @param beneficiary Address of beneficiary\r\n* Returns Wei amount of tokens deposited in refund vault\r\n*/\r\nfunction tokensDeposited(address beneficiary) public view returns (uint256) {\r\n  return depositedTokens[beneficiary];\r\n}\r\n\r\n/**\r\n* @dev Shows amount of ether deposited in refund vault.\r\n* @param beneficiary Address of beneficiary\r\n* Returns Wei amount of ether deposited in refund vault\r\n*/\r\nfunction etherDeposited(address beneficiary) public view returns (uint256) {\r\n  return depositedEther[beneficiary];\r\n}\r\n\r\n/**\r\n* @dev Shows if beneficiary is whitelisted.\r\n* @param beneficiary Address of beneficiary\r\n* Returns true if whitelisted.\r\n*/\r\nfunction isWhitelisted(address beneficiary) public view returns (bool) {\r\n  return whitelist[beneficiary];\r\n}\r\n}\r\n",
  "sourcePath": "C:\\GStarCrowdsale\\contracts\\RefundVault.sol",
  "compiler": {
    "name": "solc",
    "version": "0.4.19+commit.c4cbbb05.Emscripten.clang"
  },
  "schemaVersion": "2.0.0",
  "updatedAt": "2018-03-05T09:01:53.912Z"
}